:020000040800F2
:1000000090040020A1010008391300085F120008C5
:10001000D11200080D0500081715000800000000A7
:100020000000000000000000000000003D13000878
:1000300071050008000000003B1300083F13000892
:10004000BB010008BB010008BB010008BB010008A0
:10005000BB010008BB010008BB010008BB01000890
:10006000BB010008BB010008BB010008BB01000880
:10007000BB010008BB010008BB010008BB01000870
:10008000BB010008BB010008BB010008BB01000860
:10009000BB010008BB010008BB010008BB01000850
:1000A000BB010008BB010008BB010008BB01000840
:1000B000BB010008D1130008BB010008BB01000808
:1000C000BB010008BB010008BB010008BB01000820
:1000D000BB010008BB010008BB010008BB01000810
:1000E000BB010008BB010008BB010008BB01000800
:1000F000BB010008BB010008BB010008BB010008F0
:10010000BB010008BB010008BB010008BB010008DF
:10011000BB010008BB010008BB010008BB010008CF
:10012000BB010008BB010008BB010008BB010008BF
:10013000BB010008BB010008BB010008BB010008AF
:10014000BB010008BB010008BB010008BB0100089F
:10015000BB010008BB010008BB010008BB0100088F
:10016000BB010008BB010008BB010008BB0100087F
:10017000BB010008BB010008BB0100080000000033
:10018000BB010008BB010008DFF810D000F0ACF99B
:100190000048004799150008AFF300809004002044
:1001A0000648804706480047FEE7FEE7FEE7FEE711
:1001B000FEE7FEE7FEE7FEE7FEE7FEE7C113000805
:1001C000890100082DE9F05F0546002092469B4614
:1001D00088460646814640241BE02846414647465D
:1001E000224600F0DCF853465A46C01A914110D31B
:1001F00011461846224600F0C3F82D1A67EB010895
:100200004F4622460120002100F0BAF817EB000902
:100210004E41201EA4F10104DFDC484631462A4647
:100220004346BDE8F09FD2B201E000F8012B491E21
:10023000FBD270470022F6E710B513460A46044683
:100240001946FFF7F0FF204610BD2DE9FE4F81EA69
:10025000030404F0004421F0004100944FF0000B2F
:1002600023F0004350EA01045ED052EA03045BD05D
:10027000C3F30A54C1F30A552C44A4F2F334019495
:10028000A0FB0254C1F3130141F48011C3F3130323
:1002900043F4801301FB024400FB034E840A970AD7
:1002A00044EA815447EA8357A4FB076802958D0A04
:1002B00005FB07854FEA932C04FB0C542705029D90
:1002C0004FEA065847EA1637B5EB08056EEB070C00
:1002D000870E920E47EA811742EA8312A7FB0201BA
:1002E000B6EB0B0164EB00042B0D43EA0C335E18F4
:1002F00044EB1C50DA465146E7FB0201C5F31304F8
:100300004FEA0B3343EA14534FEA0432019C43EAA9
:100310000603A4F10C040294009CCDE900B400F0A3
:1003200094F803B0BDE8F08F00200146F9E70EB560
:1003300040F2334102910021CDE900110A460B46FB
:1003400000F083F803B000BD01F0004330B421F0A9
:10035000004150EA010206D00A0DA2F56072C1F315
:100360001301002A02DC30BC00207047440F44EA2D
:10037000C104C100E01830BC00EBC25000F01FB84F
:10038000202A04DB203A00FA02F100207047914055
:10039000C2F1200320FA03F3194390407047202A4A
:1003A00004DB203A21FA02F00021704721FA02F31F
:1003B000D040C2F1200291400843194670470029FD
:1003C000A8BF7047401C490008BF20F001007047DB
:1003D00010B4B0FA80FC00FA0CF050EA010404BF3B
:1003E00010BC704749B1CCF1200421FA04F411FA91
:1003F0000CF118BF012121430843A3EB0C01CB1DD5
:100400004FEA00614FEA102042BF002010BC704745
:1004100000EBC35010440029A4BF10BC7047401C1F
:10042000490008BF20F0010010BC704710B5141E31
:1004300073F1000408DA401C41F1000192185B419D
:100440001A4301D120F0010010BD2DE9F04D924674
:100450009B4611B1B1FA81F202E0B0FA80F220328B
:100460009046FFF78DFF04460F4640EA0A0041EA36
:100470000B0153465A46084313D0114653EA010074
:1004800019D0C8F140025046FFF789FF05460E46D5
:10049000504659464246FFF773FF084305D00120F6
:1004A00004E020463946BDE8F08D0020054346EAC9
:1004B000E0762C4337430A986305E40AA0EB080072
:1004C0000022FD0A44EA47540A3002D500200146C2
:1004D000E9E7010510196941DDE90845001969419D
:1004E000BDE8F04DA2E70000064C074D06E0E068CD
:1004F00040F0010394E8070098471034AC42F6D36B
:10050000FFF746FE2016000840160008FEE7000030
:1005100070B586B014216846FFF78CFE0E480024A3
:10052000016841F00201016000680C4E00F0020019
:100530004FF48075059022462946304600F042F976
:1005400001200095CDE9010469463046039400F08E
:1005500039F806B070BD0000303802400004024097
:100560004FF48071014800F025B9000000040240FA
:100570007047000010B500F06FFA00EE100ADFEDD2
:10058000050A0548B8EE400A80EE801A80ED001A90
:1005900010BD00000024F44A0400002072B6FEE7FB
:1005A00070B5044600F014F90546601C02D00448FA
:1005B0000078044400F00CF9401BA042FAD370BD4F
:1005C000380000202DE9F84FDFF8BCA100220125FA
:1005D00003264FF00F090AF1040BAAF1040E00BF25
:1005E0000B6805FA02F42340A34270D10F7907F09B
:1005F0000307012F01D0022F16D187684FEA420866
:1006000006FA08FC27EA0C07D1F80CC00CFA08FC23
:100610004CEA070CC0F808C04768A7430C79C4F33C
:10062000001494403C4344600C79E443A4070AD08E
:10063000C4684FEA420C06FA0CF7BC438F6807FA0D
:100640000CF72743C7600C7904F00304022C12D185
:10065000D40800EB840CDCF820405707FF0E09FAA1
:1006600007F824EA0804D1F8108008FA07F848EAE5
:100670000408CCF8208004684FEA420C06FA0CF714
:10068000BC430F7907F0030707FA0CF7274307600D
:100690004C6814F4403F70D03C4C276847F48047C6
:1006A0002760246822F0030704F480440094384C47
:1006B00007EB040CDCF8084897074FEA177809FAAB
:1006C00008F7BC43334FB84202D1002724E054E07E
:1006D000314FB84201D101271EE0304FB84201D15D
:1006E000022719E02E4FB84201D1032714E02D4F05
:1006F000B84201D104270FE02B4FB84201D10527A2
:100700000AE02A4FB84201D1062705E0284FB84237
:1007100001D1072700E0082707FA08F72743CCF89C
:100720000878DAF800405746D1F804C09C435FEAE5
:10073000CC2C00D51C433C60DBF800405F46D1F870
:1007400004C09C435FEA8C2C00D51C433C60DEF85F
:1007500000407746D1F804C09C435FEA8C3C00D54A
:100760001C433C60084F083F3C68D1F804C09C43E0
:100770005FEACC3C00D51C433C60521C102AFFF4BD
:100780002FAFBDE8F88F0000083C0140443802401C
:100790000030014000000240000402400008024016
:1007A000000C0240001002400014024000180240F9
:1007B000001C0240426921EA02030A4043EA024166
:1007C000816170470AB1816170470904FBE700004D
:1007D00001488068704700003800002002488168A6
:1007E0000278114481607047380000200B4810B532
:1007F000016841F400710160016841F480610160A9
:10080000016841F480710160032000F079F80F2045
:1008100000F006F800F024F8002010BD003C024073
:1008200070B50D4D04464FF47A712878B1FBF0F0A5
:100830000A490968B1FBF0F000F0FCFA48B9102C45
:1008400007D200222146501E00F03AF800206C60CA
:1008500070BD012070BD0000380000204400002061
:100860000F4808B5016841F001010160006800F01F
:10087000010000900A481430016841F48041016091
:10088000006800F48040009005481030016841F095
:1008900080510160006800F08050009008BD0000A9
:1008A00030380240002809DB00F01F02012191408E
:1008B0004009800000F1E020C0F8001170470000FE
:1008C000F0B40E4B1B680C46C3F30223C3F10705BB
:1008D000042D00D90425191D072901D2002300E0A9
:1008E000DB1E012606FA05F1491E214099409E4073
:1008F000761E16403143F0BC00F02EBE0CED00E039
:10090000064900F0070208684FF6FF03184040EA66
:100910000220034A10430860704700000CED00E01D
:100920000000FA052DE9F0470E46050065D0DFF816
:100930001481D8F80000F7B200F00700B04207D2E7
:1009400088F80070D8F8000000F00700B04254D1D9
:1009500028683D4C810712D5400703D5206840F434
:10096000E05020602878000703D5206840F46040FC
:1009700020602068A96820F0F000084320602878F3
:10098000C0072DD0304968680839012812D00228E4
:1009900013D0032811D00968890700292DDA2168AE
:1009A00021F0030101432160FFF712FF814641F26C
:1009B000883A0EE009688903EFE709688901ECE7E6
:1009C000FFF706FFA0EB0901514502D90320BDE85E
:1009D000F0872068696800F00C00B0EB810FEFD160
:1009E000D8F80010404601F00701B14207D907705E
:1009F000006800F00700B04201D00120E7E7287846
:100A0000400705D52068E96820F4E05008432060DD
:100A10002878000706D52068296920F4604040EA5C
:100A2000C100206000F01EF82168084AC1F30311DC
:100A3000515CC8400649086006480068FFF7F0FEB0
:100A40000020C4E7003C02400838024010160008AD
:100A5000440000203C00002001480068704700006E
:100A600044000020154810B5006810F00C0214482E
:100A700013D01449042A0FD0082A0ED10F4C241F7A
:100A80002268236802F03F025B0207D52068C0F3AA
:100A90008810A0FB010106E0084610BD2168C1F3E3
:100AA0008811A1FB00010023FFF78CFB2168C1F333
:100AB0000141491C4900B0FBF1F010BD083802406B
:100AC0000024F40040787D012DE9F84F04006ED039
:100AD0002078DFF84C93C007A9F104054AD009F14A
:100AE00004000168C1F38101012908D00068C0F346
:100AF000810002280AD1D9F80000400206D52868F2
:100B0000800337D560680028E1D033E06068B0F535
:100B1000803F10D0B0F5A02F286810D020F480308E
:100B20002860286820F4802028606068A8B1FFF75A
:100B30004FFE06460DE0286840F48030F4E740F4AC
:100B400080202860F7E700BFFFF742FE801B642883
:100B500073D828688003F7D50CE0FFF739FE064606
:100B600005E000BFFFF734FE801B6428F0D828683A
:100B70008003F7D42078DFF8AC8280074FF0000ABA
:100B80003ED5A748001D016811F00C0F08D0006881
:100B9000C0F3810002280BD1D9F80000400207D42D
:100BA0002868800716D5E068012800D112E033E1FB
:100BB000E068B8B10120C8F80000FFF709FE06465A
:100BC00005E000BFFFF704FE801B0228C0D828689C
:100BD0008007F7D52868216920F0F80040EAC100B5
:100BE00028600DE0C8F800A0FFF7F2FD064604E01B
:100BF000FFF7EEFD801B02281FD828688007F7D476
:100C00002078000722D5864F87486169703771B117
:100C100001210160FFF7DCFD064604E0FFF7D8FD87
:100C2000801B022809D838688007F7D50EE0C0F885
:100C300000A0FFF7CDFD064605E082E0FFF7C8FD06
:100C4000801B02287DD838688007F7D420784007B9
:100C500068D5DFF8CCB100270BF13C0BDBF80000C6
:100C6000C0000BD4DBF8001041F08051CBF800102D
:100C7000DBF80000012700F0805000906B4E3068D8
:100C8000C00510D4306840F480703060FFF7A0FDDC
:100C9000009005E0FFF79CFD0099401A022850D80B
:100CA0003068C005F6D55E4EA0686C3601280FD0BE
:100CB0000528306810D020F001003060306820F046
:100CC00004003060A068B8B1FFF782FD00900FE02B
:100CD000306840F00100F4E740F004003060F7E7CE
:100CE000FFF776FD0099411A41F28830814266D8BB
:100CF00030688007F4D50EE0FFF76AFD009007E04A
:100D0000FFF766FD0099411A41F28830814256D8BA
:100D100030688007F4D42FB1DBF8001021F0805147
:100D2000CBF80010A069C8B33D49091D0968C1F39B
:100D3000810102294AD00228504607D0C8F8600035
:100D400000E03CE0FFF744FD04463BE04746C8F8BE
:100D50006000FFF73DFD064605E000BFFFF738FDE8
:100D6000801B02282BD828688001F7D4D4E907011A
:100D70000843A16A2E4A490802EB0141626A41EA2E
:100D80008211084394F82C1040EA0161C9F8001060
:100D900001203866FFF71CFD044606E03EE000BF78
:100DA000FFF716FD001B022809D828688001F7D537
:100DB00034E000BFFFF70CFD001B022802D903201E
:100DC000BDE8F88F28688001F4D427E00128F7D027
:100DD000D9F80000E26900F4800191421CD1226A36
:100DE00000F03F01914217D147F6C071626A01409D
:100DF000B1EB821F10D1A26A4FF0FF3300F44031F3
:100E000003EB5202B1EB024F06D194F82C1000F024
:100E10007060B0EB016F01D00120D1E70020CFE777
:100E20000438024000004742800E474200700040F4
:100E30000000FFFF10B5401EB0F1807F01D30120FC
:100E400010BD4FF0E02460610F21601700F084FBBB
:100E50000020A06107202061002010BD704770476E
:100E600070B590F83C20012A32D0012480F83C4033
:100E7000022280F83D2003685A689D6822F07006BF
:100E80000A6832435A60134B02689A4214D0B2F196
:100E9000804F11D0104B9A420ED0104B9A420BD07B
:100EA0000F4B9A4208D00F4B9A4205D00E4B9A42F4
:100EB00002D00E4B9A4204D1496825F080031943B1
:100EC000916080F83D40002180F83C10084670BDDC
:100ED000022070BD000001400004004000080040F6
:100EE000000C004000040140004001400018004098
:100EF00010B5040003D094F83D0010B107E00120C4
:100F000010BD002084F83C00204600F01FF80220AD
:100F100084F83D00211D206800F060FA012084F86B
:100F2000460084F83E0084F83F0084F8400084F8CE
:100F3000410084F8420084F8430084F8440084F8B7
:100F4000450084F83D00002010BD000008B5006891
:100F50000B49884212D10B48016841F0020101603F
:100F60000068002200F00200009011461D20FFF7EB
:100F7000A7FCBDE808401D20FFF794BC08BD000099
:100F8000000400404038024090F83D10012901D093
:100F900001207047022180F83D100168CA6842F0C4
:100FA0000102CA6000681149884214D0B0F1804F34
:100FB00011D00F4988420ED00E4988420BD00E49FD
:100FC000884208D00D49884205D00D49884202D098
:100FD0000C49884204D1816801F00701062903D039
:100FE000016841F0010101600020704700000140EC
:100FF0000004004000080040000C004000040140D4
:1010000000400140001800400168CA6822F0010257
:10101000CA6001680A6A41F211131A4207D10A6ACA
:101020009B101A4203D10A6822F001020A600121D2
:1010300080F83D100020704770B5044690F83C00E1
:101040000025012817D0012684F83C60022084F88E
:101050003D002068826822F0770222F47F4282609D
:101060000868502838D00DDC20284FD005DC90B31C
:10107000102811D14AE0022070BD302846D0402807
:101080000AD13BE060282FD070280DD0B0F5805FEA
:1010900003D0B0F5005F12D0012584F83D60002038
:1010A00084F83C00284670BDCB68D1E90121206856
:1010B00000F0FCF92068816841F0770109E0CB6815
:1010C000D1E90121206800F0F1F92068816841F43C
:1010D00080418160E1E719E0CA684968206800F052
:1010E000F7F95021206806E0CA684968206800F0D6
:1010F00000FA6021206800F0E3F9CEE7CA68496889
:10110000206800F0E5F940212068F4E722680146F4
:101110001046F0E770472DE9F04104460068C668C4
:1011200005694FF00007A90713D5B10711D5F91EBE
:10113000016101202077206880698007204602D065
:10114000FFF7E8FF04E000F07EF8204600F07CF8AE
:101150002777680716D5700714D521686FF004004B
:101160000861022020772068806910F4407F2046C3
:1011700002D0FFF7CFFF04E000F065F8204600F052
:1011800063F82777280715D5300713D521686FF046
:1011900008000861042020772068C0698007204685
:1011A00002D0FFF7B7FF04E000F04DF8204600F052
:1011B0004BF82777E80616D5F00614D521686FF0AE
:1011C00010000861082020772068C06910F4407F73
:1011D000204602D0FFF79EFF04E000F034F82046DE
:1011E00000F032F82777E80708D0F00706D021682A
:1011F0006FF001000861204600F028F8280608D5A5
:10120000300606D521686FF0800008612046FFF7A0
:1012100025FE680608D5700606D521686FF04000E7
:101220000861204600F01AF8A8060AD5B00608D5CD
:1012300021686FF0200008612046BDE8F041FFF70B
:101240000EBEBDE8F0817047704700000249884239
:1012500001D1FFF785B97047480000207047FEE7CD
:1012600010B586B0002419480094019402940394A8
:10127000049415490594016040F2E731C0E9011476
:1012800043F67F61C0E9031480218161FFF730FEDE
:1012900008B1FFF783F94FF48050009069460B487E
:1012A000FFF7CAFE08B1FFF779F9049404A90748CB
:1012B0000594FFF7D5FD08B1FFF770F90348FFF774
:1012C00063FE06B010BD000000040040480000208E
:1012D000FEE7000010B58078FFF729F89FED0C1BA2
:1012E00053EC112BFEF7B1FF9FED0B1B53EC112BB1
:1012F000FEF7ABFFFFF728F800EE100ADFED080A53
:1013000020EE200ABCEEC00A10EE100A80B210BD1A
:10131000000000000000B03F3694D7505E43E93F24
:1013200000007A444178034A007802EB011131F859
:101330001000704708000020FEE770477047FFF775
:101340004DBA000010B592B030216846FEF772FF2A
:1013500014210CA8FEF76EFF17480024016841F025
:1013600080510160006800F08050119013480168BE
:1013700041F4804101600068069400F480401190BF
:101380000220009001200390102004906846FFF78F
:101390009BFB08B172B6FEE70F20CDE90C040E945A
:1013A0000F9400210CA81094FFF7BCFA002801D07C
:1013B00072B6FEE712B010BD403802400070004027
:1013C0000248016841F470010160704788ED00E057
:1013D0000148FFF7A0BE000048000020F0B50268F9
:1013E000274B284D284E294F294C4FF0804C9842CE
:1013F00009D0604507D0A84205D0B04203D0B8421A
:1014000001D0A04204D122F0700E4A6842EA0E02D6
:1014100098421BD0604519D0A84217D0B04215D0D1
:10142000B84213D0A04211D01A4DA8420ED01A4D86
:10143000A8420BD0194DA84208D0194DA84205D09A
:10144000184DA84202D0184DA84203D122F440758D
:10145000CA682A434D6922F080022A438D68C5621A
:101460000D688562984201D0A04201D109690163EB
:10147000016841F004010160012141610260F0BD99
:10148000000001400004004000080040000C004043
:101490000004014000400140004401400048014078
:1014A00000180040001C00400020004010B5846877
:1014B00042EA032224F47F440A432243826010BD9F
:1014C000826822F070020A4342F00701816070478F
:1014D00010B5036A046A24F001040462846924F0EC
:1014E000F00444EA021423F00A020A43846102620F
:1014F00010BD10B5036A046A24F010040462846904
:1015000023F0A00324F4704444EA023243EA0111B8
:101510008261016210BDFEE770B504460D48FFF719
:1015200073FD601E4FF6FE7188420DD2094DA888EA
:1015300086B2FFF797FA761C7443B0FBF4F0296883
:10154000401E80B2C862E860BDE870400148FFF705
:101550001BBD0000480000200907090E002804DB1D
:1015600000F1E02080F80014704700F00F0000F157
:10157000E02080F8141D704702E008C8121F08C15F
:10158000002AFAD170477047002001E001C1121F04
:10159000002AFBD17047000008B5FFF727F9FFF7D5
:1015A000D1FEFEF7E7FFFFF75BFEFEF7B1FF642019
:1015B000FFF7B2FF4FF47A70FEF7F2FF134F0126E8
:1015C0005FF0000404EB440038440188ADF80010DB
:1015D00080788DF802006846FFF7A4FE80466846D2
:1015E000FFF778FE05469DF8000010B14046FFF772
:1015F00093FF2846FEF7D4FF641CA4B2B442E1D3A3
:101600004FF4FA60FEF7CCFFD9E70000000000209D
:1016100000000000000000000102030406070809A2
:10162000401600080000002048000000781500085F
:1016300088160008480000204804000088150008AB
:1016400000000000000000000000060126014A0121
:101650005D018801B801EE0100000B024B0293020C
:10166000BA0210037003DC03000016049704260579
:1016700075052006E006B807010000001000000014
:08168000000000000024F4004A
:040000050800018965
:00000001FF
