:020000040800F2
:10000000B80C00209D0100089B2000082B08000868
:100010009920000819070008E125000800000000E9
:10002000000000000000000000000000A123000804
:100030001B070008000000009D200008592400084C
:10004000B7010008B7010008B7010008B7010008B0
:10005000B7010008B7010008B7010008B7010008A0
:10006000B7010008B7010008B7010008B701000890
:10007000B7010008B7010008B7010008B701000880
:10008000B7010008B7010008B7010008B701000870
:10009000B7010008B7010008B7010008B701000860
:1000A000B7010008B7010008B7010008B701000850
:1000B000B7010008B7010008B7010008B701000840
:1000C000B7010008B7010008B7010008B701000830
:1000D000B7010008B7010008B7010008B701000820
:1000E000B7010008B7010008B7010008B701000810
:1000F000B7010008B7010008B7010008B701000800
:10010000B7010008B7010008B7010008B7010008EF
:10011000B7010008B7010008B7010008B7010008DF
:10012000B7010008B7010008B7010008B7010008CF
:10013000B7010008B7010008B7010008B7010008BF
:10014000B7010008B7010008B7010008B7010008AF
:10015000B7010008B7010008B7010008B70100089F
:10016000B7010008B7010008B7010008B70100088F
:10017000B7010008B7010008B7010008B70100087F
:10018000B7010008B7010008DFF80CD000F0A2FAB0
:10019000004800472D2F0008B80C00200648804773
:1001A00006480047FEE7FEE7FEE7FEE7FEE7FEE75C
:1001B000FEE7FEE7FEE7FEE75D2400088901000890
:1001C0002DE9FE4F804681EA0300C00F0C460090E7
:1001D00021F0004123F00045B8EB0200A94105D20F
:1001E0004046214690461C460B46024623F00040FE
:1001F000104347D0270DC7F30A00C3F30A510290FA
:10020000401A019040286BDAC3F3130040F4801BBE
:100210000098924620B10023D2EB030A63EB0B0B4C
:1002200001985946C0F14002504600F036F90646A2
:100230000D4650465946019A00F03EF910EB080071
:100240006141002487EA115284EAE7731A4340D0DF
:10025000009A62B3019A012A4FEA075215DC001B8B
:1002600061EB02014FF0004202EA0752CDE9004281
:10027000001C41F5801132462B4600F03EF903B0D8
:10028000BDE8F08F40462146F9E7001B61EB020113
:10029000001C41F5801300185B412018A2F50017DF
:1002A00047EB030140EAD570B6196D4111E06D08C6
:1002B0004FEA360645EAC0754FEA0752001B61EB6C
:1002C0000201001C41F5801149084FEA3000001975
:1002D000514132462B4603B0BDE8F04F00F0FEB866
:1002E0000098012240000023D0EB020263EBE07390
:1002F000009821464FEAE074B8EB000061EB04017E
:10030000E9E783F000435BE781F0004158E72DE91E
:10031000FE4F81EA030404F0004421F00041009400
:100320004FF0000B23F0004350EA01045ED052EA84
:1003300003045BD0C3F30A54C1F30A552C44A4F25E
:10034000F3340194A0FB0254C1F3130141F4801172
:10035000C3F3130343F4801301FB024400FB034E79
:10036000840A970A44EA815447EA8357A4FB076842
:1003700002958D0A05FB07854FEA932C04FB0C546C
:100380002705029D4FEA065847EA1637B5EB0805E0
:100390006EEB070C870E920E47EA811742EA831232
:1003A000A7FB0201B6EB0B0164EB00042B0D43EA43
:1003B0000C335E1844EB1C50DA465146E7FB020151
:1003C000C5F313044FEA0B3343EA14534FEA0432E4
:1003D000019C43EA0603A4F10C040294009CCDE9BD
:1003E00000B400F08AF803B0BDE8F08F00200146A9
:1003F000F9E70EB540F2334102910021CDE9001139
:100400000A460B4600F079F803B000BD30B50B4644
:10041000014600202022012409E021FA02F59D4234
:1004200005D303FA02F5491B04FA02F52844151E08
:10043000A2F10102F1DC30BD2DE9F05F054600209C
:1004400092469B4688460646814640241BE0284645
:1004500041464746224600F04FF953465A46C01AD5
:10046000914110D311461846224600F016F82D1A75
:1004700067EB01084F4622460120002100F00DF8ED
:1004800017EB00094E41201EA4F10104DFDC4846B1
:1004900031462A464346BDE8F09F202A04DB203A35
:1004A00000FA02F1002070479140C2F1200320FAC7
:1004B00003F3194390407047202A06DBCB17203AFC
:1004C00041FA02F043EAE07306E041FA02F3D04059
:1004D000C2F12002914008431946704710B5141E1E
:1004E00073F1000408DA401C41F1000192185B41ED
:1004F0001A4301D120F0010010BD2DE9F04D9246C4
:100500009B4611B1B1FA81F202E0B0FA80F22032DA
:100510009046FFF7C2FF04460F4640EA0A0041EA50
:100520000B0153465A46084313D0114653EA0100C3
:1005300019D0C8F14002504600F0DEF805460E46DC
:10054000504659464246FFF7A8FF084305D0012010
:1005500004E020463946BDE8F08D0020054346EA18
:10056000E0762C4337430A986305E40AA0EB0800C1
:100570000022FD0A44EA47540A3002D50020014611
:10058000E9E7010510196941DDE9084500196941EC
:10059000BDE8F04DA2E72DE9F04D81EA030404F037
:1005A000004B21F0004514464FF0000A23F00041B3
:1005B00050EA050220D054EA01021DD0C5F30A57C3
:1005C0000246C5F31303C1F31300C1F30A5640F406
:1005D000801543F48013A7EB0608101BD64608F2DB
:1005E000FD3873EB050002D308F1010801E0921811
:1005F0005B41B8F1000F03DA00200146BDE8F08D41
:1006000000204FF48011064684460EE0171B73EB62
:10061000050705D3121B63EB050306434CEA010CE7
:1006200049084FEA300092185B4150EA0107EDD1CA
:1006300052EA030012D082EA040083EA050108436B
:1006400005D0101BAB4106D20122002306E0002298
:100650004FF0004302E06FF0010253101AEB060066
:100660004CEB085110EB0A0041EB0B01BDE8F04DDB
:10067000FFF734BFC1F30A52C1F3130140F2FF3355
:1006800041F480119A4202DA00200146704740F29C
:1006900033439A42A2F2334202DC524200F02CB8B9
:1006A000FFF7FBBE30B5041E71F1000404DB4FF010
:1006B0000044404264EB0101141E73F1000405DBA9
:1006C0001C464FF00043524263EB0403994208BFBB
:1006D000904230BD064C074D06E0E06840F0010353
:1006E00094E8070098471034AC42F6D3FFF750FD6A
:1006F000C8A50008E8A50008202A04DB203A21FA52
:1007000002F00021704721FA02F3D040C2F120022A
:100710009140084319467047FEE770470A484FF476
:100720007A710068B0FBF1F0401EB0F1807F0AD210
:100730004FF0E0214861054AF02082F8140D0020B6
:100740008861072008617047840000200FE000E006
:100750000249086008680028FCD1704700000020AA
:10076000F0B50023012403270D6804FA03F21540B5
:10077000954242D1D0F800C05E0007FA06F52CEA97
:10078000050CC0F800C091F804C0D0F800E00CFAE5
:1007900006FC4CEA0E0CC0F800C091F804C0BCF195
:1007A000010F02D0BCF1020F1FD1D0F808C02CEA13
:1007B000050CC0F808C091F805C0D0F808E00CFAA4
:1007C00006FC4CEA0E0CC0F808C0D0F804C02CEAB5
:1007D000020CC0F804C0426891F806C00CFA03FC91
:1007E0001FFA8CFC42EA0C024260C268AA43C26053
:1007F000CA79C568B2402A43C2605B1C102BB3D3D0
:10080000F0BD4B07DB0E9A40C90810B500EB810024
:10081000016A0F249C40A1430162016A11430162F5
:1008200010BD4183704701837047FEE71CB501216D
:10083000084601F035FC00208DF8040001218DF8F8
:1008400007108DF80500C803009069460148FFF7BE
:1008500087FF1CBD000002402DE9F041204C002123
:10086000A089401E83B26089401E82B2084600F013
:1008700053FD1C48018821F040010180018841F4AA
:1008800000610180018841F0400101801649C514D2
:100890000D80A38813499EB2B4F80CC0638900226E
:1008A00008310F1D03FB0CF304E03E800C88A40705
:1008B000FCD5521C9342F8D80A881206FCD40A4987
:1008C000891E0D80018821F040010180018821F4FA
:1008D00000610180018841F040010180BDE8F081A4
:1008E000A8080020003C00401A0C024008B5002374
:1008F00041F288310DE000BFADF8003005E000BFE7
:10090000BDF80020521CADF80020BDF800208A423E
:10091000F6D3401EF0D208BD2DE9F05F0023203A47
:1009200002F0FF0B284A824689464FF400601C46BD
:1009300019461080DFF894E0254EDEF8000026E02E
:100940000768DFF890C00BFB0272BCF80070BCF8BF
:1009500004C09D5C0022BFB21FFA8CFC5FEAC57820
:1009600002D026F8147001E026F814C0641C491C5B
:10097000B0F804806D0889B2A4B2884501D1002185
:1009800003E0521C92B2082AE8D35B1C9BB2028996
:100990009A42D5D8C288A9F1010111448BB281884D
:1009A000AAF10100084482B274464946504600F05C
:1009B000B3FC20688188C088BDE8F05F414389B2FC
:1009C000034801F0DBBA00001A0C02407C00002052
:1009D000A8000020A80800202DE9F05FDFF8D080F3
:1009E00083468A46D8F804000023177805890668EC
:1009F00019465C1C05FB04FC16F80CC0BC4508D16C
:100A000004FB056492F801C06478644501D19946FD
:100A100004E09B1C44899BB29C42EAD80022134606
:100A2000C646244E27E00768DFF88CC009FB047433
:100A3000BCF80070BCF804C01D5D0024BFB21FFAF2
:100A40008CFC00BF5FEAC57802D026F8127001E086
:100A500026F812C0521C491CB0F804806D0889B2F7
:100A600092B2884501D1002103E0641CA4B2082C95
:100A7000E8D35B1C9BB204899C42D4D8C288AAF1FB
:100A8000010111448BB28188ABF10100084482B2AC
:100A900074465146584600F03FFC60688188C08823
:100AA000BDE8F05F414389B2024801F067BA000037
:100AB0007C000020A8000020A808002030B50546D2
:100AC000094887B00C46007A8DED000B50B107A1A4
:100AD00002A801F0A9FD02AA2146284600F02CF840
:100AE00007B030BD03A1F3E7A8080020252A2E2A6D
:100AF0006C66000025302A2E2A6C66007FB51E46E3
:100B0000094B05460C46187A1346324648B107A1F0
:100B1000684601F089FD6A462146284600F00CF837
:100B20007FBD03A1F4E70000A8080020252A640087
:100B300025302E2A640000002DE9F0411546884634
:100B400004460A4F0A4E08E041462046FFF7E4FEFD
:100B500038686D1C8088204484B27089A04202D914
:100B60002A78002AF0D1BDE8F08100007C00002046
:100B7000A80800202DE9F04114460F4605460E4E08
:100B800015E07F2A09D839462846FFF7C5FE3068A8
:100B9000641C8088284485B209E0224639462846EC
:100BA000FFF71AFF7068A41C8088284485B2227859
:100BB000002AE6D1BDE8F0817C0000202DE9F84F45
:100BC00081465542002602201E4F884600EB450410
:100BD000A9EB05003A6808EB060A00901FFA8AF1B3
:100BE00080B200F04BFA09EB050B1FFA8AF11FFAED
:100BF0008BF03A6800F042FAA8EB060A1FFA8AF175
:100C00001FFA8BF03A6800F039FA00981FFA8AF15F
:100C10003A6880B200F032FA2046B44208DC761C12
:100C200000EB4604641CF54202D1A84200DC00201F
:100C3000A84203DD6D1C04EB4504641C002DC7DDD8
:100C4000BDE8F88FA80800202DE9F05F00EE102A1B
:100C500080465742F8EEC00A00EE103A022000EB40
:100C60004704B8EEC00A00256C480E462DED028BF5
:100C70009A4267DD80EE808A4FEA000900EE105A42
:100C8000A8EB070BD9F80020B8EEC00AC0EE080A9E
:100C9000BCEEE00A10EE100A304481B21FFA8BF06D
:100CA00000F0ECF900EE105A08EB070AD9F8002022
:100CB000B8EEC00AC0EE080ABCEEE00A10EE100A58
:100CC000304481B21FFA8AF000F0D8F900EE105AD1
:100CD000D9F80020B8EEC00AC0EE080ABCEEE00A5F
:100CE00010EE100A301A81B21FFA8AF000F0C6F92D
:100CF00000EE105AD9F80020B8EEC00AC0EE080A7B
:100D0000BCEEE00A10EE100A301A81B21FFA8BF026
:100D100000F0B4F92046AC4208DC6D1C00EB450441
:100D2000641CEF4202D1B84200DC0020B84203DD6F
:100D30007F1C04EB4704641C002F9FDDBDEC028B7D
:100D4000BDE8F09F80EE208A5F420025814600BF0B
:100D500000EE105A06EB070A1FFA8AF1B8EEC00A35
:100D6000D9F80020C0EE080ABCEEE00A10EE100A26
:100D7000A8EB000080B200F081F900EE105A1FFAD3
:100D80008AF1D9F80020B8EEC00AC0EE080ABCEE1D
:100D9000E00A10EE100A404480B200F06FF900EE55
:100DA000105AA6EB070A1FFA8AF1B8EEC00AD9F862
:100DB0000020C0EE080ABCEEE00A10EE100A404423
:100DC00080B200F05BF900EE105A1FFA8AF1D9F8F0
:100DD0000020B8EEC00AC0EE080ABCEEE00A10EE31
:100DE000100AA8EB000080B200F048F92046AC429F
:100DF00009DC6D1C05EB45010C18641CEF4202D1A7
:100E0000B84200DC0020B84204DD7F1C07EB47003D
:100E10000444641C002F9BDD90E70000A80800201C
:100E20002DE9FF4F83B00746064604989B464FF4D2
:100E300080610090B1FBFBF0DDF84090144601901A
:100E400038194FF0000A401E554602906EE000200F
:100E5000F4EE000A27E000BF374B99F80020A3F515
:100E6000006EB3F800C09B8800211FFA8CFC9BB277
:100E70005FEAC27802D02EF815C001E02EF81530D6
:100E8000761CB6B26D1C5208A6EB0708ADB2A045A1
:100E900001D13E4603E0491C89B20829E8D3401C31
:100EA00009F1010980B200EE104AB8EE400A20EEC6
:100EB000201A00EE100AB8EE400AB4EEC01AF1EEA5
:100EC00010FAC9DC01986043A84216D1DDE900019F
:100ED00000EB0108A8F1010083B20298002582B25C
:100EE0003846009900F018FA0198604381B213481F
:100EF00001F044F81FFA88F000900AF10108D84583
:100F000012D1049902988A4482B21FFA8AF33846B1
:100F1000009900F001FA0099AAEB0100401C60431F
:100F200081B2064801F02AF81FFA88FADA458ED312
:100F300007B0BDE8F08F0000A8080020A80000203E
:100F40002DE9FE4F0027141A002C00DC841A0FFA3A
:100F500084F85C1A002C00DCCC1A0FFA84FC06B270
:100F60000DB24FF0FF34824203D30120824601903C
:100F700001E0A24601948B4203D3012081460090F8
:100F800001E0A1460094E0454FF0000008DB8146F7
:100F9000019008EBD870C3464410CDF808C026E095
:100FA000824600200090E3460CEBDC70CDF8088010
:100FB0004410D8461BE01048A9B20268B0B200F055
:100FC0005DF80298204404B25C4508DBA4EB0B00FA
:100FD00004B20198304406B20098284405B206EBEA
:100FE0000A0006B205EB09007F1C05B23FB2474577
:100FF000E1DDBDE8FE8F0000A808002070B51446B2
:101000000C4A0B46A2F500651288002192B203E05B
:1010100025F81120491C89B2A142F9D30119491EB2
:101020008AB2194600F078F92146BDE870400248BE
:1010300000F0A4BFA8080020A800002070B50D4B48
:101040001446A3F500651B8800229BB204E000BF94
:1010500025F81230521C92B2A242F9D30A19521E3C
:1010600093B2024600F058F92146BDE870400248AC
:1010700000F084BFA8080020A800002010B50B468F
:10108000024600F049F908484FF40064048007481C
:10109000008880B200F0CAFF054801880906FCD428
:1010A0000148801E048010BD1A0C0240A8080020D0
:1010B000083C00402DE9F0411C4616460D46074607
:1010C000FFF79CFF2819401E81B232463846FFF7D1
:1010D00095FF224629463846FFF7B0FFB819224649
:1010E0002946BDE8F041401E80B2FFF7A7BF2DE9B9
:1010F000F84F8B46032190460746A1EB4806002493
:1011000015464FF6FF7931E08DB1ABEB050081B2AA
:10111000009009EA4502381B924680B2FFF78EFF25
:101120000098524681B2381980B2FFF787FF8CB120
:10113000ABEB040081B2009009EA4402781B9246AE
:1011400080B2FFF77BFF0098524681B2781980B2D7
:10115000FFF774FF002E03DA06EB8406B61D04E0E9
:10116000601B06EB80066D1E0A36641CAC42CBD9B0
:10117000424659463846BDE8F84FFFF71FBD00000C
:101180002DE9F0411D4614464A19521E93B2021928
:10119000521E92B200F0C0F81A48018821F04001B6
:1011A0000180018841F400610180018841F0400123
:1011B00001801549C6140E80144B124A00210832D2
:1011C0001B88171D9BB26C4305E03B801588AD075B
:1011D000FCD5491C89B28C42F7DC11880906FCD485
:1011E0000949891E0E80018821F040010180018893
:1011F00021F400610180018841F040010180BDE8D7
:10120000F0810000003C00401A0C0240A8080020B9
:101210002DE9FC410121C80300F04EFF01210A2005
:1012200000F03EFF234D062203212846FFF7E9FA8E
:10123000062205212846FFF7E4FA02248DF804402F
:1012400003208DF8050000218DF8061008208DF888
:101250000710009069462846FFF782FA2020009088
:1012600069462846FFF77CFA01208DF804008DF8C6
:101270000540C402104F694638460094FFF770FAE3
:101280006500694638460095FFF76AFAA600694688
:1012900038460096FFF764FA29463846FFF7C3FA46
:1012A00005481830048031463846FFF7BAFABDE8E1
:1012B000FC81000000040240000C024010B5012136
:1012C00086B0C80300F0F8FE4FF44040ADF80000CF
:1012D0004FF48270ADF802000020ADF80800ADF8C0
:1012E0000400ADF80C00ADF80600ADF80E004FF4A8
:1012F00000710720074CADF80A10ADF810006946E0
:10130000204600F043FF0121204600F035FF06B0E3
:1013100010BD0000003C00402DE9F0478046184811
:101320004FF40065994616460F4605802A2000F0C6
:101330005BFE144CA17B01EB080080B200F076FE4E
:10134000A07B304480B200F071FE2B2000F04CFEF8
:10135000E07B384480B200F069FEE17B01EB0900DC
:1013600080B200F063FE2C2000F03EFE06480188AB
:101370000906FCD40248801E0580BDE8F087000005
:101380001A0C0240A8080020083C004001490860EF
:10139000704700007C0000204FF478414FF4FC625D
:1013A00001EA102102EA5012C0F3C40011430143C4
:1013B0000148416070470000A80800204FF47841C0
:1013C0004FF4FC6201EA102102EA5012C0F3C4009B
:1013D000114301430148016070470000A808002044
:1013E0002DE9F0471F4C204A4FF400696072A2F8C3
:1013F0000090002514264FF48C774FF0F00830B1A0
:10140000022809D001280CD0032816D020E036206D
:1014100000F0EAFD702008E0362000F0E5FD002035
:101420000FE0362000F0E0FDA02000F00DFEA673D6
:10143000E5736781A4F80C800AE0362000F0D4FD43
:10144000C02000F001FEA573E673A4F80A80A7810E
:10145000064801880906FCD40349891EA1F80090BA
:10146000BDE8F087A80800201A0C0240083C0040A4
:101470000C494860808814280FD005DC0C280AD05D
:10148000102807D1084804E0182808D0202801D1E6
:101490000648086070470648FBE70648F9E7064833
:1014A000F7E700007C0000206400002040000020DE
:1014B00070000020580000204C00002001490872F4
:1014C00070470000A80800202DE9F05F00240220EA
:1014D000FFF786FF2448FFF7CBFF0020FFF76EFFE2
:1014E000DFF88C90DFF884B0204D214E214FDFF8DB
:1014F0008880DFF888A009F17F090BF17F0B082CA9
:101500000AD2DFE804F004062426282A2C2E2846D6
:1015100000E03046FFF740FFFFF79EF918A2462192
:101520000D20FFF727FB1AA26A210D20FFF722FBEF
:101530001CA28E210D20FFF71DFB4FF47A70FFF7E0
:1015400007F9641CE4B2082CD9D3BDE8F09F3846F3
:10155000E0E74046DEE74846DCE75046DAE7584633
:10156000D8E76FF07F40D5E7280000208080FF009B
:1015700080FF8000FF80800080FFFF00A3A3A30006
:1015800053544D333220CBA2C6C1B2E2CAD40000BC
:10159000C6C1C4BBB7D6B1E6C2CA3A3234302A3269
:1015A00038300000BFD8D6C6C6F73A53543737385C
:1015B0003900000070B50020FFF7EEFEFFF74CF990
:1015C0005948FFF755FF6FF07F40FFF7F7FE57A22E
:1015D00014210020FFF7CEFA00244FF47F0500BF4E
:1015E000A5EB0440FFF7EAFE0A2228212046FFF778
:1015F00025FD641CA4B2F02CF2D300244FF47F45E7
:10160000A5EB0420FFF7DAFE0A2237212046FFF778
:1016100015FD641CA4B2F02CF2D30024C4F1FF0029
:10162000FFF7CCFE0A2246212046FFF707FD641C87
:10163000A4B2F02CF2D35A243F48FFF7BFFE5F213B
:101640000A235A229620FFF79BFD3CA22146002048
:10165000FFF772FA3C48FFF7B1FE73210A235A22C2
:101660009620FFF78DFD6E2138A20020FFF764FA67
:101670003A48FFF7A3FE87210A235A229620FFF754
:101680007FFD822136A20020FFF756FA3848FFF787
:1016900095FE9B210A235A229620FFF771FD962181
:1016A00034A20020FFF748FA48F28000FFF786FED8
:1016B000AF210A235A229620FFF762FDAA2130A209
:1016C0000020FFF739FA4FF08010FFF777FEC321B3
:1016D0000A235A229620FFF753FDBE212BA2002099
:1016E000FFF72AFA2D48FFF769FED7210A235A226D
:1016F0009620FFF745FDD22129A20020FFF71CFA12
:101700002A48FFF75BFEEB210A235A229620FFF7B7
:1017100037FDE62126A20020FFF70EFABDE8704053
:101720004FF4FA60FFF714B81C000020524742C87B
:10173000FDBBF9C9AB3A0000FFFF80004C494748A8
:10174000545F4359414E0000FF80FF004C49474819
:10175000545F4D4147454E544100000080FFFF005B
:101760004C494748545F59454C4C4F5700000000C6
:10177000A3A3A3004C494748545F47524559000072
:101780004441524B5F4359414E0000004441524B8B
:101790005F4D4147454E54410000000000808000ED
:1017A0004441524B5F59454C4C4F5700404040001C
:1017B0004441524B5F475245590000002DE9F84320
:1017C000294E2A4F2A4DDFF8AC8000244FF47A7955
:1017D0000020FFF7E1FDFFF73FF82748FFF748FE3D
:1017E0003046FFF7EBFD34B1012C09D0022C31D08B
:1017F000032C0DD133E00220FFF7F2FD1FA203E01E
:101800000020FFF7EDFD20A228211420FFF7B2F9F8
:101810003846FFF7D3FD53231A4664211320009561
:10182000FFF7FEFA1B48FFF723FE4046FFF7C6FD11
:1018300019A26E218220FFF79DF919A2962182201C
:10184000FFF798F94846FEF783FF641C042CBFDBC2
:10185000BDE8F8830320FFF7C3FD13A2D4E70120FE
:10186000FFF7BEFD15A2CFE7FBF9DFFF8DE5F6FF21
:1018700082970008A8D39DFF280000204469726564
:101880006374696F6E5F5600446972656374696F53
:101890006E5F480034000020C2B9D0A1B0E0000063
:1018A000BFC6BCBC00000000446972656374696F08
:1018B0006E5F565F466C6970000000004469726597
:1018C0006374696F6E5F485F466C6970000000006A
:1018D00010B50020FFF760FDFEF7BEFF6FF07F4000
:1018E000FFF76CFD00214FF48C73F0220846FFF7E0
:1018F000E1FB4FF47F00FFF761FD1E2246218C20A3
:10190000FFF7F5FB4FF47F40FFF758FD1E224621FD
:10191000AA20FFF7ECFBFF20FFF750FD1E22462117
:10192000C820FFF7E4FB2948FFF748FD5423712244
:101930002E211A20FFF704FB65236A222A21232087
:10194000FFF7FEFA78235D2228212D20FFF7F8FA11
:101950008023452224213420FFF7F2FA80232C2211
:1019600024213E20FFF7ECFA1948FFF727FD1E223D
:10197000BE217820FFF722F91422BE217820FFF73C
:101980001DF91448FFF71AFD28235A22BE2178209A
:10199000FFF75AF928234622BE217820FFF754F991
:1019A0000C487F30FFF70AFD32236422BE217820E5
:1019B000FFF74AF93C236E22BE217820FFF744F955
:1019C000BDE810404FF4FA60FEF7C2BE00FFFF0012
:1019D000FFFF80008080FF0008B50020FFF7DCFCDF
:1019E000FEF73AFF1848FFF7E9FC18485323009028
:1019F0001A4629211320FFF713FA1548FFF7DEFCDA
:101A00001448532300901A4629218D20FFF708FA25
:101A10001148FFF7D3FC1148532300901A46A02128
:101A20001320FFF7FDF90E48FFF7C8FC0D485323BC
:101A300000901A46A0218D20FFF7F2F9BDE808407A
:101A40004FF4FA60FEF784BE8DE5F6FF829700083A
:101A5000FBF9DFFF139B0008A8D39DFFA49E00089D
:101A60005387FFFF35A2000870B50020FFF794FCF4
:101A7000FEF7F2FE6FF07F442046FFF79FFC5648CA
:101A8000FFF784FC55A214210020FFF755F85748B2
:101A9000FFF77CFC56A234210020FFF74DF85A488E
:101AA000FFF774FC59A24C210020FFF745F85E486F
:101AB000FFF76CFC5DA260210020FFF73DF8634852
:101AC000FFF764FC62A270210020FFF735F82012B6
:101AD000FFF774FC5D48FFF759FC68A27C210020E9
:101AE000FFF72AF85048FFF751FC6FA28821002029
:101AF000FFF722F84448FFF749FC73A29821002021
:101B0000FFF71AF83948FFF741FC76A2AC21002014
:101B1000FFF712F83048FFF739FC78A2C421002003
:101B2000FFF70AF87948FFF7A3FC7948FFF746FC6E
:101B300078A2EC210020FFF71DF84FF4FA65284643
:101B4000FEF706FEFEF788FE7548FFF791FC754824
:101B5000FFF734FC74A21E210E20FFF70BF8764825
:101B6000FFF786FC7548FFF729FC75A232210E208D
:101B7000FFF700F87648FFF77BFC7648FFF71EFC7E
:101B800075A250210E20FEF7F5FF6048FFF770FCAC
:101B90007548FFF713FC75A26E210E20FEF7EAFFD1
:101BA0007648FFF765FC7648FFF708FC75A296219A
:101BB0000E20FEF7DFFF5548FFF75AFC2046FFF7DF
:101BC000FDFB74A2C8210E20FEF7D4FF2846BDE815
:101BD0007040FEF7BDBD00004000002021232427F7
:101BE00028292A2B2C2D2E30313233004C00002096
:101BF0002123242728292A2B2C2D2E30313233342F
:101C000035363738000000005800002021232427F3
:101C100028292A2B2C2D2E303132333435363738C3
:101C2000393A3B3C000000006400002021232427B7
:101C300028292A2B2C2D2E303132333435363738A3
:101C4000393A3B3C3D3E3F4041420000700000209D
:101C50002123242728292A2B2C2D2E3031323334CE
:101C600035363738393A3B3C3D3E3F4041424344AC
:101C700045464748494A4B4C00000000212326278F
:101C800028292A2B2C2D2E30313233343536373853
:101C9000393A3B3C3D3E3F4041424344454647483C
:101CA000494A4B4C000000002123262728292A2BD3
:101CB0002C2D2E303132333435363738393A3B3CDF
:101CC0003D3E3F40414200002123262728292A2B60
:101CD0002C2D2E303132333435363738393A3B3CBF
:101CE000000000002123262728292A2B2C2D2E3006
:101CF00031323334353637380000000021232627AF
:101D000028292A2B2C2D2E30313233002800002098
:101D100000FFFF004153434949D7D6B7FBBCAF0092
:101D200004000020D1C68A00313231323AC2B9D023
:101D3000A1B0E0BFC6BCBC0010000020A5E1C500FA
:101D4000313631363AC2B9D0A1B0E0BFC6BCBC0012
:101D50001C00002049B5FF00323032303AC2B9D001
:101D6000A1B0E0BFC6BCBC005D58FF0032343234C5
:101D70003AC2B9D0A1B0E0BFC6BCBC00340000205C
:101D8000B9B6FF00333233323AC2B9D0A1B0E0BFA6
:101D9000C6BCBC00D6D0CEC4CFD4CABE00000000A2
:101DA0002DE9F05F4FF000082DED088B46464746C1
:101DB0009FED599B9FED5A8B4046FFF7EDFAFEF7DA
:101DC0004BFD5948FFF754FB5848FFF7F7FA58A264
:101DD0001E210020FEF7CEFE57A23C210020FEF778
:101DE000C9FEDFF85C914846FFF7E8FA55A2642186
:101DF0000020FEF7BFFE56A282210020FEF7BAFEA9
:101E0000DFF854A15046FFF7D9FA54A2AA210020C6
:101E1000FEF7B0FE53A2C8210020FEF7ABFE00245F
:101E2000CB469FED52AB9FED53BB4048FFF7C6FA40
:101E30000120FFF743FB04EB840006EB4002042380
:101E40001E215020FEF75AFE604200EB800007EB97
:101E5000400204233C215020FEF750FE5846FFF775
:101E6000ADFA0120FFF72AFBC4EB041000EB80055C
:101E700008EB4502082364218220FEF73FFE002084
:101E8000FFF71CFB822106EB450208230846FEF7FC
:101E900035FE5046FFF792FA0120FFF70FFB204670
:101EA000FEF7A7FA894649EC100B054653EC1A2BAE
:101EB00051EC100BFEF72BFA53EC192BFEF780F9BF
:101EC00041EC100B03230622AA216420FEF7F6FD45
:101ED00049EC105B53EC1B2B51EC100BFEF717FA7F
:101EE00053EC182BFEF76CF941EC100B04230B227A
:101EF000C8216420FEF7E2FD0F20FEF729FC641CD8
:101F0000A4B2642C91D3BDEC088B40F6C410BDE89C
:101F1000F05FFEF71DBC00004AD8124DFB210940BE
:101F20004ED1915C7E4893C028000020FFFF8000C6
:101F3000D5FDCAFD3A000000B8BACAFD3A0000005B
:101F400080FFFF00CCEEB3E4BFD5B8F13A0000004B
:101F5000CCEEB3E4303A00008080FF00D5FDD0A184
:101F6000CAFD3A00B8BAD0A1CAFD3A009A99999927
:101F70009999B93F7B14AE47E17A843FF0B5184A8E
:101F8000138823F040031380138843F40063138005
:101F9000138843F040031380124BD5141D80104C5E
:101FA00000230834261D06E030F813703780278898
:101FB000BF07FCD55B1C8B42F6D320880006FCD4FF
:101FC0000848801E0580108820F04000108010888E
:101FD00020F400601080108840F040001080F0BDB8
:101FE000003C00401A0C02402DE9F0410D4C074620
:101FF00020880006FCD40C4E4FF48055294630460C
:10200000FEF70FFC0748001D078020888007FCD5DD
:1020100020880006FCD429463046BDE8F041FEF792
:1020200002BC0000083C0040000C0240054A010AC6
:102030001180111F0B889B07FCD510800888800732
:10204000FCD570470C3C004003490880081F0188FC
:102050008907FCD5704700000C3C00407CB501218D
:10206000042000F01DF801208DF8040000218DF8F7
:1020700006108DF807004403064D8DF805106946DB
:1020800028460094FEF76CFB21462846FEF7C9FB64
:102090007CBD000000080240FEE77047704700006A
:1020A000044A0029116801D0014300E08143116016
:1020B0007047000030380240044A0029116801D0FE
:1020C000014300E081431160704700004038024046
:1020D000044A0029116801D0014300E081431160E6
:1020E000704700004438024070B5204A1168204C07
:1020F00011F00C0104D06610042903D0082903D084
:1021000004601BE0066019E01849091F0B68C3F35F
:1021100080550B6803F03F0315B1B6FBF3F301E004
:10212000B4FBF3F30C680968C4F388146343C1F388
:102130000141491C4900B3FBF1F1016011680F2313
:1021400003EA11110B4B5C5C0168E14041601468CB
:10215000072505EA94241C5D21FA04F484601268C2
:1021600005EA52329A5CD140C16070BD0838024025
:102170000024F400980000200029018802D041F0DA
:10218000400101E021F040010180704730B5028834
:102190004C8802F441530A88CD8822438C882C4312
:1021A00022430C8922434C8922438C892243CC89C7
:1021B00022431A430280828B22F400628283098ABE
:1021C000018230BD10B5FFF723F8FFF777F805203F
:1021D000FEF78CFB6D484FF4006404803620FFF757
:1021E00003FF0020FFF730FF3A20FFF7FDFE052038
:1021F000FFF72AFFB220FFF7F7FE0C20FFF724FFBE
:102200000C20FFF721FF0020FFF71EFF3320FFF710
:102210001BFF3320FFF718FFB720FFF7E5FE35203F
:10222000FFF712FFBB20FFF7DFFE1920FFF70CFFBF
:10223000C020FFF7D9FE2C20FFF706FFC220FFF7D2
:10224000D3FE0120FFF700FFC320FFF7CDFE1220D1
:10225000FFF7FAFEC420FFF7C7FE2020FFF7F4FEC9
:10226000C620FFF7C1FE0F20FFF7EEFED020FFF7DC
:10227000BBFEA420FFF7E8FEA120FFF7E5FEE0206B
:10228000FFF7B2FED020FFF7DFFE0420FFF7DCFEF1
:102290000D20FFF7D9FE1120FFF7D6FE1320FFF720
:1022A000D3FE2B20FFF7D0FE3F20FFF7CDFE5420BA
:1022B000FFF7CAFE4C20FFF7C7FE1820FFF7C4FE49
:1022C0000D20FFF7C1FE0B20FFF7BEFE1F20FFF71A
:1022D000BBFE2320FFF7B8FEE120FFF785FED020EC
:1022E000FFF7B2FE0420FFF7AFFE0C20FFF7ACFEB5
:1022F0001120FFF7A9FE1320FFF7A6FE2C20FFF701
:10230000A3FE3F20FFF7A0FE4420FFF79DFE5120D3
:10231000FFF79AFE2F20FFF797FE1F20FFF794FE8E
:102320001F20FFF791FE2020FFF78EFE2320FFF7EE
:102330008BFE2120FFF758FE1120FFF755FE782075
:10234000FEF7D4FA2920FFF74FFE1148018809064D
:10235000FCD40E48801E04800220FFF741F80020C4
:10236000FFF71AF86FF07F40FFF728F8FEF774FACE
:102370000949084808600949002008720348BDE877
:1023800010404FF400511A38FEF74DBA1A0C0240B3
:10239000083C00404C0000207C000020A8080020E1
:1023A000704700000CB500202749019000900A6892
:1023B00042F480320A604FF4A0430A6802F400320B
:1023C0000092019A521C0192009A12B9019A9A4203
:1023D000F3D10A68920334D5012000901A484030A6
:1023E000026842F0805202601848026842F440429B
:1023F00002601548083002680260026842F4004238
:102400000260026842F4A0520260031F104A1A6080
:102410000A6842F080720A600A689201FCD50D4A8F
:1024200040F205711160016821F00301016001684B
:1024300041F0020101600168C1F381010229FAD172
:102440000CBD00900CBD0000003802400070004040
:1024500008544007003C024000F02EB8124810B566
:10246000016841F4700101601048016841F0010108
:1024700001600E4A00210832116002680C4B1A40BC
:102480000260031D0B4A1A60026822F48022026077
:1024900006480C300160FFF785FF03494FF00060EC
:1024A0008039086010BD000088ED00E0003802406F
:1024B000FFFFF6FE1030002403480168002902D017
:1024C0000168491E016070470000002000298189D1
:1024D00002D041F4005101E021F4005181817047A4
:1024E0001CB501210846FFF7DBFD02208DF8040032
:1024F00000208DF8060001218DF807108DF80500E9
:1025000048020B4C009069462046FEF729F9201539
:10251000009069462046FEF723F90722092120464C
:10252000FEF76FF907220A212046FEF76AF91CBD63
:10253000000002407FB50446008A0D4620F4405159
:10254000E88808432082A08941F20C618843A98869
:102550002A8911436A8902431143A181A08A20F488
:102560004071A8890843A0826846FFF7BDFD1A485C
:10257000844202D01948844201D1039800E00298B5
:10258000A189090400EBC00101EB0010296801D505
:10259000490000E08900B0FBF1F26420B2FBF0F1E9
:1025A00009010B096FF018056B4302EB8302A38945
:1025B0001D044FF0320306D503EBC202B2FBF0F06C
:1025C00000F0070005E003EB0212B2FBF0F000F0B0
:1025D0000F00084320817FBD00100140001401401E
:1025E000FEE700001FB501211020FFF771FDFFF786
:1025F00077FF4FF4E13000900020ADF80800ADF80F
:1026000004000C21074CADF80600ADF80A10ADF837
:102610000C0069462046FFF78DFF01212046FFF799
:1026200055FF1FBD001001400FB4084B10B504A9A1
:1026300002AA039800F0DEF8044602A9002000F088
:1026400070FC204610BC5DF814FB0000232F00082E
:1026500002E008C8121F08C1002AFAD1704770476B
:10266000002001E001C1121F002AFBD170470000C9
:102670002DE9FF5F82B00021DDE90430020DDDF8B5
:1026800040B0034318D044F61050A2F2FF32424348
:102690001514119801281FD0A5EB0B00401C5FEA10
:1026A000000A4FF000064E4FDFF83891B046504612
:1026B00015D5CAF1000413E0119801244AA301289A
:1026C00001D16FEA0B010298119AC0E90031C0E90B
:1026D000024206B0BDE8F09FCBF10000DFE7044600
:1026E0000021404A491842EB0450CDE9001012E0A5
:1026F000E00707D032463B4640464946FDF707FE15
:102700008046894632463B4610461946FDF7FFFD96
:1027100006460F466410002CEAD1DDE90401DDE92C
:102720000023BAF1000F06DAFDF7F1FD42464B46F1
:10273000FDF7EDFD05E0FDF72EFF42464B46FDF7A8
:102740002AFF04460E460022284BFDF7ABFF03D8B4
:102750004FF0FF30014607E00022254B204631466E
:10276000FDF72EFDFDF786FF102409E0002C0ADBA3
:102770000A220023FDF760FE039B30321A55641EC7
:1027800050EA0102F2D1641C039AC4F1110314440B
:10279000119A012A03D0012208430DD10AE008430F
:1027A00004D000204FF0110B119072E7A3EB0B0542
:1027B0006D1E0DE05B4504DD4FF0000205F10105E3
:1027C00004E003DA4FF00002A5F10105002AECD085
:1027D00002981199C0E90231C0E9004579E700008B
:1027E000000014400000F03F300000000000F04303
:1027F0000000E03F2DE9FF4F95B09B468946064615
:1028000000250FE2252877D100242746F84A012128
:10281000059400E0044316F8013F203B01FA03F061
:102820001042F7D130782A2811D06FF02F0330787A
:10283000A0F13002092A16D8059A44F0020402EBEE
:10284000820203EB42021044761C0590EFE759F830
:10285000042B0592002A03DA504244F400540590F8
:1028600044F00204761C30782E2816D116F8010F99
:1028700044F004042A280DD06FF02F023078A0F124
:102880003003092B09D807EB870302EB4303C71872
:10289000761CF3E759F8047B761C30786C280FD04F
:1028A00006DC4C2817D068280DD06A2814D104E023
:1028B000742810D07A280FD10DE044F400140AE0F7
:1028C00044F4801401E044F440147278824202D14E
:1028D00004F58014761C761C307866280BD013DC47
:1028E000582877D009DC002875D04528F6D046282E
:1028F000F4D047281AD19DE118E0632835D0642828
:1029000079D0652812D195E1702873D008DC67284A
:10291000F1D069286FD06E280DD06F2806D1B5E0B0
:1029200073282CD0752875D0782874D05A461799FA
:1029300090476D1C75E1C4F30250022809D00328AA
:102940000DD0D9F8001004280DD00D6009F104094C
:1029500067E1D9F80010EA17C1E90052F6E7D9F8A3
:1029600000100D80F2E70D70F0E719F8041B8DF8E8
:10297000001000208DF80100EA46012003E059F81C
:1029800004AB4FF0FF3061074FF0000102D40DE0BF
:1029900008F101018846B9420FDA8045F8DB1AF8E0
:1029A00008100029F4D108E008F1010188468142AD
:1029B000FADB1AF808100029F6D105985B46A0EB5F
:1029C000080721463846179A00F094FA284400EB8D
:1029D000080507E04DE029E10DE01AF8010B5A4621
:1029E00017999047B8F10108F7D25B46214638465F
:1029F000179A13E142E00A220092C4F302524FF008
:102A0000000A022A08D059F804CB032A4FEAEC71D5
:102A10000AD00DE029E02AE009F1070121F00702C0
:102A2000F2E802C1914609E00FFA8CFC4FEAEC7122
:102A3000042A03D14FFA8CFC4FEAEC71002907DA23
:102A40000A460021DCF1000C61EB02012D2202E0BC
:102A5000220504D52B228DF80420012203E0E20791
:102A600001D02022F7E7904659E00A2102E0102227
:102A70000DE010214FF0000A00910BE010224FF002
:102A8000000A44F004040827009203E008224FF0F3
:102A9000000A0092C4F30252022A05D059F804CB6E
:102AA0000021032A08D009E009F1070121F00702FB
:102AB000F2E802C1914605E01FFA8CFC042A01D11C
:102AC0000CF0FF0C4FF00008220728D5702806D024
:102AD000009B83F0100353EA0A0305D00EE0402266
:102AE0008DF80420012208E05CEA010206D03022C1
:102AF0008DF804208DF8050002229046009B83F09B
:102B0000080353EA0A030AD15CEA010201D1620711
:102B100005D530228DF804204FF001087F1E58287B
:102B200004D034A003900EA802900DE036A0F9E77F
:102B300053466046009AFDF77FFC84460398825C0A
:102B40000298401E029002705CEA0100F0D10298E7
:102B500006A9081A00F1200A600702D524F480347F
:102B600000E00127574502DDA7EB0A0000E0002046
:102B700000EB0A01009005984144401A0590E003DB
:102B800006D45B462146179A059800F0B3F9054430
:102B9000002706E001A85A46C05D179990476D1CB2
:102BA0007F1C4745F6DBE0030CD55B462146179AB0
:102BB000059800F09FF9054404E030205A46179923
:102BC00090476D1C0099481E00900029F5DC08E034
:102BD000029802995A460078491C02911799904729
:102BE0006D1CBAF10001AAF1010AF1DC65E10000F7
:102BF00009280100303132333435363738396162D3
:102C00006364656600000000303132333435363796
:102C100038394142434445460000000000F058F96D
:102C20000544761C307800287FF4ECAD19B02846B6
:102C3000BDE8F08F620700D4062709F1070222F0F1
:102C4000070CFCE80223E14603F000485FEA080CA9
:102C500002D00FF2702C0DE05FEA045C02D50FF297
:102C6000682C07E05FEAC47C02D00FF2602C01E020
:102C7000AFF2700C4FF0FF3823F00043CDF850C096
:102C800065280CD006DC452809D046281DD04728E9
:102C90003DD13DE0662818D067287ED138E000217C
:102CA000112F01DB112000E0781CCDE9000106A9FD
:102CB0000EA8FFF7DDFCDDE90F010E9A039100215C
:102CC000009207F1010A04914DE04FF00040009797
:102CD000CDE9011006A90EA8FFF7CAFCDDE90F0235
:102CE00003920E9B11990022DDF80CA00093049230
:102CF00011B9791C00EB010AB7EB0A0004D4C0F14A
:102D0000FF3007F1010A0490AAEB0700019044E0AC
:102D1000012F00DA01270021112F01DD112000E031
:102D20003846CDE9000106A90EA8FFF7A1FCDDE9B0
:102D30000F010E9A0391002104910092BA462107D7
:102D40000CD40399514500DA8A46BAF1010F05DD2A
:102D5000009AAAF10101515C302908D0B84202DA88
:102D600010F1040F06DA0121CDE9011015E0AAF1F6
:102D70000101E9E7002805DC049901440491AAEB6C
:102D8000000102E0411C514500DD8A460499401AC9
:102D9000401C01904FF000400290200704D401989D
:102DA000504501DBCDF8048000208DF84F000298DB
:102DB0000DF14F07B0F1004F25D02B200E90029857
:102DC0004FF0020800280CDA404202902D200E90AD
:102DD00007E00A210298FDF719FB3031029007F84D
:102DE000011DB8F10001A8F10108F2DC02980028E9
:102DF000EFD1791E0E980870307800F0200040F076
:102E0000450007F8020D12A8C01B00F1070814982E
:102E1000007800B1012000EB0A01019801EBE0719C
:102E200005984144401A401E0590E00306D45B46D5
:102E30002146179A059800F05DF80544149800782B
:102E400018B15A46179990476D1CE00324D55B468C
:102E50002146179A059800F04DF805441CE00498A7
:102E6000002807DBDDE90301884203DD0098405CB0
:102E7000179901E0179930205A469047049805F1B8
:102E80000105401C04900198401E019004D12E20A1
:102E90005A46179990476D1CBAF10001AAF1010A30
:102EA000DDDC05E017F8010B5A46179990476D1CB9
:102EB000B8F10001A8F10108F4DC5B462146179A3D
:102EC0000598ABE62D0000002B000000200000005C
:102ED0002DE9F041044600251E461746880404D417
:102EE00005E039462020B0476D1C641EF9D5284600
:102EF000BDE8F0812DE9F041044600251E469046CC
:102F0000C80301D5302700E02027880404D505E058
:102F100041463846B0476D1C641EF9D52846BDE8C9
:102F2000F0810A68531C0B6010707047FDF7F6FBC8
:102F3000FFF794F8FDF77AFCFFF754FBFFF742F92F
:102F4000FEF7C2FAFEF790FDFEF72AFFFEF732FB0E
:102F5000FEF7BEFCFEF740FDFEF730FCF0E7400058
:102F6000FE079200FE079204FE0702008A04BA02DE
:102F70008A01AA041907C2B920000000000000005D
:102F80000000000000000000000000000000200021
:102F90002000200020002401240222022204210417
:102FA000200020003800D0A1200000000000000018
:102FB00000000000000000000000000000002000F1
:102FC000A70722012A012A012F01AA0726012201AF
:102FD00016011301C807B0E0200000000000000047
:102FE00000000000000000000000000000000801D8
:102FF0002701440104013F0144010E011607E501C8
:10300000040104010401BFC620000000000000000C
:10301000000000000000000000000000000084002C
:103020008400F4078F008400F4032C02270244017B
:10303000840044013606BCBC2000000000000000F3
:103040000000000000000000000000000000000080
:103050000000000000000000000000000000000070
:103060000000000000000000000000000000000060
:103070000000000000000000000000000000000050
:103080000000000000000000000000000000000040
:103090000000000000000000000000000000000030
:1030A0000000000000000000000000000000000020
:1030B0000000000000000000000000000000000010
:1030C0000000000000000000000000000000000000
:1030D00000000000000000000000000000000000F0
:1030E00000000000000000000000000000000000E0
:1030F00000000000000000000000000000000000D0
:1031000000000000000000000000000000000000BF
:1031100000000000000000000000000000000000AF
:10312000000000000000000000000000000000009F
:10313000000000000000000000000000000080000F
:103140000001FC7F44044404FC3F44244424FC3F2D
:1031500014021422F41A12061222D122303CC2B9EF
:10316000200000000000000000000000000000003F
:1031700000000000000000000000000000008000CF
:1031800080008000800080008808881088208420CB
:1031900084408240814080008000A0004000D0A197
:1031A00020000000000000000000000000000000FF
:1031B000000000000000000000000000000000010E
:1031C00000011F7D44114411441144115F7D4411DD
:1031D000241104119C108710427C20001000B0E0E4
:1031E00020000000000000000000000000000000BF
:1031F00000000000000000000000000000001008B7
:10320000B8080F0908090808BF0808091C092C0894
:103210000A78CA0F09080808080808080808BFC67D
:10322000200000000000000000000000000000007E
:103230000000000000000000000000000000080482
:1032400008040804C87F3F0408040804A83F1821A4
:103250000C110B12080A0804080A8A116460BCBC2D
:10326000200000000000000000000000000000003E
:10327000000000000000000000000000000000004E
:10328000000000000000000000000000000000003E
:10329000000000000000000000000000000000002E
:1032A000000000000000000000000000000000001E
:1032B000000000000000000000000000000000000E
:1032C00000000000000000000000000000000000FE
:1032D00000000000000000000000000000000000EE
:1032E00000000000000000000000000000000000DE
:1032F00000000000000000000000000000000000CE
:1033000000000000000000000000000000000000BD
:1033100000000000000000000000000000000000AD
:10332000000000000000000000000000000000009D
:10333000000000000000000000000000000000008D
:10334000000000000000000000000000000000007D
:10335000000000000000000000000000000000006D
:10336000000000000000000000000000000000005D
:10337000000000000000000000000000000000004D
:10338000000000000000000000000000000000003D
:10339000000000000000000000000000000000002D
:1033A000000000000000000000000000000000001D
:1033B000000000000000000000000000000000000D
:1033C00000000400000C00F8EE03081100081100D2
:1033D000F8FF01081101081101F8F701080801C8F8
:1033E0001001489001C873004810024814024413A9
:1033F00002C4F003020000000000C2B92000000077
:1034000000000000000000000000000000000000BC
:1034100000000000000000000000000000000000AC
:10342000000000000000000000000000000000009C
:103430000000000000000000000004000004000084
:10344000040000040000040040040060240020C4C4
:103450000020840110040308040308040204040289
:1034600000040000040000040080070000020000C7
:103470000000D0A1200000000000000000000000BB
:10348000000000000000000000000000000000003C
:10349000000000000000000000000000000000002C
:1034A000000000000000000000000000000000001C
:1034B00000000400EC040010BC03104400104400A1
:1034C000104400104500FC450010E5039044001036
:1034D0004400104400D042003042000E410082F807
:1034E00007400000300000000000B0E020000000B5
:1034F00000000000000000000000000000000000CC
:1035000000000000000000000000000000000000BB
:1035100000000000000000000000000000000000AB
:10352000000000000000000000008000C081003C9E
:103530008000208800209000209000FC81002080E6
:1035400000608800B0900030810728F900248700CF
:103550002280002080002080002080002080000049
:103560000000BFC6200000000000000000000000B6
:10357000000000000000000000000000000000004B
:10358000000000000000000000000000000000003B
:10359000000000000000000000000000000000002B
:1035A00000101000302000202000202000FCFF032D
:1035B000202000202000202000E0F801380401260F
:1035C000840020880020480020700020300020481F
:1035D000003C8603900102000000BCBC20000000FB
:1035E00000000000000000000000000000000000DB
:1035F00000000000000000000000000000000000CB
:1036000000000000000000000000000000000000BA
:1036100000000000000000000000000000000000AA
:103620000000000000FCFF0300000000000000009C
:1036300000000000F8FF0100000000000000000092
:10364000000000000000FEFF070000000000000076
:103650000000C8FD20000000000000000000000085
:10366000000000000000000000000000000000005A
:10367000000000000000000000000000000000004A
:10368000000000000000000000000000000000003A
:1036900000000000000000000000000000102000FA
:1036A000FEFF01102000F03F00102000F03F00104E
:1036B0002000FFFF03102100FCFF00030103FEFFB9
:1036C00001000000000000000000BBF92000000025
:1036D00000000000000000000000000000000000EA
:1036E00000000000000000000000000000000000DA
:1036F00000000000000000000000000000000000CA
:1037000000000000000000000000000000000000B9
:103710000000000000400000F01F00181800040C1A
:1037200000FFFF00048200048200FCFF0004800010
:10373000040000040002F8FF010000000000000087
:103740000000C9AB200000000000000000000000E5
:103750000000000000000000000000000000000069
:103760000000000000000000000000000000000059
:103770000000000000000000000000000000000049
:103780000000000000000000000000000000000039
:103790000000000000000000000000000000000029
:1037A0000000000000000000000000000000000019
:1037B0000000000000000000000000000000000009
:1037C00000000000000000000000000000000000F9
:1037D00000000000000000000000000000000000E9
:1037E00000000000000000000000000000000000D9
:1037F00000000000000000000000000000000000C9
:1038000000000000000000000000000000000000B8
:1038100000000000000000000000000000000000A8
:103820000000000000000000000000000000000098
:103830000000000000000000000000000000000088
:103840000000000000000000000000000000000078
:103850000000000000000000000000000000000068
:103860000000000000000000000000000000000058
:1038700000001000003010F0FF3F10420010420026
:10388000104200F0FF1F104208104208104208F0DA
:10389000FF0F10200890C00090410890410E904FFB
:1038A0000398C10088411088491084473084C13F83
:1038B000020000000000C2B920000000000000006B
:1038C00000000000000000000000000000000000F8
:1038D00000000000000000000000000000000000E8
:1038E00000000000000000000000000000000000D8
:1038F00000000000000000000000000000000000C8
:103900000000000000180000180000100000100067
:10391000001000001000809000801101C0100240D3
:10392000100460101C3010181010300810300410F3
:1039300020001000001000001000001900001E0000
:10394000000C00000000D0A12000000000000000DA
:103950000000000000000000000000000000000067
:103960000000000000000000000000000000000057
:103970000000000000000000000000000000000047
:103980000000000000000000000000000000000037
:1039900000001000003000FED13F20100220100275
:1039A000201002201002201402FC15022014022014
:1039B000D63F201202201202201002A00902600845
:1039C000021C080206040200020200F13FC00000CF
:1039D000200000000000B0E0200000000000000017
:1039E00000000000000000000000000000000000D7
:1039F00000000000000000000000000000000000C7
:103A000000000000000000000000000000000000B6
:103A100000000000000000000000000000000000A6
:103A20000000000400070CF80004C00004C060049B
:103A3000C0C004C00004FE0704C00004C02004E0AD
:103A40006004E04304F04624D04474C8800FC87872
:103A500004C40404C20004C00004C00004C0000484
:103A6000C00004400004BFC62000000000000000A9
:103A70000000000000000000000000000000000046
:103A80000000000000000000000000000000000036
:103A90000000000000000000000000000000000026
:103AA0000000000000000000000000000000000016
:103AB00000208000608001608000608000608000E5
:103AC000FEFF3F608000608000608000608200E058
:103AD000FD1F7010086E100C64200460200660400A
:103AE0000260400360800160400364300E780C7C0B
:103AF000200310000000BCBC2000000000000000FB
:103B000000000000000000000000000000000000B5
:103B100000000000000000000000000000000000A5
:103B20000000000000000000000000000000000095
:103B30000000000000000000000000000000000085
:103B4000000000000000000000000000C0F8FFC0FE
:103B500018C0CC18C0CCF8FFCC18C0CC180CCC18AE
:103B60000CCCD8FFCCD8CCCCD8CCCCD8CCCCCCCCF2
:103B7000C0CCCCC004FCC0060C7E000000000000DD
:103B8000000000000000CBA22000000000000000A8
:103B90000000000000000000000000000000000025
:103BA0000000000000000000000000000000000015
:103BB0000000000000000000000000000000000005
:103BC00000000000000000000000000000000000F5
:103BD00000000000000000000000000000F8FF7F6F
:103BE000180060180060F8FF7F180666180C0618A9
:103BF0000803D8FF7F180C06180C06F8FFFF0C0C02
:103C0000060C0C0604060606030603010600000067
:103C1000000000000000C6C12000000000000000FD
:103C20000000000000000000000000000000000094
:103C30000000000000000000000000000000000084
:103C40000000000000000000000000000000000074
:103C50000000000000000000000000000000000064
:103C6000000000000000000000000200C084FFCC43
:103C70009CC1CC88C1CC80D9CC83D9CC8ED9CC98EE
:103C8000D9CC80D9CC80D9CC88D9CC98CDCC0C0CCF
:103C9000CC0C36C00C63C0C6C1C074807D0000006F
:103CA000000000000000B2E2200000000000000060
:103CB0000000000000000000000000000000000004
:103CC00000000000000000000000000000000000F4
:103CD00000000000000000000000000000000000E4
:103CE00000000000000000000000000000000000D4
:103CF0000000000000000000000002001B0C007328
:103D000018004338000380FFFF0000031F00031862
:103D1000000398FF03181802181806981806D818F8
:103D20008678188C38F88D9C0F980800F0000000F9
:103D3000000000000000CAD42000000000000000C5
:103D40000000000000000000000000000000000073
:103D50000000000000000000000000000000000063
:103D60000000000000000000000000000000000053
:103D70000000000000000000000000000000000043
:103D800000000000000000000000008301FEFFFFB3
:103D9000008301F0FF3F300030F0FF3F300030F093
:103DA000FF3F300C30000600FEFFFFC0300CF8FF74
:103DB0007F67309860301860301F003000000000CE
:103DC000000000000000C4BB200000000000000054
:103DD00000000000000000000000000000000000E3
:103DE00000000000000000000000000000000000D3
:103DF00000000000000000000000000000000000C3
:103E000000000000000000000000000000000000B2
:103E10000000000000000000000000630080C100FE
:103E2000C0800160000330000618001C0E00700204
:103E300000C0F8FF0F00030E00030E800106800192
:103E400006C0000660000738FC030E0000000000FA
:103E5000000000000000B7D62000000000000000B5
:103E60000000000000000000000000000000000052
:103E70000000000000000000000000000000000042
:103E80000000000000000000000000000000000032
:103E90000000000000000000000000000000000022
:103EA0000000000000000018600C30601830601046
:103EB000FEE1FF00600082EDC1C46C636C6C36FEF5
:103EC00065FF306618306618306018FEB1FF30307C
:103ED000183818181C1C180E0E18020218000000C2
:103EE000000000000000B1E620000000000000001B
:103EF00000000000000000000000000000000000C2
:103F000000000000000000000000000000000000B1
:103F100000000000000000000000000000000000A1
:103F20000000000000000000000000000000000091
:103F300000000000000000000000003800007000D9
:103F4000FFFFFF003800064E608C6338D03F08004A
:103F50001C00202604F8C31CCFFFF10230410030C2
:103F600000FFFFFF003000003000003000000000C4
:103F7000000000000000C2CA200000000000000095
:103F80000000000000000000000000000000000031
:103F90000000000000000000000000000000000021
:103FA0000000000000000000000000000000000011
:103FB0000000000000000000000000000000000001
:103FC000000000000000003080003080013000035D
:103FD00030FEFFFE06C03086C4304018303030302E
:103FE0001860F00FC03EF87F30000330000330004F
:103FF0000330000330000330FFFF1E00000000000C
:10400000000000000000BFD82000000000000000F9
:1040100000000000000000000000000000000000A0
:104020000000000000000000000000000000000090
:104030000000000000000000000000000000000080
:104040000000000000000000000000000000000070
:104050000000000000000000000080016098016086
:104060008C0163FC3F63860163820163FFFF638011
:104070000163800163FC7F638C61638C61638C618D
:10408000608C61608C3D6080013F0000000000009A
:10409000000000000000D6C6200000000000000064
:1040A0000000000000000000000000000000000010
:1040B0000000000000000000000000000000000000
:1040C00000000000000000000000000000000000F0
:1040D00000000000000000000000000000000000E0
:1040E00000000000000000000000000000FCC77F8E
:1040F0000CC6600CC660FCC77F0CC660003006FEB4
:10410000FFFF006E0000C701F0010F1F00F8FCC7A1
:104110007F0CC6600CC660FCC77F0CC66000000048
:10412000000000000000C6F72000000000000000B2
:10413000000000000000000000000000000000007F
:10414000000000000000000000000000000000006F
:10415000000000000000000000000000000000005F
:10416000000000000000000000000000000000004F
:1041700000000000000000000800001800003000EF
:10418000FEFFFF0600C00600C0E0FF0F00000700B2
:10419000800100E000003000FFFFFF003000003031
:1041A00000003000003000801F0000000000000010
:1041B000000000000000D7D6200000000000000032
:1041C00000000000000000000000000000000000EF
:1041D00000000000000000000000000000000000DF
:1041E00000000000000000000000000000000000CF
:1041F00000000000000000000000000000000000BF
:104200000000000000000020800130C000F8DFFF47
:10421000C8600684710C02390801100060000C703F
:10422000000CB8FFFF3C000C36040C320C0C3018AC
:104230000C30100C30000C30000C30E00700000097
:10424000000000000000B7FB20000000000000009C
:10425000000000000000000000000000000000005E
:10426000000000000000000000000000000000004E
:10427000000000000000000000000000000000003E
:10428000000000000000000000000000000000002E
:1042900000000000000000000000C0300060E000EE
:1042A000F0FFFF386000F6FFFF336000F0FFFF30E3
:1042B0006000F0FFFF300000003000003000FEFF23
:1042C000FF00FE018031077030380F30C000000061
:1042D000000000000000BCAF200000000000000053
:1042E00000000000000000000000000000000000CE
:1042F00000000000000000000000000000000000BE
:1043000000000000000000000000000000000000AD
:10431000000000000000000000000000000000009D
:10432000000000000000000000000018000018005D
:10433000001800001800FCFF7F0C18600C18600CBF
:1043400018600C18600C1860FCFF7F0C18600018D7
:1043500000001800001800001800001800000000FD
:10436000000000000000D6D0200000000000000087
:10437000000000000000000000000000000000003D
:10438000000000000000000000000000000000002D
:10439000000000000000000000000000000000001D
:1043A000000000000000000000000000000000000D
:1043B00000000000000000001C0000380000600049
:1043C000FFFFFF60000C60000CC00006C00006800C
:1043D000010300830100C700006C0000380000EEFC
:1043E00000C0830778003C0600E0000000000000E9
:1043F000000000000000CEC420000000000000000B
:1044000000000000000000000000000000000000AC
:10441000000000000000000000000000000000009C
:10442000000000000000000000000000000000008C
:10443000000000000000000000000000000000007C
:1044400000000000000000000000000000F8FF3F36
:10445000180030180030F8FF3F180030180030F80E
:10446000FF3F18003004C62008C63018C63830C6D2
:104470001820C60800C600FEFFFF00000000000074
:10448000000000000000CFD4200000000000000069
:10449000000000000000000000000000000000001C
:1044A000000000000000000000000000000000000C
:1044B00000000000000000000000000000000000FC
:1044C00000000000000000000000000000000000EC
:1044D00000000000000000000000000000FCFF7F62
:1044E000000000000000000000000000FFFFFF00CF
:1044F000300020300430300C3830181830300C3098
:10450000600630C0023080003000801F00000000D4
:10451000000000000000CABE2000000000000000F3
:10452000000000000000000000000000000000008B
:10453000000000000000000000000000000000007B
:10454000000000000000000000000000000000006B
:10455000000000000000000000000000000000005B
:1045600000000000000000000000000000FEFFFF4F
:1045700000300000300000300030300030300030BB
:10458000300030F07F3030003030003030003030DC
:1045900000303000303000FFFFFF0000000000005E
:1045A000000000000000D5FD200000000000000019
:1045B00000000000000000000000000000000000FB
:1045C00000000000000000000000000000000000EB
:1045D00000000000000000000000000000000000DB
:1045E00000000000000000000000000000000000CB
:1045F0000000000000000000000000030080010037
:10460000C0FF076000033880010C6000F4FF3F30FA
:1046100000303030303030303030303030303030CA
:104620003030F83000980300070EE001781E00C01B
:10463000000000000000B8BA2000000000000000E8
:10464000000000000000000000000000000000006A
:10465000000000000000000000000000000000005A
:10466000000000000000000000000000000000004A
:10467000000000000000000000000000000000003A
:1046800000000000000000000000003000003000CA
:1046900000300000300060300630300C30301C1824
:1046A00030381830300C30600E30E00630C0023048
:1046B00080003000003000C01F000000000000003B
:1046C000000000000000D0A1200000000000000059
:1046D00000000000000000000000000000000000DA
:1046E00000000000000000000000000000000000CA
:1046F00000000000000000000000000000000000BA
:1047000000000000000000000000000000000000A9
:1047100000000000000000000000C00003C60C0103
:10472000C48601C080FFFECF60E0C060F8E360CCCB
:10473000FE31C39831308031FF0F1B0C0C1B060675
:104740000E3C070EE0031BE0C3313C76E007188007
:10475000000000000000CAFD200000000000000072
:104760000000000000000000000000000000000049
:104770000000000000000000000000000000000039
:104780000000000000000000000000000000000029
:104790000000000000000000000000000000000019
:1047A00000000000000000000000300003300003A3
:1047B00030FEFF300003300003FFFD7F300C60301F
:1047C000FC7F300C6030FC7F300C60B0FD7F780CDB
:1047D0006007FFFF00601C001CF080030000000069
:1047E000000000000000CCEE2000000000000000EF
:1047F00000000000000000000000000000000000B9
:1048000000000000000000000000000000000000A8
:104810000000000000000000000000000000000098
:104820000000000000000000000000000000000088
:104830000000000000000000000000080000180058
:10484000003800FFFFFF000E00808301C0000770EA
:10485000000CFCFF3F00C32000C30080C10080C1EA
:10486000C0E0C0C038C0C007807F0000000000006A
:10487000000000000000B3E4200000000000000081
:104880000000000000000000000000000000000028
:104890000000000000000000000000000000000018
:1048A0000000000000000000000000000000000008
:1048B00000000000000000000000000000000000F8
:1048C0000000000000000000000000380000700040
:1048D000FEFFFF0600C00686C3C0011E380070063A
:1048E00000C0000000F8FF3F00180000180000188A
:1048F00000001800001800FEFFFF0000000000008C
:10490000000000000000BFD52000000000000000F3
:104910000000000000000000000000000000000097
:104920000000000000000000000000000000000087
:104930000000000000000000000000000000000077
:104940000000000000000000000000000000000067
:104950000000000000000000000030600030300067
:1049600030F07F307870FF5B3830CC0CF88007B8BF
:10497000C10F3C7A78360EC033F87F31186030189A
:104980006030186030186030F87F30186000000028
:10499000000000000000B8F120000000000000004E
:1049A0000000000000000000000000000000000007
:1049B00000000000000000000000000000000000F7
:1049C00000000000000000000000000000000000E7
:1049D00000000000000000000000000000000000D7
:1049E00000000000000000000000000000000000C7
:1049F00000000000000000000000000000000000B7
:104A000000000000000000000000000000000000A6
:104A10000000000000000000000000000000000096
:104A20000000000000000000000000000000000086
:104A30000000000000000000000000000000000076
:104A40000000000000000000000000000000000066
:104A50000000000000000000000000000000000056
:104A60000000000000000000000000000000000046
:104A70000000000000000000000000000000000036
:104A80000000000000000000000000000000000026
:104A90000000000000000000000000000000000016
:104AA0000000000000000000000000000000000006
:104AB0000000000000000000000000000000008076
:104AC000000000000300000003002000020CE0FFD3
:104AD000FF1F60300C0060300C0060300C04E0FF01
:104AE000FF0F60300C0460300C0460300C04603048
:104AF0000C04E0FFFF076000000460000400600495
:104B00001C00600C0C0460040C0F60C48C0320FCBF
:104B1000ED0020041C0030040C0010040D0810C42B
:104B20000C0808340C18081E1838040CF81F020072
:104B3000000000000000C2B92000000000000000DA
:104B40000000000000000000000000000000000065
:104B50000000000000000000000000000000000055
:104B60000000000000000000000000000000000045
:104B70000000000000000000000000000000000035
:104B80000000000000000000000000000000000025
:104B90000000000000000000000000000000000015
:104BA0000000000000000000000000000000000005
:104BB0000000000000000000000000000000008075
:104BC00000000080070000800100008001000080DC
:104BD00001000080010000800100008001000082CF
:104BE0000100008E210000864100008781000083C3
:104BF00081018081010380810106C080010E408017
:104C0000011C6080011C3080011810800118088090
:104C1000011004800100008001000080010000807C
:104C20000100008C010000F0010000E000000040E5
:104C3000000000000000D0A12000000000000000E3
:104C40000000000000000000000000000000000064
:104C50000000000000000000000000000000000054
:104C60000000000000000000000000000000000044
:104C70000000000000000000000000000000000034
:104C80000000000000000000000000000000000024
:104C90000000000000000000000000000000000014
:104CA0000000000000000000000000000000000004
:104CB00000000000000000000000000000000000F4
:104CC000010000000700000C0318FC1FFF3FC0009C
:104CD0008301C0008301C0008301C0008301C000C4
:104CE0008301C0008301C0248301FC2F8301C02005
:104CF0008309C020FF1FC0308301C0188101C0009C
:104D00008101C0008101C0908101C08C8101C083FC
:104D10008001F0C080013E4080010C208001003005
:104D200080110008FE3F0006000000010000C000E6
:104D3000000000000000B0E02000000000000000C3
:104D40000000000000000000000000000000000063
:104D50000000000000000000000000000000000053
:104D60000000000000000000000000000000000043
:104D70000000000000000000000000000000000033
:104D80000000000000000000000000000000000023
:104D90000000000000000000000000000000000013
:104DA0000000000000000000000000000000000003
:104DB00000000000000000000000000000000000F3
:104DC000000100300007003C0003E00700031C0363
:104DD00000030003060300030C0300031803000391
:104DE000180300230003FC7F0003000300030003FB
:104DF000020380030603800F0C03C03B080340330B
:104E000000336023003F2023F00310830F03086367
:104E10000003040300030203000300030003000374
:104E2000000300030003000300030003000300016C
:104E3000000100000000BFC62000000000000000CC
:104E40000000000000000000000000000000000062
:104E50000000000000000000000000000000000052
:104E60000000000000000000000000000000000042
:104E70000000000000000000000000000000000032
:104E80000000000000000000000000000000000022
:104E90000000000000000000000000000000000012
:104EA0000000000000000000000000000000000002
:104EB0000000000000000000000000000000800072
:104EC00010008003700080013000800130008001FC
:104ED00030008001300080193018FCFFFF3F800156
:104EE00030008001300080013000800130008031CE
:104EF000300480CDFF0F80030106F0010106BC01E4
:104F000002038C010203800186018001840180017B
:104F1000CC00800168008001700080017800800171
:104F2000EC008001C703F881011FE071003E400CD6
:104F3000000000000000BCBC2000000000000000D9
:104F40000000000000000000000000000000000061
:104F50000000000000000000000000000000000051
:104F60000000000000000000000000000000000041
:104F70000000000000000000000000000000000031
:105500000000C003C003C003C003C003C003800386
:105510008001800180018001800180018001800183
:105520000000000000008001C003C00380010000F3
:1055300000000000000000000000C018E01CE01C9B
:10554000700E300618038C0184000000000000007B
:10555000000000000000000000000000000000004B
:10556000000000000000000000000000000000003B
:10557000000000000000000000000000000000002B
:10558000000020102010201020102010FE7FFE7F31
:10559000FE7F100810081008100810081008FE7F81
:1055A000FE7FFE7F180C08040804080408040000AD
:1055B000000000000000000000000000000080006B
:1055C0008000C003B00C90189818981C981CB80064
:1055D000B000F000E000C0038007800F800C801C4A
:1055E00080189C189C188C188C0C9806E00380007E
:1055F00080008000000000000000000000000000AB
:1056000000001C083608220463046302630263027C
:10561000630163012201B61C9C3640224063406353
:10562000206320631063106310220836081C0000FA
:10563000000000000000000000000000000000006A
:105640000000F00098008C018C018C018C018C0012
:10565000CC005C0038001C3E3C0832087308630430
:10566000E304C3048303834306678C3E781C000075
:10567000000000000000000000001C003C003C0096
:105680003000300010000C00060000000000000098
:10569000000000000000000000000000000000000A
:1056A00000000000000000000000000000000000FA
:1056B000000000000000000000000040002000107A
:1056C0000018000C00040006000200030003800123
:1056D00080018001800180018001800180018001C2
:1056E00000030003000200060004000C0018001074
:1056F000002000400000000000000200040008003C
:1057000018003000200060004000C000C000800190
:105710008001800180018001800180018001800181
:10572000C000C000C0006000200030001800080069
:105730000400020000000000000000000000000063
:105740000000000000000003800380030C631C7154
:105750003839600D80038003600D38391C718C610D
:1057600080038003800300000000000000000000B0
:105770000000000000000000000000000000000029
:105780000000000000000000000100010001000115
:10579000000100010001FC7F000100010001000187
:1057A00000010001000100000000000000000000F6
:1057B00000000000000000000000000000000000E9
:1057C00000000000000000000000000000000000D9
:1057D00000000000000000000000000000000000C9
:1057E0000000000000001C003C003C0030003000C5
:1057F00010000C0006000000000000000000000087
:105800000000000000000000000000000000000098
:10581000000000000000FE7F00000000000000000B
:105820000000000000000000000000000000000078
:105830000000000000000000000000000000000068
:105840000000000000000000000000000000000058
:105850000000000000000000000000000000000048
:1058600000000000000018003C003C001800000090
:105870000000000000000000000000000040006088
:1058800000200030001000180008000C0004000682
:1058900000020003000180018000C00040006000A1
:1058A000200030001000180008000C000400060062
:1058B00002000000000000000000000000000000E6
:1058C0000000C0036004300C1818181818100C30B1
:1058D0000C300C300C300C300C300C300C300C30E8
:1058E0000C30181018181818300C6004C003000091
:1058F00000000000000000000000000000000000A8
:10590000000000018001F801800180018001800118
:10591000800180018001800180018001800180017F
:1059200080018001800180018001C003F81F000018
:105930000000000000000000000000000000000067
:105940000000E007101C0818043004300C300C3044
:10595000003000180018000C000600038001C00091
:1059600040002020102008200430FC1FFC1F0000F5
:105970000000000000000000000000000000000027
:105980000000E00318060C0C0C180C180C1800187A
:105990000018000C0006C003000E001800100030B4
:1059A00000300C300C300C100C18180CE003000008
:1059B00000000000000000000000000000000000E7
:1059C000000000060006000700078006800640066B
:1059D000200620061006100608060C06040602061D
:1059E000FE3F00060006000600060006C03F00005D
:1059F00000000000000000000000000000000000A7
:105A00000000F03FF03F0800080008000800080010
:105A10000800C807280C18180810003000300030A3
:105A200000300C300C3004180418180CE00300008F
:105A30000000000000000000000000000000000066
:105A400000008007601830181018180008000800BF
:105A50000C00CC076C0C1C181C100C300C300C30DB
:105A60000C300C30183018103018700CC0070000C3
:105A70000000000000000000000000000000000026
:105A80000000F83FF83F08100C0804080404000464
:105A9000000200020002000100018000800080007E
:105AA0008000C000C000C000C000C000C0000000F6
:105AB00000000000000000000000000000000000E6
:105AC0000000E007300C18180C300C300C301C3083
:105AD0001C107818F004E003180F0C1E0C1C06387C
:105AE00006300630063006300C18180CE0030000B3
:105AF00000000000000000000000000000000000A6
:105B00000000E00318040C080C18061006300630DC
:105B10000630063006300E380C341836F0310030BE
:105B20000018001800080C0C0C060C03F001000013
:105B30000000000000000000000000000000000065
:105B40000000000000000000000000000000000055
:105B50008001C003C00380010000000000000000BD
:105B60000000000000008001C003C00380010000AD
:105B70000000000000000000000000000000000025
:105B80000000000000000000000000000000000015
:105B90000000C001C001C0010000000000000000C2
:105BA0000000000000000000C001C001C001800131
:105BB000C000C00000000000000000000000000065
:105BC0000000002000100008000400020001800016
:105BD00040002000100008000800100020004000D5
:105BE00080000001000200040008001000200000F6
:105BF00000000000000000000000000000000000A5
:105C00000000000000000000000000000000000094
:105C1000FE7F00000000000000000000FE7F00008A
:105C20000000000000000000000000000000000074
:105C30000000000000000000000000000000000064
:105C40000000040008001000200040008000000157
:105C50000002000400080010001000080004000208
:105C60000001800040002000100008000400000037
:105C70000000000000000000000000000000000024
:105C80000000C0073018183008600C601C601C60F1
:105C90001C6000300018000E00030001000100012C
:105CA0000001000000008001C003C003800100006B
:105CB00000000000000000000000000000000000E4
:105CC0000000C0076008301018200C2B8C4D844C4D
:105CD000C64CC644664466446644664666266626E6
:105CE0006417CC0C0C40082018303018C007000096
:105CF00000000000000000000000000000000000A4
:105D00000000C001C001C001C00120032003200326
:105D1000200330021006100610061004F80F080CBD
:105D2000080C080C04180418041806381F7C00001E
:105D30000000000000000000000000000000000063
:105D40000000FE07181C18181830183018301830CA
:105D500018301818180CF807181818301820186080
:105D6000186018601860186018301818FE0F0000CE
:105D70000000000000000000000000000000000023
:105D80000000C0076038103018600C400C400C0058
:105D900006000600060006000600060006000600D3
:105DA00006000C400C40082018103008C007000006
:105DB00000000000000000000000000000000000E3
:105DC0000000FE03180E181818101830183018604C
:105DD0001860186018601860186018601860186003
:105DE000182018301830181818181806FE0300006C
:105DF00000000000000000000000000000000000A3
:105E00000000FE3F183018201840184018001800F5
:105E100018081808180CF80F180C1808180818009B
:105E2000180018001840184018201830FE3F0000D5
:105E30000000000000000000000000000000000062
:105E40000000FE3F183818201840184018001800AD
:105E500018081808180CF80F180C18081808180853
:105E60001800180018001800180018007E00000024
:105E70000000000000000000000000000000000022
:105E80000000C003300C100818180C100C1004008F
:105E900006000600060006000600067E0618061824
:105EA00004180C180C18081818183004E003000027
:105EB00000000000000000000000000000000000E2
:105EC00000003FFC0C300C300C300C300C300C302F
:105ED0000C300C300C30FC3F0C300C300C300C30E3
:105EE0000C300C300C300C300C300C303FFC00000F
:105EF00000000000000000000000000000000000A2
:105F00000000F81F80018001800180018001800174
:105F10008001800180018001800180018001800179
:105F2000800180018001800180018001F81F000054
:105F30000000000000000000000000000000000061
:105F40000000E07F000600060006000600060006CE
:105F50000006000600060006000600060006000611
:105F600000060006000600060006000600060E06F3
:105F70000E038E01FC000000000000000000000085
:105F800000007E3E180C18041806180218011801AB
:105F900098009800D800B801B80118031803180633
:105FA0001806180C180C180C181818187E7C00000D
:105FB00000000000000000000000000000000000E1
:105FC00000007E00180018001800180018001800C3
:105FD0001800180018001800180018001800180001
:105FE000180018001840184018201830FE3F000014
:105FF00000000000000000000000000000000000A1
:1060000000000FF01C381C381C381C381C34343489
:10601000343434343432343264326432643264318D
:106020004431C431C431C430C43084308FFC0000EA
:106030000000000000000000000000000000000060
:1060400000000FF81C201C20342034206420642021
:10605000C420C4208421842104230423042604268C
