:020000040800F2
:10000000180400209D01000845030008FD020008B7
:1000100041030008E5010008E104000800000000B9
:10002000000000000000000000000000690300085C
:10003000E901000800000000470300085904000817
:10004000B7010008B7010008B7010008B7010008B0
:10005000B7010008B7010008B7010008B7010008A0
:10006000B7010008B7010008B7010008B701000890
:10007000B7010008B7010008B7010008B701000880
:10008000B7010008B7010008B7010008B701000870
:10009000B7010008B7010008B7010008B701000860
:1000A000B7010008B7010008B7010008B701000850
:1000B000B7010008B7010008B7010008B701000840
:1000C000B7010008B7010008B7010008B701000830
:1000D000B7010008B7010008B7010008B701000820
:1000E000B7010008B7010008B7010008B701000810
:1000F000B7010008B7010008B7010008B701000800
:10010000B7010008B7010008B7010008B7010008EF
:10011000B7010008B7010008B7010008B7010008DF
:10012000B7010008B7010008B7010008B7010008CF
:10013000B7010008B7010008B7010008B7010008BF
:10014000B7010008B7010008B7010008B7010008AF
:10015000B7010008B7010008B7010008B70100089F
:10016000B7010008B7010008B7010008B70100088F
:10017000B7010008B7010008B7010008B70100087F
:10018000B7010008B7010008DFF80CD000F018F83C
:10019000004800470505000818040020064880476D
:1001A00006480047FEE7FEE7FEE7FEE7FEE7FEE75C
:1001B000FEE7FEE7FEE7FEE76104000889010008AC
:1001C000064C074D06E0E06840F0010394E80700A4
:1001D00098471034AC42F6D3FFF7DAFF2405000845
:1001E0004405000800BFFEE77047000030B5144822
:1001F00000684FF47A72B0FBF2F1481EB0F1807FD4
:1002000000D31BE0481E4FF0E022506150170F2230
:10021000002807DA13071D0E0A4B00F00F04241FF5
:100220001D5503E013071C0E074B1C5400BF002094
:100230004FF0E02290610720106100BF30BD000048
:100240000400002018ED00E000E400E0034908602D
:1002500000BF024909680029FBD170470000002057
:10026000F0B50A4600210023002400BF3DE001252F
:1002700005FA01F3156805EA03049C4234D10568C8
:100280004F000326BE40B543056015794E00B540CA
:100290000668354305601579012D02D01579022DC8
:1002A00016D185684F000326BE40B5438560557959
:1002B0004E00B540866835438560456801268E400E
:1002C000B5434560456896798E40B6B23543456082
:1002D000C5684F000326BE40B543C560D5794E00C2
:1002E000B540C6683543C560491C1029BFD3F0BD71
:1002F0004183704742694A404261704700BFFEE750
:100300001CB50121042000F01FF801208DF8040025
:1003100000208DF8060001208DF8070000208DF8E0
:1003200005004FF40050009069460448FFF798FF1D
:100330004FF400510148FFF7DBFF1CBD00080240ED
:1003400000BFFEE77047704729B1064A12680243B2
:10035000044B1A6004E0034A12688243014B1A609E
:100360007047000030380240704700000CB5002094
:10037000019000903448006840F4803032490860B1
:1003800000BF3148006800F4003000900198401C24
:100390000190009818B90198B0F5A04FF1D12A4802
:1003A000006800F4003010B10120009001E000204E
:1003B00000900098012846D123484030006840F062
:1003C00080502149403108602048006840F4404096
:1003D0001E4908601C48083000681B490831086045
:1003E0000846006840F4004008600846006840F491
:1003F000A05008601648091F0860081F006840F0F8
:100400008070091F086000BF0F48006800F000708E
:100410000028F9D040F205700E4908600A480830FB
:10042000006820F0030008490831086008460068A9
:1004300040F00200086000BF03480830006800F088
:100440000C000828F8D10CBD0038024000700040B4
:1004500008544007003C024010B500F035F810BDCC
:1004600010B51548006840F470001349086013483F
:10047000006840F001001149086000200F49083170
:1004800008600E4800680E4908400C4908600D4895
:10049000091D0860081F006820F48020091F0860FB
:1004A000002006490C310860FFF760FF4FF0006044
:1004B00001498039086010BD88ED00E00038024035
:1004C000FFFFF6FE103000240448006820B1034806
:1004D0000068401E014908607047000000000020CD
:1004E00000BFFEE702E008C8121F08C1002AFAD1C7
:1004F00070477047002001E001C1121F002AFBD1A4
:1005000070470000FFF772FEFFF7FAFE07E04FF4B6
:1005100000510348FFF7EEFE6420FFF797FEF6E771
:1005200000080240440500080000002018000000F8
:10053000E40400085C050008180000200004000026
:10054000F404000800000000007A030A0000000024
:0C05500000000000010203040607080977
:040000050800018965
:00000001FF
