:020000040800F2
:10000000B00A00209D01000817140008D31300084F
:10001000151400085F0500081D1C00080000000002
:100020000000000000000000000000001B19000894
:100030006105000800000000191900081D190008DA
:10004000B7010008B7010008B7010008B7010008B0
:10005000B7010008B7010008B7010008B7010008A0
:10006000B7010008B7010008B7010008B701000890
:10007000B7010008B7010008B7010008B701000880
:10008000B7010008B7010008B7010008B701000870
:10009000B7010008B7010008B7010008B701000860
:1000A000B7010008B7010008B7010008B701000850
:1000B000B7010008B7010008B7010008B701000840
:1000C000B7010008B7010008B7010008B701000830
:1000D000B7010008111C0008B7010008B7010008AB
:1000E000B7010008B7010008B7010008B701000810
:1000F000B7010008B7010008B7010008B701000800
:10010000B7010008B7010008B7010008B7010008EF
:10011000B7010008B7010008B7010008B7010008DF
:10012000B7010008B7010008B7010008B7010008CF
:10013000B7010008B7010008B7010008B7010008BF
:10014000B7010008B7010008B7010008B7010008AF
:10015000B7010008B7010008B7010008B70100089F
:10016000B7010008B7010008B7010008B70100088F
:10017000B7010008B7010008B7010008000000003F
:10018000B7010008B7010008DFF80CD000F0AAF9A9
:10019000004800475D1C0008B00A00200648804760
:1001A00006480047FEE7FEE7FEE7FEE7FEE7FEE75C
:1001B000FEE7FEE7FEE7FEE79D190008890100085B
:1001C0002DE9F05F0546002092469B46884606468C
:1001D000814640241BE0284641464746224600F01F
:1001E000DCF853465A46C01A914110D311461846BE
:1001F000224600F0C3F82D1A67EB01084F4622464D
:100200000120002100F0BAF817EB00094E41201E32
:10021000A4F10104DFDC484631462A464346BDE8E6
:10022000F09FD2B201E000F8012B491EFBD27047CB
:100230000022F6E710B513460A4604461946FFF7B2
:10024000F0FF204610BD2DE9FE4F81EA030404F0C3
:10025000004421F0004100944FF0000B23F00043D4
:1002600050EA01045ED052EA03045BD0C3F30A549F
:10027000C1F30A552C44A4F2F3340194A0FB0254B8
:10028000C1F3130141F48011C3F3130343F480134A
:1002900001FB024400FB034E840A970A44EA81549E
:1002A00047EA8357A4FB076802958D0A05FB07857B
:1002B0004FEA932C04FB0C542705029D4FEA065885
:1002C00047EA1637B5EB08056EEB070C870E920E62
:1002D00047EA811742EA8312A7FB0201B6EB0B0142
:1002E00064EB00042B0D43EA0C335E1844EB1C5006
:1002F000DA465146E7FB0201C5F313044FEA0B331C
:1003000043EA14534FEA0432019C43EA0603A4F182
:100310000C040294009CCDE900B400F094F803B002
:10032000BDE8F08F00200146F9E70EB540F23341F9
:1003300002910021CDE900110A460B4600F083F836
:1003400003B000BD01F0004330B421F0004150EA99
:10035000010206D00A0DA2F56072C1F31301002A52
:1003600002DC30BC00207047440F44EAC104C100E5
:10037000E01830BC00EBC25000F01FB8202A04DBAC
:10038000203A00FA02F1002070479140C2F12003A8
:1003900020FA03F3194390407047202A04DB203AE7
:1003A00021FA02F00021704721FA02F3D040C2F195
:1003B000200291400843194670470029A8BF7047A2
:1003C000401C490008BF20F00100704710B4B0FA8B
:1003D00080FC00FA0CF050EA010404BF10BC704726
:1003E00049B1CCF1200421FA04F411FA0CF118BF40
:1003F000012121430843A3EB0C01CB1D4FEA00610F
:100400004FEA102042BF002010BC704700EBC350E1
:1004100010440029A4BF10BC7047401C490008BF0D
:1004200020F0010010BC704710B5141E73F10004D9
:1004300008DA401C41F1000192185B411A4301D1D6
:1004400020F0010010BD2DE9F04D92469B4611B100
:10045000B1FA81F202E0B0FA80F220329046FFF762
:100460008DFF04460F4640EA0A0041EA0B0153465D
:100470005A46084313D0114653EA010019D0C8F177
:1004800040025046FFF789FF05460E465046594642
:100490004246FFF773FF084305D0012004E02046E1
:1004A0003946BDE8F08D0020054346EAE0762C434E
:1004B00037430A986305E40AA0EB08000022FD0A0E
:1004C00044EA47540A3002D500200146E9E7010515
:1004D00010196941DDE9084500196941BDE8F04D91
:1004E000A2E70000064C074D06E0E06840F001037B
:1004F00094E8070098471034AC42F6D3FFF748FE63
:10050000D81C0008F81C000870B58C1810F8015BA6
:1005100015F0070301D110F8013B2A1106D110F89C
:10052000012B03E010F8016B01F8016B5B1EF9D1A0
:100530002B0705D40023521E0DD401F8013BFAE726
:1005400010F8013BCB1A921C03E013F8015B01F891
:10055000015B521EF9D5A142D8D3002070BDFEE741
:100560007047000010B500F0C3FA00EE100ADFED8E
:10057000050A0548B8EE400A80EE801A80ED001AA0
:1005800010BD00000024F44AF005002072B6FEE71A
:100590002DE9F0410446876D00F066F9064694F8AF
:1005A00035000025022806D08020606584F834508C
:1005B0000120BDE8F0812068016821F0160101608A
:1005C0002068416921F080014161206C08B9A06C6C
:1005D00020B12068016821F00801016020680168ED
:1005E00021F0010101600CE000F03EF9801B0528BC
:1005F00007D920206065032084F8350084F8345042
:10060000D7E720680068C007EED194F85C103F205F
:100610008840B860012084F8350084F83450002008
:10062000C7E790F83510022903D0802141650120E9
:100630007047052180F835100068016821F001013C
:10064000016000207047000070B5044600F00CF90E
:100650000546601C02D004480078044400F004F908
:10066000401BA042FAD370BDF40500202DE9F84FDD
:10067000DFF8BCA10022012503264FF00F090AF183
:10068000040BAAF1040E00BF0B6805FA02F4234024
:10069000A34270D10F7907F00307012F01D0022F79
:1006A00016D187684FEA420806FA08FC27EA0C07C9
:1006B000D1F80CC00CFA08FC4CEA070CC0F808C0D2
:1006C0004768A7430C79C4F3001494403C4344604A
:1006D0000C79E443A4070AD0C4684FEA420C06FA36
:1006E0000CF7BC438F6807FA0CF72743C7600C79F7
:1006F00004F00304022C12D1D40800EB840CDCF8C3
:1007000020405707FF0E09FA07F824EA0804D1F839
:10071000108008FA07F848EA0408CCF8208004683A
:100720004FEA420C06FA0CF7BC430F7907F00307B7
:1007300007FA0CF7274307604C6814F4403F70D069
:100740003C4C276847F480472760246822F0030761
:1007500004F480440094384C07EB040CDCF808489F
:1007600097074FEA177809FA08F7BC43334FB842A6
:1007700002D1002724E054E0314FB84201D10127D3
:100780001EE0304FB84201D1022719E02E4FB84287
:1007900001D1032714E02D4FB84201D104270FE007
:1007A0002B4FB84201D105270AE02A4FB84201D1A8
:1007B000062705E0284FB84201D1072700E00827A7
:1007C00007FA08F72743CCF80878DAF800405746CC
:1007D000D1F804C09C435FEACC2C00D51C433C609C
:1007E000DBF800405F46D1F804C09C435FEA8C2CE4
:1007F00000D51C433C60DEF800407746D1F804C0C9
:100800009C435FEA8C3C00D51C433C60084F083F8A
:100810003C68D1F804C09C435FEACC3C00D51C4343
:100820003C60521C102AFFF42FAFBDE8F88F000087
:10083000083C0140443802400030014000000240C2
:100840000004024000080240000C02400010024078
:100850000014024000180240001C02400AB18161ED
:1008600070470904FBE700000148806870470000FA
:10087000F4050020024881680278114481607047C5
:10088000F40500200B4810B5016841F400710160C7
:10089000016841F480610160016841F48071016088
:1008A000032000F079F80F2000F006F800F024F89B
:1008B000002010BD003C024070B50D4D04464FF4C1
:1008C0007A712878B1FBF0F00A490968B1FBF0F0C1
:1008D00000F01CFB48B9102C07D200222146501E04
:1008E00000F03AF800206C6070BD012070BD00007F
:1008F000F4050020000600200F4808B5016841F00B
:1009000001010160006800F0010000900A48143005
:10091000016841F480410160006800F4804000906B
:1009200005481030016841F080510160006800F016
:100930008050009008BD000030380240002809DBDC
:1009400000F01F02012191404009800000F1E020E9
:10095000C0F8001170470000F0B40E4B1B680C4645
:10096000C3F30223C3F10705042D00D90425191D83
:10097000072901D2002300E0DB1E012606FA05F15B
:10098000491E214099409E40761E16403143F0BCDE
:1009900001F045B90CED00E0064900F007020868D7
:1009A0004FF6FF03184040EA0220034A1043086054
:1009B000704700000CED00E00000FA052DE9F0475B
:1009C0000E46050065D0DFF81481D8F80000F7B2B4
:1009D00000F00700B04207D288F80070D8F8000095
:1009E00000F00700B04254D128683D4C810712D571
:1009F000400703D5206840F4E050206028780007C5
:100A000003D5206840F4604020602068A96820F089
:100A1000F000084320602878C0072DD0304968686E
:100A20000839012812D0022813D0032811D00968F0
:100A3000890700292DDA216821F003010143216093
:100A4000FFF712FF814641F2883A0EE009688903F8
:100A5000EFE709688901ECE7FFF706FFA0EB090162
:100A6000514502D90320BDE8F0872068696800F08D
:100A70000C00B0EB810FEFD1D8F80010404601F028
:100A80000701B14207D90770006800F00700B042C3
:100A900001D00120E7E72878400705D52068E968FC
:100AA00020F4E050084320602878000706D520682D
:100AB000296920F4604040EAC100206000F03EF85F
:100AC0002168084AC1F30311515CC8400649086017
:100AD00006480068FFF7F0FE0020C4E7003C024033
:100AE00008380240C01C000800060020F80500205D
:100AF00001480068704700000006002004480549CE
:100B000000680968044AC1F38221515CC8407047FB
:100B10000006002008380240D01C0008044805499F
:100B200000680968044AC1F34231515CC84070470B
:100B30000006002008380240D01C0008154810B5F7
:100B4000006810F00C02144813D01449042A0FD086
:100B5000082A0ED10F4C241F2268236802F03F029E
:100B60005B0207D52068C0F38810A0FB010106E0F6
:100B7000084610BD2168C1F38811A1FB00010023C4
:100B8000FFF71EFB2168C1F30141491C4900B0FB7E
:100B9000F1F010BD083802400024F40040787D01D7
:100BA0002DE9F84F04006ED02078DFF84C93C00791
:100BB000A9F104054AD009F104000168C1F38101DB
:100BC000012908D00068C0F3810002280AD1D9F8B1
:100BD0000000400206D52868800337D560680028E9
:100BE000E1D033E06068B0F5803F10D0B0F5A02FC1
:100BF000286810D020F480302860286820F48020F5
:100C000028606068A8B1FFF72FFE06460DE028684F
:100C100040F48030F4E740F480202860F7E700BF1C
:100C2000FFF722FE801B642873D828688003F7D55D
:100C30000CE0FFF719FE064605E000BFFFF714FEC3
:100C4000801B6428F0D828688003F7D42078DFF868
:100C5000AC8280074FF0000A3ED5A748001D01680E
:100C600011F00C0F08D00068C0F3810002280BD1EE
:100C7000D9F80000400207D42868800716D5E0683C
:100C8000012800D112E033E1E068B8B10120C8F8D2
:100C90000000FFF7E9FD064605E000BFFFF7E4FDB1
:100CA000801B0228C0D828688007F7D528682169EA
:100CB00020F0F80040EAC10028600DE0C8F800A06C
:100CC000FFF7D2FD064604E0FFF7CEFD801B0228A9
:100CD0001FD828688007F7D42078000722D5864FD0
:100CE00087486169703771B101210160FFF7BCFD70
:100CF000064604E0FFF7B8FD801B022809D83868D3
:100D00008007F7D50EE0C0F800A0FFF7ADFD06465E
:100D100005E082E0FFF7A8FD801B02287DD8386837
:100D20008007F7D42078400768D5DFF8CCB10027DA
:100D30000BF13C0BDBF80000C0000BD4DBF800101B
:100D400041F08051CBF80010DBF80000012700F0E3
:100D5000805000906B4E3068C00510D4306840F46D
:100D600080703060FFF780FD009005E0FFF77CFDAC
:100D70000099401A022850D83068C005F6D55E4E5A
:100D8000A0686C3601280FD00528306810D020F0FC
:100D900001003060306820F004003060A068B8B115
:100DA000FFF762FD00900FE0306840F00100F4E7CB
:100DB00040F004003060F7E7FFF756FD0099411A54
:100DC00041F28830814266D830688007F4D50EE061
:100DD000FFF74AFD009007E0FFF746FD0099411A32
:100DE00041F28830814256D830688007F4D42FB160
:100DF000DBF8001021F08051CBF80010A069C8B3D7
:100E00003D49091D0968C1F3810102294AD0022820
:100E1000504607D0C8F8600000E03CE0FFF724FD32
:100E200004463BE04746C8F86000FFF71DFD064654
:100E300005E000BFFFF718FD801B02282BD82868AB
:100E40008001F7D4D4E907010843A16A2E4A490872
:100E500002EB0141626A41EA8211084394F82C10C6
:100E600040EA0161C9F8001001203866FFF7FCFC78
:100E7000044606E03EE000BFFFF7F6FC001B022838
:100E800009D828688001F7D534E000BFFFF7ECFCF3
:100E9000001B022802D90320BDE8F88F28688001D2
:100EA000F4D427E00128F7D0D9F80000E26900F473
:100EB000800191421CD1226A00F03F01914217D17A
:100EC00047F6C071626A0140B1EB821F10D1A26A7D
:100ED0004FF0FF3300F4403103EB5202B1EB024F0D
:100EE00006D194F82C1000F07060B0EB016F01D0C7
:100EF0000120D1E70020CFE704380240000047423C
:100F0000800E4742007000400000FFFF10B5401EF9
:100F1000B0F1807F01D3012010BD4FF0E02460616B
:100F20000F21601700F07BFE0020A06107202061E8
:100F3000002010BD70477047F8B501680446086886
:100F4000CA684B6910F00F0F4FF0000559D003F03D
:100F5000010602F49077374365D0C10705D0D1056B
:100F600003D5616C41F001016164410705D5D907E2
:100F700003D0616C41F002016164810705D5D90796
:100F800003D0616C41F004016164010707D502F0F0
:100F90002001314303D0616C41F008016164616C50
:100FA00000293AD0800604D5900602D5204600F0EC
:100FB0002BFD20684069616CC0F38010090700D4E4
:100FC00060B3204600F0F9FC20684069400621D556
:100FD0002068143050E8001F21F0400140E8001262
:100FE000002AF5D1E06BA8B172490165E06BFFF70B
:100FF00018FB002811D0E06B016D01B0BDE8F04096
:10100000084783060FD593060DD52046BDE8F84066
:1010100000F0FABC2046FFF78EFFF8BD2046FFF730
:101020008AFF6564F8BD266B2023012E7ED1C6069B
:101030007CD5D6067AD508684868009048694FF094
:10104000020640064DD5E26B106840684FF4807789
:101050000004000C3AD0A18D814237D9E085D069D7
:10106000B8422DD020680C3050E8001F21F4807168
:1010700040E80012002AF5D12068143050E8001F23
:1010800021F0010140E80012002AF5D12068143057
:1010900050E8001F21F0400140E80012002AF5D17D
:1010A00084F84230256320680C3050E8001F21F09E
:1010B000100140E80012002AF5D1E06BFFF768FA52
:1010C0006663A08DE18D401A81B206E0A18D814258
:1010D000A8D1D069B842A5D166632046FFF72AFFA0
:1010E000F8BDA08DE18D401A81B2E08D0028F7D0C7
:1010F0000029F5D020680C3050E8002F22F49072BF
:1011000040E80027002FF5D12068143050E8002F68
:1011100022F0010240E80027002FF5D184F8423088
:10112000256320680C3050E8002F00E006E022F034
:10113000100240E80023002BF3D1CDE705062BD5A4
:10114000150629D594F841002128C9D1A068B0F529
:10115000805F01D12069B0B1206A411C2162216801
:1011600000784860E08C401E0004000CE084B7D199
:101170002068C16821F08001C1602068C16841F029
:101180004001C160F8BD206A0088C0F308004860D3
:10119000206A801C2062E5E74006F3D55006F1D5B1
:1011A000CA68204622F04002CA6084F8413000F04C
:1011B0000FF9F8BDAD19000870B5040004D094F81B
:1011C0004100002510B106E0012070BD84F84050B8
:1011D000204600F023F8242084F841002068C168EC
:1011E00021F40051C160204600F070FC20680169C4
:1011F00021F4904101612068416921F02A01416197
:101200002068C16841F40051C1606564202084F801
:10121000410084F842006563002070BD10B586B0BF
:10122000044614216846FFF703F8184920688842ED
:1012300029D117480021026842F0100202600068BC
:1012400000F01000059012481438026842F00102C4
:101250000260006800F0010005904FF4C06000904B
:101260000220CDE901010320039007200490694684
:101270000848FFF7FBF9002211462520FFF76CFB19
:101280002520FFF75BFB06B010BD000000100140F9
:10129000443802400000024090F84230202B01D038
:1012A0000220704721B11AB10023036300F094BCFF
:1012B000012070472DE9F0413C492DED048B884217
:1012C00070D13B4890F800C043788278C17863447D
:1012D0000779134446790B4485793B44C4793344F8
:1012E0002B44007A2344DBB283423ED101EB02203F
:1012F000FFF71BF89FED2F9B53EC192BFEF7A3FF75
:10130000FFF720F808EE100A06EB0720FFF70DF8AC
:1013100053EC192BFEF797FFFFF714F808EE900A2D
:1013200004EB052000EE100A24A20B21B8EE409A2F
:10133000012000F0C2F902230322B0EE480A07217F
:10134000184600F0CDF903220223B0EE680A072107
:10135000104600F0C5F9BCEEC90A0623072110EEBD
:10136000102A042000F088F913E015A20B210120B7
:1013700000F0A3F914A20721022000F09EF912A2A6
:101380000721032000F099F90FA20721042000F0A3
:1013900094F9BDEC048B0922BDE8F04104490348EF
:1013A000FFF77ABFBDEC048BBDE8F0816806002032
:1013B00004060020FCA9F1D24D62503F4F4B0000C3
:1013C0004572726F720000004E6F6E652020000043
:1013D0007047FEE70E4810B50C4901604FF41651F6
:1013E0004160002181600C22C160C0E9041281616A
:1013F000C161FFF7E1FE08B1FFF7C8F8044909220F
:10140000BDE8104064390248FFF746BF00100140B4
:1014100068060020FEE7FEE770B5002400212046A4
:1014200000F0E4F80025002000F065FA6D1CEDB234
:10143000802DF8D3641CE4B2082CEFD370BD0000FB
:10144000104810B5016886B041F0020101600068E3
:101450000D4C00F002000590112001900220039035
:10146000C020009069462046FFF700F90122402184
:101470002046FFF7F3F9012280212046FFF7EEF91D
:1014800006B010BD30380240000402402DE9F041A2
:101490000024124E0746802525FA04F23A408021A6
:1014A0003046FFF7DBF9012240213046FFF7D6F93D
:1014B000002240213046FFF7D1F9641CE4B2082C29
:1014C000EAD3012240213046FFF7C8F93046BDE893
:1014D000F04100224021FFF7C1B9000000040240A2
:1014E00010B50B4C012280212046FFF7B7F90122ED
:1014F00040212046FFF7B2F9002280212046FFF765
:10150000ADF920460022BDE810404021FFF7A6B902
:101510000004024010B5094C002280212046FFF74C
:101520009DF9012240212046FFF798F9204601222B
:10153000BDE810408021FFF791B90000000402408F
:1015400010B5FA20FFF780F8FFF77AFFAE2000F021
:10155000C1F9D52000F0BEF9802000F0BBF9A82029
:1015600000F0B8F93F2000F0B5F9D32000F0B2F94F
:10157000002000F0AFF9402000F0ACF9A12000F00D
:10158000A9F9C82000F0A6F9DA2000F0A3F912208A
:1015900000F0A0F9812000F09DF9CF2000F09AF929
:1015A000D92000F097F9F12000F094F9DB2000F049
:1015B00091F9302000F08EF9A42000F08BF9A620DC
:1015C00000F088F98D2000F085F9142000F082F9F0
:1015D000AF2000F07FF9BDE81040FFF71DBF0246C5
:1015E000012000E05043491EFCD2704710B50C4664
:1015F00040F0B00000F06EF9102040EA141000F046
:1016000069F904F00F00BDE8104000F063B9000074
:101610002DE9F0410746CE004000083E801E1546E9
:101620004FF0FF38F1B2C0B2FFF7E0FF11480024DD
:1016300000EB05152819A0F5805090F8000E00F079
:101640005AF9641CE4B2082CF4D308EB4700F1B259
:10165000C0B2FFF7CBFF00242819A0F5805090F806
:10166000080E00F048F9641CE4B2082CF4D3BDE87D
:10167000F0810000000000202DE9F04700241D4605
:101680001646884681460A2713E0291B0A20491E70
:10169000FFF7A5FFB6FBF0F0B0FBF7F107FB110277
:1016A00008EB0400C1B248463032FFF7B1FF641CBA
:1016B000E4B2AC42E9D3BDE8F0872DE9F04115462C
:1016C0000E460746002406E03019C1B23846FFF73F
:1016D0009FFF641CE4B22A5D002AF5D1BDE8F081C9
:1016E0002DE9FF4F0C462DED020BFCEEC00A4FF426
:1016F0007A71F2EE041A10EE900AB8EE601A81B018
:10170000B0FBF1F501FB15006425B0FBF5F110EE1F
:10171000900A30EE411AB0FBF5F605FB16000A25DB
:10172000B0FBF5F910EE900A21EE211AF8EE600AEE
:10173000B0FBF5F6BCEEC11A30EE600A05FB1608E8
:1017400011EE10BADFED620AE71C20EE200ABCEEB3
:10175000C00A10EE100AB0FBF5F605FB1600651C7A
:10176000A61C0090012A29D004F1040A022A49D0BB
:10177000002B6FD0012B0A4603984FF0010321463E
:1017800069D0FFF779FFE9B201234A460398FFF7D2
:1017900073FFF1B2012342460398FFF76DFFF9B2E0
:1017A0002E220398FFF734FF0AF0FF0101235A4667
:1017B0000398FFF761FF641DE1B240E0ABB1012B7C
:1017C00003984FF001034246214612D0FFF754FF21
:1017D000E9B22E220398FFF71BFFF1B201235A460C
:1017E0000398FFF749FFF9B229E001234246214659
:1017F00052E0FFF741FFE9B22E220398FFF708FFFE
:10180000F1B237E0F3B1012B03984FF001034A46E0
:10181000214621D0FFF730FFE9B201234246039869
:10182000FFF72AFFF1B22E220398FFF7F1FEF9B27B
:1018300001235A460398FFF71FFF0AF0FF01012317
:10184000009A29E001234A4621460398FFF714FF36
:10185000E9B21FE011E025E0FFF70EFFE9B2012336
:1018600042460398FFF708FFF1B22E220398FFF7D4
:10187000CFFEF9B201235A460EE00A460123214663
:101880000398FFF7F9FEE9B201234A460398FFF7F0
:10189000F3FEF1B201234246039807B0BDE8F04FD2
:1018A000FFF7EABEFFF7E8FEE9B201234A460398D4
:1018B000FFF7E2FEF1B2012342460398FFF7DCFE98
:1018C000F9B22E220398FFF7A3FE0AF0FF01D1E739
:1018D0000000C84210B50446FFF702FE7820FFF76B
:1018E000D5FD0020FFF7D2FD2046FFF7CFFDBDE874
:1018F0001040FFF70FBE10B50446FFF7F1FD78204A
:10190000FFF7C4FD4020FFF7C1FD2046FFF7BEFDF5
:10191000BDE81040FFF7FEBD70477047FEF7AABF55
:1019200010B592B030216846FEF782FC14210CA855
:10193000FEF77EFC17480024016841F080510160E9
:10194000006800F0805011901348016841F4804114
:1019500001600068069400F480401190022000901D
:1019600001200390102004906846FFF719F908B190
:1019700072B6FEE70F20CDE90C040E940F940021FF
:101980000CA81094FFF71AF8002801D072B6FEE7F1
:1019900012B010BD4038024000700040024801689B
:1019A00041F470010160704788ED00E010B5806B74
:1019B0000021C185FFF7BFFA10BD01680C3151E865
:1019C000002F22F4907241E80023002BF5D101682A
:1019D000143151E8002F22F0010241E80023002BCE
:1019E000F5D1016B012909D101680C3151E8002FB3
:1019F00022F0100241E80023002BF5D1202180F8CD
:101A0000421000210163704708B590F84210222966
:101A100001D0022008BD82684FF480539A4201D160
:101A2000016921B1816A9A421BD04AB10AE0026879
:101A3000816A5268C2F308020A80816A891C08E040
:101A4000026972B10268526802F07F020A70816A0C
:101A5000491C8162C18D491E0904090CC18503D04E
:101A60001BE002685268F1E70168CA6822F02002B0
:101A7000CA600168CA6822F48072CA6001684A6953
:101A800022F001024A61202180F8421000214163C6
:101A9000026B012A03D0FFF70DFC002008BD016393
:101AA00001680C3151E8002F22F0100241E80023B8
:101AB000002BF5D101680A68D20602D50A68496888
:101AC0000091818DFFF736FAE7E7000070B5044614
:101AD00000680169E26821F4405111430161216904
:101AE000A068E26908436169114308432168CA6834
:101AF00049F20C639A430243CA6020684169A269B3
:101B000021F440711143416131492068884202D07B
:101B10003049884202D1FFF701F801E0FEF7EEFFFD
:101B2000E2690023192164253226B2F5004F62686C
:101B300028D0A0FB0101930F9200FEF741FB014664
:101B4000B0FBF5F06FF01802504301EB800006EB9C
:101B50000010B0FBF5F000F0F002B1FBF5F002EB85
:101B60000012B1FBF5F06FF01803584301EB800051
:101B700006EB0010B0FBF5F000F00F0021681044F8
:101B8000886070BDA0FB010192185B41FEF718FB55
:101B90000146B0FBF5F00201B1FBF5F06FF0180360
:101BA000584301EB800006EBC000B0FBF5F000F0FD
:101BB000F80002EB4002B1FBF5F0584301EB800066
:101BC00006EBC000B0FBF5F000F00700D6E7000020
:101BD000001001400014014081628285C28500210D
:101BE0004164222180F84210016921B10168CA686C
:101BF00042F48072CA6001684A6942F001024A6197
:101C00000068C16841F02001C160002070470000F9
:101C10000148FFF791B9000068060020FEE70907B8
:101C2000090E002804DB00F1E02080F80014704762
:101C300000F00F0000F1E02080F8141D704702E072
:101C400008C8121F08C1002AFAD170477047002047
:101C500001E001C1121F002AFBD17047FEF712FEFE
:101C6000FFF75EFEFEF77EFCFFF7B4FBFFF768FCB4
:101C700001210AA20846FFF720FD0BA20121022044
:101C8000FFF71BFD0AA201210320FFF716FD0AA2A0
:101C900001210420FFF711FDFEE700004A57303113
:101CA00020546573743A000054564F433A000000C4
:101CB0004348324F3A000000434F32203A000000C0
:101CC00000000000000000000102030406070809EC
:101CD0000000000001020304F81C000800000020BE
:101CE000040600000805000874200008040600200F
:101CF000AC0400004E1C0008011372F84333301C82
:101D0000100C0603912C40C07803112C043F0403EF
:101D1000212D7088FC0829261820FF211E14F008A8
:101D2000F033E0184D211C031E11338870000C1095
:101D30001E2123241927211010160E45E018040235
:101D400025071820403D020418E0692C20180707D9
:101D5000174080F08040403F0202010F01022842FC
:101D6000F01D0101011F04912B80B066B1191D29DE
:101D700001913A30CE492C146018043C6018061DBD
:101D80001EE010080810721F0F102020100FF053D3
:101D900010F83620203F20203C700808C21E302852
:101DA000242221441E3008888848082E182020202C
:101DB00011CC3BC0203227070424243F241AF820EA
:101DC0002308084B19212036E0108888184B0F1182
:101DD000101E380808C8382021523F1A702E29607A
:101DE0008F1C222121221C90111D312222119019B9
:101DF00061CAC0C26A80C659081C40201050170131
:101E000002040810204A4001114A04012119152A30
:101E1000403219251B0402F21B7048D13AF0501AC7
:101E2000360F1EC030C828E870280807182724235A
:101E3000140B6F2A387E280D203C230202273820FD
:101E400008F888889F4B203FF01BC0303F1B0838A4
:101E500030191019781B08F80F194039201B100F82
:101E6000103E8888E8081010AC23201810112A03AF
:101E70005E2940223829402C221E024019A418094C
:101E8000F808203F21010121252A085229812942F1
:101E90004149112EC08080807F0E2FF888C02818FD
:101EA00008501C0126382F2940292F29801B20305B
:101EB0001012F81AF81413203F190229204B30C0D1
:101EC000601A2074123F4BE010B06B0F10B029D095
:101ED0001AF0301980220179203F18242438504FFD
:101EE000C04C888870C0140C30204B7088C11738E3
:101EF000202121221C3A189F4A188239A049D0116A
:101F00002A1F90121F240878881BC838151C073810
:101F10000E60191A1AF8201114033C0714073C0329
:101F20004814081868808068180820302C03032C97
:101F300030200838C82F5950298F29102F203826D3
:101F4000212020681145FE020202257F4040401AF0
:101F50000CE0611C0106380B191D42FE191D527F51
:101F60001A04120211045A80011930D91D391621A0
:101F7000180819242222223F20AB390F115F3F118C
:101F80002020110E21311A0E104B2011104B88F811
:101F9000102A10B359401A1F3F2B22130F16F08836
:101FA0008888181A20D029D1497A21176B949494E3
:101FB00093603960190F4C203F21F3548098987931
:101FC0003059121AC02719D1193039311F203F2436
:101FD000022D30212A0812893069D7294B2903198B
:101FE0000BC96079A019BF2B201FDD390F9C80FF22
:101FF000A1E0191229D03BA0FF0C39501941122041
:102000008A01C01B3324012A190F3AE041395229B1
:102010000F392349603C103F202C29053F010E3029
:1020200008060170291038080F300C030C300F2CF3
:1020300049A14E312E0E31200C29621D818E70185F
:102040003059D1215721302C22213055807C020279
:10205000443F404072FF39083C02027C8F544040AC
:102060003FC0080601010202040429C6821013249D
:04207000F400000078
:040000050800018965
:00000001FF
