:020000040800F2
:1000000090040020A10100085B100008E30F000825
:1000100059100008D90200085D1300080000000014
:10002000000000000000000000000000E3100008D5
:10003000DB020008000000005D100008E510000869
:10004000BB010008BB010008BB010008BB010008A0
:10005000BB010008BB010008BB010008BB01000890
:10006000BB010008BB010008BB010008BB01000880
:10007000BB010008BB010008BB010008BB01000870
:10008000BB010008BB010008BB010008BB01000860
:10009000BB010008BB010008BB010008BB01000850
:1000A000BB010008BB010008BB010008BB01000840
:1000B000BB010008BB010008BB010008BB01000830
:1000C000BB010008BB010008BB010008BB01000820
:1000D000BB010008BB010008BB010008BB01000810
:1000E000BB010008BB010008BB010008BB01000800
:1000F000BB010008BB010008BB010008BB010008F0
:10010000BB010008BB010008BB010008BB010008DF
:10011000BB010008BB010008BB010008BB010008CF
:10012000BB010008BB010008BB010008BB010008BF
:10013000BB010008BB010008BB010008BB010008AF
:10014000BB010008BB010008BB010008BB0100089F
:10015000BB010008BB010008BB010008BB0100088F
:10016000BB010008BB010008BB010008BB0100087F
:10017000BB010008BB010008BB0100080000000033
:10018000BB010008BB010008DFF810D000F092F8B6
:10019000004800472D150008AFF3008090040020B0
:1001A0000648804706480047FEE7FEE7FEE7FEE711
:1001B000FEE7FEE7FEE7FEE7FEE7FEE7A111000827
:1001C000890100082DE9F05F0546002092469B4614
:1001D00088460646814640241BE02846414647465D
:1001E000224600F057F853465A46C01A914110D3A0
:1001F00011461846224600F03EF82D1A67EB01081A
:100200004F4622460120002100F035F817EB000987
:100210004E41201EA4F10104DFDC484631462A4647
:100220004346BDE8F09FD2B201E000F8012B491E21
:10023000FBD270470022F6E710B513460A46044683
:100240001946FFF7F0FF204610BD30B50B460146BA
:1002500000202022012409E021FA02F59D4205D365
:1002600003FA02F5491B04FA02F52844151EA2F10F
:100270000102F1DC30BD202A04DB203A00FA02F151
:10028000002070479140C2F1200320FA03F3194384
:1002900090407047202A04DB203A21FA02F0002126
:1002A000704721FA02F3D040C2F120029140084386
:1002B00019467047064C074D06E0E06840F0010320
:1002C00094E8070098471034AC42F6D3FFF760FF7C
:1002D000EC1500080C160008FEE7704770B50446E0
:1002E00000F014F90546601C02D00448007804446C
:1002F00000F00CF9401BA042FAD370BD04000020AE
:100300002DE9F84FDFF8BCA10022012503264FF0AC
:100310000F090AF1040BAAF1040E00BF0B6805FADD
:1003200002F42340A34270D10F7907F00307012F95
:1003300001D0022F16D187684FEA420806FA08FC5E
:1003400027EA0C07D1F80CC00CFA08FC4CEA070CA1
:10035000C0F808C04768A7430C79C4F30014944060
:100360003C4344600C79E443A4070AD0C4684FEAD4
:10037000420C06FA0CF7BC438F6807FA0CF72743C8
:10038000C7600C7904F00304022C12D1D40800EBEE
:10039000840CDCF820405707FF0E09FA07F824EA1E
:1003A0000804D1F8108008FA07F848EA0408CCF8E5
:1003B000208004684FEA420C06FA0CF7BC430F7920
:1003C00007F0030707FA0CF7274307604C6814F49B
:1003D000403F70D03C4C276847F480472760246832
:1003E00022F0030704F480440094384C07EB040C1B
:1003F000DCF8084897074FEA177809FA08F7BC4372
:10040000334FB84202D1002724E054E0314FB842C4
:1004100001D101271EE0304FB84201D1022719E077
:100420002E4FB84201D1032714E02D4FB84201D11D
:1004300004270FE02B4FB84201D105270AE02A4FCD
:10044000B84201D1062705E0284FB84201D107275D
:1004500000E0082707FA08F72743CCF80878DAF80D
:1004600000405746D1F804C09C435FEACC2C00D52D
:100470001C433C60DBF800405F46D1F804C09C435D
:100480005FEA8C2C00D51C433C60DEF800407746C8
:10049000D1F804C09C435FEA8C3C00D51C433C600F
:1004A000084F083F3C68D1F804C09C435FEACC3C4D
:1004B00000D51C433C60521C102AFFF42FAFBDE84E
:1004C000F88F0000083C01404438024000300140F1
:1004D000000002400004024000080240000C0240FC
:1004E000001002400014024000180240001C0240AC
:1004F000426921EA02030A4043EA024181617047EE
:100500000AB1816170470904FBE700000148806877
:1005100070470000040000200248816802781144FE
:1005200081607047040000200B4810B5016841F459
:1005300000710160016841F480610160016841F46B
:1005400080710160032000F061F80F2000F006F8D0
:1005500000F024F8002010BD003C024070B50D4DA5
:1005600004464FF47A712878B1FBF0F00A49096823
:10057000B1FBF0F000F053FC48B9102C07D2002278
:100580002146501E00F022F800206C6070BD012052
:1005900070BD000004000020100000200A4808B5CB
:1005A000016841F480410160006800F480400090DF
:1005B0000548001F016841F080510160006800F0AB
:1005C0008050009008BD000044380240F0B40E4B4B
:1005D0001B680C46C3F30223C3F10705042D00D9A1
:1005E0000425191D072901D2002300E0DB1E012686
:1005F00006FA05F1491E214099409E40761E16409C
:100600003143F0BC00F0BCBE0CED00E0064900F048
:10061000070208684FF6FF03184040EA0220034A29
:1006200010430860704700000CED00E00000FA0580
:100630002DE9F843054600684FF00109C1074FF066
:10064000000601D1400727D5DFF80C81C8F86860A3
:10065000FFF75CFF0746414C05E000BFFFF756FF80
:10066000C01B022857D820680001F7D468688101B0
:10067000287A41EA0070394984310860C8F86890E6
:10068000FFF744FF074604E0FFF740FFC01B0228C6
:1006900041D820680001F7D52878800752D52F4827
:1006A0004030016841F08051016000682C4C00F03E
:1006B00080500090206840F480702060FFF726FF93
:1006C000074604E0FFF722FFC01B022823D820685A
:1006D000C005F7D5214C7034206810F4407020D04C
:1006E000A98901F4407181421BD020681D4920F482
:1006F0004070C1F800900E6020602068C00710D0E4
:10070000FFF704FF064641F2883707E0FFF7FEFED9
:10071000801BB84202D90320BDE8F8832068800717
:10072000F4D5E9680D48C1F301220830032A0BD043
:10073000016821F4F81101602068A989C1F30B0157
:10074000084320600020E7E70268074B22F4F81214
:1007500019400A430260EFE70000474200380240B8
:1007600000700040400E4742FFFCFF0F2DE9F047AC
:100770000E46050065D0DFF81481D8F80000F7B206
:1007800000F00700B04207D288F80070D8F80000E7
:1007900000F00700B04254D128683D4C810712D5C3
:1007A000400703D5206840F4E05020602878000717
:1007B00003D5206840F4604020602068A96820F0DC
:1007C000F000084320602878C0072DD030496868C1
:1007D0000839012812D0022813D0032811D0096843
:1007E000890700292DDA216821F0030101432160E6
:1007F000FFF78CFE814641F2883A0EE009688903D2
:10080000EFE709688901ECE7FFF780FEA0EB09013B
:10081000514502D90320BDE8F0872068696800F0DF
:100820000C00B0EB810FEFD1D8F80010404601F07A
:100830000701B14207D90770006800F00700B04215
:1008400001D00120E7E72878400705D52068E9684E
:1008500020F4E050084320602878000706D520687F
:10086000296920F4604040EAC100206000F038F8B7
:100870002168084AC1F30311515CC8400649086069
:1008800006480068FFF76AFE0020C4E7003C02400B
:1008900008380240D415000810000020080000208D
:1008A0000448054900680968044AC1F38221515C83
:1008B000C84070471000002008380240E4150008C6
:1008C0000448054900680968044AC1F34231515C93
:1008D000C84070471000002008380240E4150008A6
:1008E000154810B5006810F00C02144813D04110E0
:1008F000042A0FD0082A0ED10F4C241F2268236827
:1009000002F03F025B0207D52068C0F38810A0FB0D
:10091000010106E0084610BD2168C1F38811A1FB62
:1009200000010023FFF74EFC2168C1F30141491C7F
:100930004900B0FBF1F010BD083802400024F4007B
:100940002DE9F84F04006ED02078DFF84C93C007F3
:10095000A9F104054AD009F104000168C1F381013D
:10096000012908D00068C0F3810002280AD1D9F813
:100970000000400206D52868800337D5606800284B
:10098000E1D033E06068B0F5803F10D0B0F5A02F23
:10099000286810D020F480302860286820F4802057
:1009A00028606068A8B1FFF7B1FD06460DE0286831
:1009B00040F48030F4E740F480202860F7E700BF7F
:1009C000FFF7A4FD801B642873D828688003F7D53F
:1009D0000CE0FFF79BFD064605E000BFFFF796FD24
:1009E000801B6428F0D828688003F7D42078DFF8CB
:1009F000AC8280074FF0000A3ED5A748001D016871
:100A000011F00C0F08D00068C0F3810002280BD150
:100A1000D9F80000400207D42868800716D5E0689E
:100A2000012800D112E033E1E068B8B10120C8F834
:100A30000000FFF76BFD064605E000BFFFF766FD0F
:100A4000801B0228C0D828688007F7D5286821694C
:100A500020F0F80040EAC10028600DE0C8F800A0CE
:100A6000FFF754FD064604E0FFF750FD801B022807
:100A70001FD828688007F7D42078000722D5864F32
:100A800087486169703771B101210160FFF73EFD50
:100A9000064604E0FFF73AFD801B022809D83868B3
:100AA0008007F7D50EE0C0F800A0FFF72FFD06463F
:100AB00005E082E0FFF72AFD801B02287DD8386818
:100AC0008007F7D42078400768D5DFF8CCB100273D
:100AD0000BF13C0BDBF80000C0000BD4DBF800107E
:100AE00041F08051CBF80010DBF80000012700F046
:100AF000805000906B4E3068C00510D4306840F4D0
:100B000080703060FFF702FD009005E0FFF7FEFC0B
:100B10000099401A022850D83068C005F6D55E4EBC
:100B2000A0686C3601280FD00528306810D020F05E
:100B300001003060306820F004003060A068B8B177
:100B4000FFF7E4FC00900FE0306840F00100F4E7AC
:100B500040F004003060F7E7FFF7D8FC0099411A35
:100B600041F28830814266D830688007F4D50EE0C3
:100B7000FFF7CCFC009007E0FFF7C8FC0099411A92
:100B800041F28830814256D830688007F4D42FB1C2
:100B9000DBF8001021F08051CBF80010A069C8B339
:100BA0003D49091D0968C1F3810102294AD0022883
:100BB000504607D0C8F8600000E03CE0FFF7A6FC14
:100BC00004463BE04746C8F86000FFF79FFC064636
:100BD00005E000BFFFF79AFC801B02282BD828688D
:100BE0008001F7D4D4E907010843A16A2E4A4908D5
:100BF00002EB0141626A41EA8211084394F82C1029
:100C000040EA0161C9F8001001203866FFF77EFC58
:100C1000044606E03EE000BFFFF778FC001B022818
:100C200009D828688001F7D534E000BFFFF76EFCD3
:100C3000001B022802D90320BDE8F88F2868800134
:100C4000F4D427E00128F7D0D9F80000E26900F4D5
:100C5000800191421CD1226A00F03F01914217D1DC
:100C600047F6C071626A0140B1EB821F10D1A26ADF
:100C70004FF0FF3300F4403103EB5202B1EB024F6F
:100C800006D194F82C1000F07060B0EB016F01D029
:100C90000120D1E70020CFE704380240000047429E
:100CA000800E4742007000400000FFFF10B5006852
:100CB0000B4641680D480140080CD870C1F304246C
:100CC0005C7001F03F049C70C1F34231197052B95D
:100CD00000F0C5F9D870587800F0C1F958709878CC
:100CE00000F0BDF99870002010BD00003FFFFF002C
:100CF00010B50B460168896A596001680969C1F33A
:100D00000E019960006801680D480140C1F305407B
:100D10001870C1F306245C7001F07F049C70890D8B
:100D2000D97052B900F09BF91870587800F097F913
:100D30005870987800F093F99870002010BD00006A
:100D40007F7F7F0010B5040002D0607F10B106E005
:100D5000012010BD00202077204600F039F8022045
:100D600060772168CA204862216853204862204683
:100D700000F07EF930BB20688168144A1140816020
:100D80002168886862681043D4E904231A43104339
:100D900088602168E068086120680169228941EA69
:100DA00002410161204600F087F958B921680A6CB8
:100DB00022F480220A6421680A6CA3691A430A6437
:100DC000012161772268FF21516210BDBFFF8FFFB3
:100DD00000680349884202D1024901200860704737
:100DE000002800403C0E474270B504460068C168C8
:100DF00021F0A001C160FFF789FB05464FF47A7628
:100E000007E000BFFFF782FB401BB04201D903207F
:100E100070BD2068C0688006F4D5002070BD10B594
:100E2000401EB0F1807F01D3012010BD4FF0E024BF
:100E300060610F21601700F0A3FA0020A061072075
:100E40002061002010BD70B5040004D094F83D006E
:100E5000002510B106E0012070BD84F83C5020460A
:100E600000F022F8242084F83D002068C16821F4B5
:100E70000051C160204600F09BF92068016921F40F
:100E8000904101612068416921F02A014161206897
:100E9000C16841F40051C1602564202084F83D0000
:100EA00084F83E00002070BD10B586B004461421C1
:100EB0006846FFF7BFF91B492068884230D11A48BD
:100EC000016841F010010160006800F01000059019
:100ED00015481438016841F001010160016801F012
:100EE00001010591016841F00101016000680F4CAA
:100EF00000F0010005904FF4007000900220019076
:100F000001200290032003900720049069462046A8
:100F1000FFF7F6F92015009069462046FFF7F0F933
:100F200006B010BD001001404438024000000240ED
:100F30002DE9F843044690F83D001F4616460D463D
:100F400020284CD1C5B1BEB194F83C00012846D050
:100F5000012084F83C004FF00008C4F840802120B4
:100F600084F83D00FFF7D2FAA6848146E684A068A3
:100F7000B0F5805F03D004E00120BDE8F88320696C
:100F800028B12E465FF0000584F83C800EE0002674
:100F9000FAE78021204600F091F9A0B9AEB116F829
:100FA000010B21684860E08C401EE084E08C4B46D9
:100FB0004FF0000200970028EBD14FF0400120468F
:100FC00000F07CF930B10320D7E735F8020BC0F30D
:100FD0000800E6E7202084F83D000020CDE702204D
:100FE000CBE7FEE770B586B014216846FFF722F91B
:100FF0000E480024016841F00401016000680C4EB5
:1010000000F004004FF40055059022462946304672
:10101000FFF776FA01200095CDE9010469463046D4
:101020000394FFF76DF906B070BD00003038024040
:1010300000080240074806497F2201600021C0E9FC
:101040000112FF22C0E9032141618161FFF77ABEED
:101050000028004070000020FEE7FEE7704701090D
:1010600001EB810100F00F0000EB4100C0B27047BE
:101070002DE9F041044600680025C168490618D4EE
:10108000C16841F08001C160FFF740FA06464FF4A5
:101090007A78042707E000BFFFF738FA801B404545
:1010A00001D9677701252068C068400601D4002D6A
:1010B000F2D02846BDE8F08170B5044600680025EE
:1010C000C16821F08001C16020688068800606D474
:1010D0002046FFF789FE10B10420607701252846DD
:1010E00070BD7047FFF718BA30B597B03021684629
:1010F000FFF7A0F814210CA8FFF79CF8002526485C
:101100001195129513951495016841F08051016075
:10111000006800F0805015902048016841F480413B
:1011200001600068022400F48040159005200090C2
:101130004FF480300190012002908005CDE90640F7
:10114000082008904FF4A870CDE9090404200B9002
:101150006846FFF7F5FB08B172B6FEE70CA90F2051
:1011600081E831004FF4A0500F904FF48050109060
:1011700005210CA8FFF7FAFA08B172B6FEE74FF4A2
:1011800080701490119411A8FFF752FA002801D032
:1011900072B6FEE717B030BD403802400070004024
:1011A0000248016841F470010160704788ED00E079
:1011B00070B5044600680169E26821F440511143AA
:1011C00001612169A068E26908436169114308432C
:1011D0002168CA6849F20C639A430243CA602068D6
:1011E0004169A26921F4407111434161314920688C
:1011F000884202D03049884202D1FFF761FB01E00A
:10120000FFF74EFBE2690023192164253226B2F56F
:10121000004F626828D0A0FB0101930F9200FEF7F7
:10122000D1FF0146B0FBF5F06FF01802504301EB1F
:10123000800006EB0010B0FBF5F000F0F002B1FB0F
:10124000F5F002EB0012B1FBF5F06FF01803584314
:1012500001EB800006EB0010B0FBF5F000F00F0092
:1012600021681044886070BDA0FB010192185B41A9
:10127000FEF7A8FF0146B0FBF5F00201B1FBF5F067
:101280006FF01803584301EB800006EBC000B0FB81
:10129000F5F000F0F80002EB4002B1FBF5F0584326
:1012A00001EB800006EBC000B0FBF5F000F007009A
:1012B000D6E7000000100140001401402DE9F04184
:1012C000984617460E460446069D27E0681C25D022
:1012D0002DB1FFF71BF9A0EB0800A8421ED920682A
:1012E0000C3050E8001F21F4D07140E80012002AB1
:1012F000F5D12068143050E8001F21F0010140E8CA
:101300000012002AF5D1202084F83D0084F83E0028
:10131000002084F83C000320BDE8F08120680068CC
:1013200036EA000004D00020B842CFD00020F3E716
:101330000120F9E70848074901604FF4E1314160B5
:10134000002181600822C160C0E904128161C1618D
:10135000FFF779BD001001402C000020FEE70000DF
:101360000FB4054B10B503A9044A029800F028F801
:1013700010BC5DF814FB00001515000814000020D7
:101380000907090E002804DB00F1E02080F80014B2
:10139000704700F00F0000F1E02080F8141D704746
:1013A00002E008C8121F08C1002AFAD1704770472E
:1013B000002001E001C1121F002AFBD1704700008C
:1013C0002DE9FF4F89B09B460446002506E02528FD
:1013D0000BD05A460B999047641C6D1C207800284E
:1013E000F5D10DB02846BDE8F08F0027B8460122A0
:1013F000474900E0074314F8013F203B02FA03F09D
:101400000842F7D120782E2819D114F8010F47F09F
:1014100004072A280ED06FF02F022078A0F13001A7
:1014200009290CD808EB880102EB410100EB010807
:10143000641CF2E70A98641C50F8048B0A90207828
:101440000028CED0642808D0692806D075281ED080
:101450005A460B9990476D1C58E00A994FF00A09BB
:1014600001C90A91002802DA40422D2102E0390523
:1014700004D52B218DF82010012103E0F90704D0B9
:101480002021F7E78A4608AE0DE00021FAE70A9925
:101490004FF00A0901C90A91F7E74946FEF7D5FE60
:1014A000303106F8011D0028F7D1ADEB060000F140
:1014B0002009780701D44FF00108C84502DDA8EBE8
:1014C000090000E000208046002706E008A85A46F0
:1014D000C05D0B9990476D1C7F1C5745F6DB04E0FF
:1014E00030205A460B9990476D1CB8F10001A8F1C5
:1014F0000108F5DC05E016F8010B5A460B999047F8
:101500006D1CB9F10001A9F10109F4DC641C65E767
:101510000928010013B56423012269460248FFF738
:1015200007FD00981CBD00002C000020FEF7FCFF0A
:10153000FFF7DAFDFFF756FDFFF7FCFEFFF77AFD38
:1015400015A0FFF70DFF194C194DDFF868804FF417
:101550007A764FF40057002214491748FFF7C8FB6A
:10156000002213491448FFF7A1FBE978AB786A78A9
:1015700012A001F5FA61FFF7F3FEA37862782178F3
:1015800011A0FFF7EDFE3046FEF7A8FE39464046B3
:10159000FEF7AEFFDFE7000053544D3332205254C4
:1015A0004320B2E2CAD4200D0A0000001800002037
:1015B00000000020000802407000002025642D2556
:1015C000642D25642000000025643A25643A2564D2
:1015D0000D0A0000000000000000000001020304EA
:1015E0000607080900000000010203040C160008A9
:1015F0000000002018000000A013000824160008B6
:101600001800002078040000B0130008000000005B
:101610000100000010000000000000000024F400A1
:0416200000000000C6
:040000050800018965
:00000001FF
