:020000040800F2
:10000000A00900209D0100089F1C00080B1C00088F
:100010009D1C0008A7040008512A000800000000E9
:10002000000000000000000000000000F5270008AC
:100030006505000800000000A11C0008F727000863
:10004000B7010008B7010008B7010008B7010008B0
:10005000B7010008B7010008B7010008B7010008A0
:10006000B7010008B7010008B7010008B701000890
:10007000B7010008B7010008B7010008B701000880
:10008000B7010008B7010008B7010008B701000870
:10009000B7010008B7010008B7010008B701000860
:1000A000B7010008B7010008B7010008B701000850
:1000B000B7010008B7010008B7010008B701000840
:1000C000B7010008B7010008B7010008B701000830
:1000D000B7010008B7010008B7010008B701000820
:1000E000B7010008B7010008B7010008B701000810
:1000F000B7010008B7010008B7010008B701000800
:10010000B7010008D51C0008B7010008B7010008B6
:10011000B7010008B7010008B7010008B7010008DF
:10012000B7010008B7010008B7010008A9040008DA
:10013000B7010008B7010008B7010008B7010008BF
:10014000B7010008B7010008B7010008B7010008AF
:10015000B7010008B5040008B7010008B70100089E
:10016000B7010008B7010008B7010008B70100088F
:10017000B7010008B7010008B7010008000000003F
:10018000B7010008B7010008DFF80CD000F07AF8DA
:1001900000480047DD2A0008A009002006488047E3
:1001A00006480047FEE7FEE7FEE7FEE7FEE7FEE75C
:1001B000FEE7FEE7FEE7FEE7952800088901000854
:1001C0002DE9F05F0546002092469B46884606468C
:1001D000814640241BE0284641464746224600F01F
:1001E00041F853465A46C01A914110D31146184659
:1001F000224600F028F82D1A67EB01084F462246E8
:100200000120002100F01FF817EB00094E41201ECD
:10021000A4F10104DFDC484631462A464346BDE8E6
:10022000F09FD2B201E000F8012B491EFBD27047CB
:100230000022F6E710B513460A4604461946FFF7B2
:10024000F0FF204610BD202A04DB203A00FA02F11C
:10025000002070479140C2F1200320FA03F31943B4
:1002600090407047202A04DB203A21FA02F0002156
:10027000704721FA02F3D040C2F1200291400843B6
:1002800019467047064C074D06E0E06840F0010350
:1002900094E8070098471034AC42F6D3FFF778FF94
:1002A000AC2B0008CC2B0008704700000A4610B5A4
:1002B0000146034800F0F6FF002800D0012010BDE1
:1002C0001C05002010B5044801F01CF9042801D0D9
:1002D000012010BD002010BD1C05002010B50F49E5
:1002E00000240D48C1E900048C60CC600C614C61B5
:1002F0008C612146094800F013F8084801F01CFA07
:1003000008B1012406E04FF40061044800F03EFF0C
:100310000028F6D1204610BD002C01401C0500200D
:100320002DE9F04F04464B4887B00025016841F4A1
:1003300000610160006800F40060059045481438D1
:10034000016841F480010160016801F480010591B8
:10035000016841F004010160016801F004010591A8
:10036000016841F0080101600068032600F0080000
:100370000590022001900120CDE902060C20049096
:100380004FF4F85000906946334800F0B5FA04275E
:1003900069463248009700F0AFFA00220E21312062
:1003A00000F01EFC312000F00DFC2D484FF00068DD
:1003B0004FF4806BC0E90185B902C560C0E904B1A2
:1003C0008900816120214FF44039C0E907194FF4B9
:1003D000000A0904C0E90BA122490160C0E90976BD
:1003E0002064846300F0D1F81D4800F0D1F91C4866
:1003F0004021603000F1080282E822088901416151
:10040000890081612021C0E907190904C0E90BA115
:1004100014494831C0E90018C0E90976E0638463F3
:1004200000F0B3F80E48603000F0B2F900220F215E
:100430003B2000F0D5FB3B2000F0C4FB00220F2145
:10044000452000F0CDFB452000F0BCFB07B0BDE827
:10045000F08F00004438024000080240000C0240C7
:100460005C0400205864024013460A4610B5014659
:10047000034801F0BDF9002800D0012010BD0000A4
:100480001C0500207047000013460A4610B50146BF
:10049000034801F047FA002800D0012010BD0000F9
:1004A0001C0500207047FEE70148006C00F0A0B872
:1004B0001C0500200148C06B00F09AB81C05002004
:1004C00001681823CAB2103AB2FBF3F2054B6FF37E
:1004D0000901032A9B5CC36500D9091D8165084693
:1004E000704700008C2B000810B5014600208B6976
:1004F0008A6A4FF0C07453B1B3F5005F15D072B182
:10050000012A0CD0022A0AD0032A09D104E01AB128
:10051000012A06D0022A03D1C96AC90100D50120E7
:1005200010BDC96AA142FAD010BD002AF7D0012A35
:10053000F2D0022AF3D0032AF3D010BD30B50468FC
:10054000256825F480252560046863608368402B56
:10055000036803D099600068C26030BD9A6000688B
:10056000C16030BD704790F83510022903D080215A
:10057000416501207047052180F835100068016849
:1005800021F0010101600020704770B504002BD0FC
:1005900094F83500022826D02068016821F0010176
:1005A000016020680025056020684560206885603E
:1005B0002068C560206805612168212048612046C7
:1005C000FFF77EFFE56325646564A564E564256542
:1005D00094F85C203F2191408160656584F8355036
:1005E00084F83450002070BD012070BD406D70470C
:1005F0002DE9F84304464FF00009CDF80090634818
:100600004FF41651A56D0068B0FBF1F72E6894F811
:100610005C10082000FA01F131420FD021680A680D
:1006200052070BD50A6822F004020A6094F85C10A5
:100630008840A860606D40F00100606594F85C102F
:100640004FF0010808FA01F0304208D021684969EA
:10065000090604D5A860606D40F00200606594F85A
:100660005C1004208840304208D02168096889075E
:1006700004D5A860606D40F00400606594F85C10DB
:1006800010208840304218D021680968090714D525
:10069000A86020680168490304D50068000308D5F4
:1006A000A16C07E00168C90503D4016821F00801C5
:1006B0000160216C09B12046884794F85C10202025
:1006C0008840304231D021680968C9062DD5A8601C
:1006D00094F8350005282068016806D0490347D5FD
:1006E000006800031DD4616C1CE021F0160101605C
:1006F0002068416921F080014161206C08B9A06C3B
:1007000020B12068016821F00801016094F85C10B4
:100710003F208840A86084F8358084F83490216DAB
:100720001FE0E16B09B120468847606D00282BD09F
:10073000606DC00714D0052084F83500206801687A
:1007400021F0010101600098401C0090B84203D8DC
:1007500020680068C007F6D184F8358084F83490AA
:10076000E16C002910D001B02046BDE8F0430847F5
:100770000168C905D5D4016821F01001016084F831
:10078000358084F83490CCE7BDE8F8831000002071
:100790002DE9F041044600F0B5F906465CB10220AF
:1007A00084F83500002584F834502068016821F071
:1007B000010101600DE00120BDE8F08100F0A2F927
:1007C000801B052805D920206065032084F83500AA
:1007D000F2E720680068C007F0D12268116820485D
:1007E0000140D4E901031843D4E9033633431843E5
:1007F00063691843A3691843E3691843236A1843DC
:100800000843616A042903D1D4E90B13194308434F
:10081000106020684069666A20F0070130460E4388
:10082000012704280CD1A06A0643E06A40B12046A3
:10083000FFF75AFE20B14020606584F83570BAE7B2
:10084000206846612046FFF73BFE94F85C203F217C
:1008500091408160656584F835700020ACE7000048
:100860003F8010F02DE9F0410446866D90F8340089
:10087000002501280DD0012084F8340094F835704B
:100880000020012F07D084F8340002252846BDE857
:10089000F0810220FBE7022784F83570606520466E
:1008A000FFF74CFE94F85C103F208840B060206851
:1008B000016841F016010160206C20B120680168D8
:1008C00041F0080101602068016841F00101016008
:1008D000DCE7000070B5044600F014F90546601C22
:1008E00002D004480078044400F00CF9401BA042F8
:1008F000FAD370BD040000202DE9F84FDFF8BCA149
:100900000022012503264FF00F090AF1040BAAF17A
:10091000040E00BF0B6805FA02F42340A34270D115
:100920000F7907F00307012F01D0022F16D1876836
:100930004FEA420806FA08FC27EA0C07D1F80CC077
:100940000CFA08FC4CEA070CC0F808C04768A7433B
:100950000C79C4F3001494403C4344600C79E443A4
:10096000A4070AD0C4684FEA420C06FA0CF7BC434D
:100970008F6807FA0CF72743C7600C7904F003046B
:10098000022C12D1D40800EB840CDCF8204057076D
:10099000FF0E09FA07F824EA0804D1F8108008FAD3
:1009A00007F848EA0408CCF8208004684FEA420CB3
:1009B00006FA0CF7BC430F7907F0030707FA0CF7A8
:1009C000274307604C6814F4403F70D03C4C2768C4
:1009D00047F480472760246822F0030704F480442A
:1009E0000094384C07EB040CDCF8084897074FEAF2
:1009F000177809FA08F7BC43334FB84202D10027F1
:100A000024E054E0314FB84201D101271EE0304FBD
:100A1000B84201D1022719E02E4FB84201D1032775
:100A200014E02D4FB84201D104270FE02B4FB842FC
:100A300001D105270AE02A4FB84201D1062705E077
:100A4000284FB84201D1072700E0082707FA08F726
:100A50002743CCF80878DAF800405746D1F804C0AC
:100A60009C435FEACC2C00D51C433C60DBF8004083
:100A70005F46D1F804C09C435FEA8C2C00D51C4330
:100A80003C60DEF800407746D1F804C09C435FEA42
:100A90008C3C00D51C433C60084F083F3C68D1F8B3
:100AA00004C09C435FEACC3C00D51C433C60521C14
:100AB000102AFFF42FAFBDE8F88F0000083C01407A
:100AC000443802400030014000000240000402406F
:100AD00000080240000C02400010024000140240D6
:100AE00000180240001C0240426921EA02030A4049
:100AF00043EA0241816170470AB18161704709048C
:100B0000FBE70000014880687047000004000020F7
:100B10000248816802781144816070470400002017
:100B20000B4810B5016841F400710160016841F49F
:100B300080610160016841F480710160032000F070
:100B40006FF80F2000F006F800F024F8002010BD28
:100B5000003C024070B50D4D04464FF47A71287880
:100B6000B1FBF0F00A490968B1FBF0F000F06AFF50
:100B700048B9102C07D200222146501E00F030F850
:100B800000206C6070BD012070BD000004000020DA
:100B9000100000200A4808B5016841F48041016056
:100BA000006800F4804000900548001F016841F093
:100BB00080510160006800F08050009008BD000086
:100BC00044380240002809DB00F01F020121914057
:100BD0004009800000F1E020C0F8001170470000DB
:100BE000F0B40E4B1B680C46C3F30223C3F1070598
:100BF000042D00D90425191D072901D2002300E086
:100C0000DB1E012606FA05F1491E214099409E404F
:100C1000761E16403143F0BC01F024BF0CED00E01D
:100C2000064900F0070208684FF6FF03184040EA43
:100C30000220034A10430860704700000CED00E0FA
:100C40000000FA052DE9F0470E46050065D0DFF8F3
:100C50001481D8F80000F7B200F00700B04207D2C4
:100C600088F80070D8F8000000F00700B04254D1B6
:100C700028683D4C810712D5400703D5206840F411
:100C8000E05020602878000703D5206840F46040D9
:100C900020602068A96820F0F000084320602878D0
:100CA000C0072DD0304968680839012812D00228C1
:100CB00013D0032811D00968890700292DDA21688B
:100CC00021F0030101432160FFF71CFF814641F23F
:100CD000883A0EE009688903EFE709688901ECE7C3
:100CE000FFF710FFA0EB0901514502D90320BDE831
:100CF000F0872068696800F00C00B0EB810FEFD13D
:100D0000D8F80010404601F00701B14207D907703A
:100D1000006800F00700B04201D00120E7E7287822
:100D2000400705D52068E96820F4E05008432060BA
:100D30002878000706D52068296920F4604040EA39
:100D4000C100206000F038F82168084AC1F303119F
:100D5000515CC8400649086006480068FFF7FAFE83
:100D60000020C4E7003C024008380240942B0008F1
:100D700010000020080000200448054900680968A8
:100D8000044AC1F38221515CC84070471000002022
:100D900008380240A42B0008044805490068096887
:100DA000044AC1F34231515CC84070471000002032
:100DB00008380240A42B0008154810B5006810F050
:100DC0000C02144813D04110042A0FD0082A0ED167
:100DD0000F4C241F2268236802F03F025B0207D5F4
:100DE0002068C0F38810A0FB010106E0084610BD92
:100DF0002168C1F38811A1FB00010023FFF7E0F98E
:100E00002168C1F30141491C4900B0FBF1F010BD5C
:100E1000083802400024F4002DE9F84F04006ED099
:100E20002078DFF84C93C007A9F104054AD009F1F6
:100E300004000168C1F38101012908D00068C0F3F2
:100E4000810002280AD1D9F80000400206D528689E
:100E5000800337D560680028E1D033E06068B0F5E2
:100E6000803F10D0B0F5A02F286810D020F480303B
:100E70002860286820F4802028606068A8B1FFF707
:100E800041FE06460DE0286840F48030F4E740F467
:100E900080202860F7E700BFFFF734FE801B64283E
:100EA00073D828688003F7D50CE0FFF72BFE0646C1
:100EB00005E000BFFFF726FE801B6428F0D82868F5
:100EC0008003F7D42078DFF8AC8280074FF0000A67
:100ED0003ED5A748001D016811F00C0F08D000682E
:100EE000C0F3810002280BD1D9F80000400207D4DA
:100EF0002868800716D5E068012800D112E033E1A8
:100F0000E068B8B10120C8F80000FFF7FBFD064615
:100F100005E000BFFFF7F6FD801B0228C0D8286857
:100F20008007F7D52868216920F0F80040EAC10061
:100F300028600DE0C8F800A0FFF7E4FD064604E0D5
:100F4000FFF7E0FD801B02281FD828688007F7D430
:100F50002078000722D5864F87486169703771B1C4
:100F600001210160FFF7CEFD064604E0FFF7CAFD50
:100F7000801B022809D838688007F7D50EE0C0F832
:100F800000A0FFF7BFFD064605E082E0FFF7BAFDCF
:100F9000801B02287DD838688007F7D42078400766
:100FA00068D5DFF8CCB100270BF13C0BDBF8000073
:100FB000C0000BD4DBF8001041F08051CBF80010DA
:100FC000DBF80000012700F0805000906B4E306885
:100FD000C00510D4306840F480703060FFF792FD97
:100FE000009005E0FFF78EFD0099401A022850D8C6
:100FF0003068C005F6D55E4EA0686C3601280FD06B
:101000000528306810D020F001003060306820F0F2
:1010100004003060A068B8B1FFF774FD00900FE0E5
:10102000306840F00100F4E740F004003060F7E77A
:10103000FFF768FD0099411A41F28830814266D875
:1010400030688007F4D50EE0FFF75CFD009007E004
:10105000FFF758FD0099411A41F28830814256D875
:1010600030688007F4D42FB1DBF8001021F08051F4
:10107000CBF80010A069C8B33D49091D0968C1F348
:10108000810102294AD00228504607D0C8F86000E2
:1010900000E03CE0FFF736FD04463BE04746C8F879
:1010A0006000FFF72FFD064605E000BFFFF72AFDB1
:1010B000801B02282BD828688001F7D4D4E90701C7
:1010C0000843A16A2E4A490802EB0141626A41EADB
:1010D0008211084394F82C1040EA0161C9F800100D
:1010E00001203866FFF70EFD044606E03EE000BF33
:1010F000FFF708FD001B022809D828688001F7D5F2
:1011000034E000BFFFF7FEFC001B022802D90320D9
:10111000BDE8F88F28688001F4D427E00128F7D0D3
:10112000D9F80000E26900F4800191421CD1226AE2
:1011300000F03F01914217D147F6C071626A014049
:10114000B1EB821F10D1A26A4FF0FF3300F440319F
:1011500003EB5202B1EB024F06D194F82C1000F0D1
:101160007060B0EB016F01D00120D1E70020CFE724
:101170000438024000004742800E474200700040A1
:101180000000FFFF10B5FFF78FF810BD2DE9FE43FB
:101190000446002603200D4684F83400606C0328C2
:1011A0005ED0B5F5805F5BD04FF4006700204FF054
:1011B0008068BD421FD181460090019000212068C7
:1011C00000F085FD800113D46946204601F09AF9AC
:1011D00007000DD10198400334D5B4F85000010444
:1011E000206800F0ABFD070002D10221206823E057
:1011F000A06B384328E01DB1A06B40F0006023E0F5
:101200008146009001900021206800F060FD80017F
:10121000EED46946204601F075F90700E8D101983F
:10122000C0030FD5B4F850000104206800F086FD1B
:101230000700DDD10021206800F0CDFD0700D7D1E7
:101240004F46D5E74746D3E7A063A06B144F4FF056
:10125000010848B12068876384F8348001260EE0D5
:10126000A06B40F08050EFE7211DD4E9050C0EC9BA
:10127000CDE90050CDF808C0206800F031FD4FF4F2
:101280000071206800F08EFD28B121688F63A16B8A
:101290000143A163012684F834803046BDE8FE8313
:1012A000FF0540002DE9F041044690F834000E4659
:1012B0001546012802D00220BDE8F0810020A0637D
:1012C000B54203D2A06B40F0006005E0E06DA8429B
:1012D00004D2A06B40F00070A0633CE0032084F8CF
:1012E000340094F84C00DFF87C8080064FF0010752
:1012F00006D42168C1F83880A06B40F080600BE014
:101300000021206800F0E3FC800107D52168C1F8C6
:101310003880A06B40F40060A0631AE0606C012884
:1013200003D076026D02032809D03146206800F010
:101330000EFE40B92946206800F0F0FD18B920687B
:1013400000F062FD48B12268C2F83880A16B014309
:10135000A16384F834700120AEE784F83470002073
:10136000AAE70000FF05400070470000F0B5426E9C
:10137000920F0A70426EC2F383624A70426EC2F3E9
:1013800001628A70426E120CCA70B0F86420120AB0
:101390000A7190F864204A71826E120DCA80826EC2
:1013A000C2F303420A72B0F86820C2F3C0324A7234
:1013B000B0F86820C2F380328A72B0F86820C2F3B5
:1013C0004032CA72B0F86820C2F300320A730026B5
:1013D0004E73426C4FF40075012462B1012A3AD079
:1013E000026847499163816B41F08051816380F8C5
:1013F00034400120F0BDB0F86820C36E9205120D94
:1014000042EA93720A61C26EC2F3C2620A75C26E88
:10141000C2F302624A75C26EC2F342528A75C26E4C
:10142000C2F38242CA75C26EC2F3C2320A760A6938
:10143000521C42650B7E03F007039B1C9A404265D9
:101440000B7A03F00F0704FA07F383655B0A5A432C
:10145000C0E917250EE090F86820C36E9206920A44
:1014600042EA13420A610A69521C92024265C0E9CB
:101470001652056630F86C2FC2F3803201F8192F2E
:101480000288C2F3C6124A70027802F07F028A70A4
:101490004268D20FCA704268C2F341720A71426850
:1014A000C2F382624A714268C2F383528A7142680F
:1014B000C2F34052CA710E724268C2F300424A72CD
:1014C0008288C2F3C0328A728288C2F38032CA72C2
:1014D0008288C2F340320A738288C2F300324A73B0
:1014E0008288C2F381228A738288C2F30122CA737E
:1014F0000079C0F3460008744C740020F0BD000071
:10150000FF05400070B50446B0F850000025010406
:10151000206800F092FD18B1A16B0143A16304E0C3
:101520000021206800F0D3FB0546C5F3432070BDC1
:10153000F8B5056B04460068416B09041BD5290703
:1015400019D5D4E90A56002E14D00027206800F0DF
:10155000DDFB05F8010B010A05F8011B010C05F87C
:10156000021B000E361F7F1C05F8010C082FEDD35F
:10157000C4E90A56F8BD416B4FF00006C9054FF0AB
:10158000010744D5390281632068C16B4CF23A32BD
:101590009143C1632068C16A21F00101C16228073B
:1015A0001DD515F0220F09D0206800F077FD28B175
:1015B000A16B0143A1632046FFF7D6FE216840F2EC
:1015C0003A50886384F834702663A80703D0204615
:1015D00000F0A0F9F8BD204600F0A0F9F8BD2806FB
:1015E000FCD5A80609D5206800F058FD28B1A16BEC
:1015F0000143A1632046FFF7B7FEA807EED120689C
:10160000C16A21F00801C16284F83470E3E7416BDC
:10161000490424D5290722D5D4E90856002EDDD067
:101620005FF0000715F8010B009015F8011B361F3D
:1016300040EA0120009015F8021B40EA01400090AA
:1016400015F8011C40EA016000906946206800F02E
:1016500070FB7F1C082FE5D3C4E90856F8BD416B29
:1016600040F23A221142F9D0416B890703D5A16BB0
:1016700041F00201A163416B090703D5A16B41F061
:101680000801A163416B890603D5A16B41F02001DC
:10169000A163416BC90603D5A16B41F01001A163A1
:1016A000416B890503D5A16B41F00801A16340F2AC
:1016B0003A7181632068C16B40F23A329143C16351
:1016C000206800F0EBFCA16B0843A063280706D557
:1016D00084F8347026632046FFF746FEF8BD2806DE
:1016E000FCD515F0300F0CD0E16B11480865E06BAC
:1016F000FEF739FF0028F1D0E06BBDE8F84000F0BC
:10170000DFBEA8070CD0216C0A480865206CFEF7E4
:101710002AFF0028E2D0206CBDE8F84000F0A7BE08
:10172000A66384F8347026632046FFF72BFDF8BDCE
:10173000C12400086F24000870B504000ED094F88E
:101740003400002518B92577204600F04FF8032013
:1017500084F83400204600F00BF808B1012070BD79
:10176000A5632563012084F83400002070BD0000CB
:10177000FEB50025044676200095CDE901502946A6
:101780000B460A46206800F0ABFA48BB154E46F8F7
:10179000A05F206800F0B6FA012535600220FFF74F
:1017A00099F8204600F092FF30B100BF84F8345021
:1017B000A16B0143A16313E0204600F010FF002855
:1017C000F4D14FF40071206800F0ECFA002808D042
:1017D000226805499163A16B0143A16384F83450E9
:1017E0000120FEBD00802542FF054000704700003B
:1017F0002DE9F04786B01F460446154639B194F8E6
:101800003400012807D0022006B0BDE8F087A06BA5
:1018100040F0006008E00020A063E36DEA199A42FE
:1018200004D9A06B40F00070A06369E0032284F843
:10183000342022688146D0622268D36B40F22A3677
:101840003343D363236C2F4ADA63236C2E4ADA6462
:10185000226C1065226C9060206C0068026822F097
:10186000C002026020680A46266C4FEA472800F151
:1018700080014FEA98033046FEF7F4FFDFF88CA0B2
:10188000012670B12068C16B21F49571C163216894
:10189000C1F838A0A06B40F08040A06384F83460A9
:1018A0002EE01B480660606C012800D06D024FF0EE
:1018B000FF30CDE900089020029002200596CDE986
:1018C00003096946206800F0ECF9012F06D982204F
:1018D00020632946206800F0EFFA05E081202063AC
:1018E0002946206800F001FB00288DD02268C2F84C
:1018F00038A0A16B0143A16384F83460C4F8309030
:10190000012081E72D240008C9230008FF054000BD
:101910008C85254210B5FEF7B5FD10BD10B5FEF75C
:10192000C1FD10BD2DE9F04F5FEA010B87B01E46E7
:101930000446114607D094F83400012807D002204D
:1019400007B0BDE8F08FA06B40F0006008E0002514
:10195000A563E26D8819904204D9A06B40F0007035
:10196000A06356E0032084F834002068C562206834
:10197000C26B40F21A2942EA0902C263E26B2D48A7
:10198000D063E26B2C48D064E06B0565606C012885
:1019900000D049024FF09008012E05D9A020206305
:1019A000206800F095FB04E0C4F83080206800F067
:1019B000A8FBDFF888A0012730B12268C2F838A060
:1019C000A16B0143A16321E01D480760E16B40204A
:1019D0008860E06B0068016821F0C00141F04001BF
:1019E000016022687602B30859468032E06BFEF748
:1019F00039FF80B12068C16B21EA0901C163216808
:101A0000C1F838A0A06B40F08040A06384F8347027
:101A10002563012094E74FF0FF30CDE90006CDE9C2
:101A20000285CDE904576946206800F03AF90020A4
:101A300086E70000B3240008C9230008FF05400022
:101A40008C85254210B5401EB0F1807F01D3012066
:101A500010BD4FF0E02460610F21601701F002F823
:101A60000020A06107202061002010BD70B5040097
:101A700004D094F83D00002510B106E0012070BDAF
:101A800084F83C50204600F023F8242084F83D00E0
:101A90002068C16821F40051C160204600F002FFB7
:101AA0002068016921F4904101612068416921F0B9
:101AB0002A0141612068C16841F40051C160256478
:101AC000202084F83D0084F83E00002070BD000016
:101AD00010B586B0044614216846FEF7A9FB1B49E1
:101AE0002068884230D11A48016841F01001016035
:101AF000006800F01000059015481438016841F0A6
:101B000001010160016801F001010591016841F0E6
:101B10000101016000680F4C00F0010005904FF4D6
:101B20000070009002200190012002900320039099
:101B30000720049069462046FEF7DEFE201500903F
:101B400069462046FEF7D8FE06B010BD00100140E1
:101B500044380240000002402DE9F843044690F862
:101B60003D001F4616460D4620284CD1C5B1BEB1DA
:101B700094F83C00012846D0012084F83C004FF046
:101B80000008C4F84080212084F83D00FEF7BAFF29
:101B9000A6848146E684A068B0F5805F03D004E0A7
:101BA0000120BDE8F883206928B12E465FF00005CA
:101BB00084F83C800EE00026FAE78021204600F001
:101BC000F7FEA0B9AEB116F8010B21684860E08CB1
:101BD000401EE084E08C4B464FF000020097002846
:101BE000EBD14FF04001204600F0E2FE30B103207F
:101BF000D7E735F8020BC0F30800E6E7202084F8A9
:101C00003D000020CDE70220CBE7FEE700B587B01E
:101C100014216846FEF70CFB0A480021026842F0D6
:101C200001020260006800F0010005904FF40040DE
:101C3000CDE900010120029069460348FEF75CFEF1
:101C400007B000BD303802400000024070B586B0D9
:101C500014216846FEF7ECFA0E480024016841F0B2
:101C60000401016000680C4E00F004004FF40055C0
:101C70000590224629463046FEF73EFF012000959A
:101C8000CDE90104694630460394FEF735FE06B0FF
:101C900070BD00003038024000080240FEE7FEE759
:101CA00070470A6842624A688262D1E902231A4395
:101CB000D1E904310B43C16A1A4321F0F701114302
:101CC000C16200207047006800F0030070470844BC
:101CD000406970470148FFF72BBC00001C0500203D
:101CE00070B50DF1100C11439CE8700023431943AB
:101CF00029434268314347F6FF639A430A434260EF
:101D0000002070BD0321016000207047D0F88000E2
:101D100070470A688260D1E901231A43D1E903318F
:101D20000B43C1681A436FF30B011143C1600020DC
:101D300070470968C0F880100020704710B585B062
:101D400004463720CDE90010402002900020039087
:101D50004FF48060049069462046FFF7DAFF41F2B5
:101D600088323721204600F0E5F905B010BD0000AB
:101D700010B504460A4885B001432920CDE900107A
:101D800040200290002003904FF480600490694648
:101D90002046FFF7BEFF204600F084FA05B010BDD4
:101DA0000000108010B585B004461020CDE9001069
:101DB00040200290002003904FF480600490694618
:101DC0002046FFF7A6FF41F288321021204600F09E
:101DD000B1F905B010BD10B585B004460620CDE9B7
:101DE000001040200290002003904FF48060049087
:101DF00069462046FFF78DFF41F2883206212046D2
:101E000000F098F905B010BD10B585B0044600216A
:101E10002620CDE900104020CDE902010001049008
:101E200069462046FFF775FF4FF2186226212046CB
:101E300000F080F905B010BD30B585B0002405462E
:101E4000009401944FF480600294CDE90340694608
:101E50002846FFF75EFF0B484FF4FA510068B0FBCD
:101E6000F1F041F288314843401E03D24FF0004068
:101E700005B030BD696B0906F6D5C520A8632046BC
:101E8000F6E700001000002010B585B004464FF4BE
:101E9000D57000900820019040200290002003900F
:101EA0004FF48060049069462046FFF732FF2046D9
:101EB00000F05EFA05B010BD10B585B004461220E2
:101EC000CDE9001040200290002003904FF4806084
:101ED000049069462046FFF71CFF41F28832122128
:101EE000204600F027F905B010BD10B585B00446B6
:101EF0001120CDE9001040200290002003904FF403
:101F00008060049069462046FFF703FF41F2883263
:101F10001121204600F00EF905B010BD10B585B0B6
:101F200004462120CDE900104020029000200390BB
:101F30004FF48060049069462046FFF7EAFE41F2C4
:101F400088322121204600F0F5F805B010BD10B50B
:101F500085B004462020CDE90010402002900020EA
:101F600003904FF48060049069462046FFF7D1FE4D
:101F700041F288322021204600F0DCF805B010BD87
:101F800010B585B004460720CDE90020402002901E
:101F9000002003904FF48060049069462046FFF7CC
:101FA000B8FE41F288320721204600F0C3F805B0A0
:101FB00010BD10B585B0044600210220CDE9001007
:101FC000C020CDE902014FF48060049069462046AC
:101FD000FFF79FFE204600F03DF905B010BD10B59B
:101FE00085B004460920CDE90010C02002900020F1
:101FF00003904FF48060049069462046FFF789FE05
:10200000204600F027F905B010BD10B585B0044694
:1020100000213320CDE900104020CDE9020100016C
:10202000049069462046FFF774FE41F2883233215E
:10203000204600F07FF805B010BD10B585B004460D
:102040000D20CDE9001040200290002003904FF4B5
:102050008060049069462046FFF75BFE41F28832BB
:102060000D21204600F066F805B010BD30B585B0F2
:102070000C46054600210320CDE900104020CDE9A3
:1020800002010001049069462846FFF742FE2246FD
:102090000321284600F028F905B030BD10B585B001
:1020A000044600210C20CDE900104020CDE90201BA
:1020B0000001049069462046FFF72BFE034A0C21DD
:1020C000204600F037F805B010BD000000E1F5052E
:1020D00010B585B004461920CDE9001040200290CB
:1020E000002003904FF48060049069462046FFF77B
:1020F00010FE41F288321921204600F01BF805B08D
:1021000010BD10B585B004461820CDE90010402060
:102110000290002003904FF48060049069462046AE
:10212000FFF7F7FD41F288321821204600F002F84F
:1021300005B010BD454B10B51B684FF4FA54B3FB06
:10214000F4F353435B1E02D24FF0004010BD426BCC
:1021500012F0450FF6D01205F4D4426B520703D5A6
:1021600004218163084610BD426BD20702D00121D1
:10217000816305E0C52282630269D2B28A4201D03E
:10218000012010BD0021FFF7A2FD3149084201D115
:10219000002010BD002802DA4FF0007010BD410091
:1021A00001D5402010BD810001D5802010BDC100A7
:1021B00002D54FF4807010BD010102D54FF40070BC
:1021C00010BD410102D54FF4806010BDC10102D5A0
:1021D0004FF4006010BD010202D54FF4805010BDD5
:1021E000410202D54FF4005010BD810202D54FF4D8
:1021F000804010BDC10202D54FF4004010BD410324
:1022000002D54FF4003010BD810302D54FF4802079
:1022100010BDC10302D54FF4002010BD010402D54A
:102220004FF4801010BD410402D54FF4001010BDD2
:10223000810402D54FF4800010BD000702D54FF491
:10224000000010BD4FF4803010BD000010000020D1
:1022500008E0FFFD12494FF4FA520968B1FBF2F1B0
:1022600041F288325143491E02D24FF0004070477C
:10227000426B12F0450FF6D01205F4D4416B4907BA
:1022800003D50421816308467047416BC90703D019
:102290000121816308467047C52181630020704792
:1022A000100000200F494FF4FA520968B1FBF2F117
:1022B00041F288325143491E02D24FF0004070472C
:1022C000426B12F0450FF6D01205F4D4416B49076A
:1022D00003D50421816308467047C521816300202E
:1022E000704700001000002030B5204B4FF4FA5426
:1022F0001B68B3FBF4F341F2883463435B1E02D2E4
:102300004FF0004030BD446B14F0450FF6D024056B
:10231000F4D4436B5B0703D504218163084630BDC9
:10232000436BDB0702D00121816303E00369DBB269
:102330008B4201D0012030BDC52181630021FFF710
:10234000C6FC10F4604F04D0410406D54FF4005091
:1023500030BD000C1080002030BD000402D54FF4C9
:10236000805030BD4FF4803030BD000010000020A0
:1023700014494FF4FA520968B1FBF2F141F2883284
:102380005143491E02D24FF000407047426B12F099
:10239000450FF6D01205F4D4416B490703D504214B
:1023A000816308467047416BC90703D001218163EF
:1023B00008467047416B490601D5402181630020E2
:1023C000704700001000002010B5846BFEF70EF976
:1023D000022828D0206C416DE06B406D012901D0AE
:1023E00001281DD12168104888632068C16B21F441
:1023F0009D71C163A06B40F08040A0632046FFF751
:1024000081F8062801D0052805D12068FFF746FE8F
:10241000A16B0843A063012084F8340000202063EE
:102420002046FEF7A1FF10BDFF05400010B5846BEC
:10243000206B822809D12068FFF730FE28B1A16BFC
:102440000143A1632046FEF78FFF2068C16A21F097
:102450000801C162216840F23A508863012084F883
:102460003400002020632046FFF754FA10BD10B559
:10247000846B40F23A50216888632046FFF742F8A7
:10248000012184F8341000212163062801D0052899
:1024900005D12068FFF702FEA16B0843A063A06B83
:1024A0000028204602D0FEF75FFF10BDFEF76AFE4F
:1024B00010BD806B0068C16B41F48071C1637047CF
:1024C00010B5846B40F23A50216888632046FFF7CC
:1024D00019F8012184F8341000212163062801D065
:1024E000052805D12068FFF7D9FDA16B0843A0633B
:1024F000A06B0028204602D0FEF736FF10BDFEF785
:1025000041FE10BD2DE9F04788B00D460446FEF7A8
:10251000F9FA00268246009601963746082120687F
:10252000FFF740FC002829D1B4F8500001042068CE
:10253000FFF704FC002821D1401E4FF00808CDE928
:10254000020830204FF00209CDE904090120CDE94D
:10255000067002A92068FFF7A4FB2068FFF755FD6D
:1025600000280BD16F462068416B11F02A0F08D06C
:10257000416B09071AD5C0F83880082008B0BDE8BB
:10258000F087416B890205D5FFF7C0FB47F82600AD
:10259000761C02E0416B8904EAD5FEF7B3FAA0EBA2
:1025A0000A00401CDFD14FF00040E7E7416B89078C
:1025B00003D5C0F838900220E0E7416B890603D5C7
:1025C000202181630846D9E740F23A51816301989E
:1025D00000BA2860009800BA68600020CEE710B505
:1025E00090B004460120ADF838002068FFF76BFB7F
:1025F000002854D0606C032842D02068FFF7D9FC33
:1026000000284AD100212068FFF761FB60670421A0
:102610002068FFF75CFBA06708212068FFF757FBE5
:10262000E0670C212068FFF752FBC4F88000606C63
:10263000032825D00EA92068FFF718FD00282CD10B
:10264000606C03281CD0BDF83800206501042068A8
:10265000FFF7C5FC002820D100212068FFF737FBD9
:10266000606604212068FFF732FBA066082120681D
:10267000FFF72DFBE0660C212068FFF728FB2067A1
:1026800004212068FFF723FB000DE06403A9204626
:10269000FEF76CFE30B14FF0805010B010BD4FF01F
:1026A0008060FAE7B4F85000002302042068FFF7C6
:1026B00067FC0028F1D104F1100007C88DE807007D
:1026C00094E80F00FFF70CFB0020E6E72DE9F84F38
:1026D0000026044600963546B0460068FFF7ACFB7E
:1026E000002827D12068FFF7CFFB4FF0805B4FF029
:1026F00001094FF6FF7748B1A6642068FFF79CFBFD
:10270000002817D1A06C012802D020E0C4F848901E
:1027100000212068FFF712FB58B918E0002120685B
:10272000FFF70CFB002805D151462068FFF720FB7E
:1027300010B15846BDE8F88F00212068FFF7C7FAAE
:1027400005464FEAD0780098401C009002E0DFF880
:102750002CA00098B84202D2B8F1000FDED0009849
:10276000B84202D34FF08070E4E7680002D5C4F8A5
:10277000449000E066640020DCE70000000010C127
:1027800010B51A4C0020C11C44F82010401C8028B1
:10279000F9D301210020FDF789FD00BFFDF792FD6F
:1027A0000028FBD1012200211048FDF76DFE00BF7B
:1027B000FDF788FD0028FBD1012200210C48FDF720
:1027C00053FE00BFFDF77EFD0028FBD1084900BF86
:1027D00054F8202051F820309A4201D0002010BD3A
:1027E000401C8028F4D3012010BD000018000020F8
:1027F000180200207047FEF78BB9000030B593B087
:1028000030216846FDF714FD14210CA8FDF710FDDA
:102810001E480025016841F080510160006800F009
:10282000805011901A48016841F4804101600068AD
:10283000022400F4804011900120009000040190D7
:102840008001CDE90640082008904FF4A870CDE93A
:10285000090407200B906846FEF7DEFA08B172B64D
:10286000FEE70CA90F2081E831004FF4A0500F9033
:102870004FF48050109005210CA8FEF7E3F90028D2
:1028800001D072B6FEE713B030BD00004038024000
:10289000007000400248016841F470010160704717
:1028A00088ED00E070B5044600680169E26821F433
:1028B0004051114301612169A068E26908436169DF
:1028C000114308432168CA6849F20C639A430243E2
:1028D000CA6020684169A26921F4407111434161D5
:1028E00031492068884202D03049884202D1FEF73F
:1028F00053FA01E0FEF740FAE2690023192164254A
:102900003226B2F5004F626828D0A0FB0101930F78
:102910009200FDF755FC0146B0FBF5F06FF0180290
:10292000504301EB800006EB0010B0FBF5F000F027
:10293000F002B1FBF5F002EB0012B1FBF5F06FF025
:102940001803584301EB800006EB0010B0FBF5F0D4
:1029500000F00F0021681044886070BDA0FB0101E9
:1029600092185B41FDF72CFC0146B0FBF5F002012B
:10297000B1FBF5F06FF01803584301EB800006EB54
:10298000C000B0FBF5F000F0F80002EB4002B1FB34
:10299000F5F0584301EB800006EBC000B0FBF5F00A
:1029A00000F00700D6E700000010014000140140CD
:1029B0002DE9F041984617460E460446069D27E04D
:1029C000681C25D02DB1FEF79DF8A0EB0800A842A9
:1029D0001ED920680C3050E8001F21F4D07140E867
:1029E0000012002AF5D12068143050E8001F21F0B1
:1029F000010140E80012002AF5D1202084F83D00B2
:102A000084F83E00002084F83C000320BDE8F081FB
:102A10002068006836EA000004D00020B842CFD019
:102A20000020F3E70120F9E70848074901604FF467
:102A3000E1314160002181600822C160C0E90412D7
:102A40008161C161FFF712B8001001401804002035
:102A5000FEE70000014A024900F023B8C52A000839
:102A6000140000200907090E002804DB00F1E02013
:102A700080F80014704700F00F0000F1E02080F8AB
:102A8000141D704702E008C8121F08C1002AFAD1BD
:102A900070477047002001E001C1121F002AFBD1DE
:102AA00070472DE9F04116460F460446002503E025
:102AB0003946B047641C6D1C20780028F8D12846A0
:102AC000BDE8F08113B56423012269460248FFF78F
:102AD00043F800981CBD000018040020FEF720F801
:102AE000FFF78CFEFFF7B2F8FFF790F8FFF79CFFB7
:102AF000FDF7F4FB0D49087008B10DA007E011A027
:102B0000FFF7A8FFFFF73CFE01280DD012A0FFF74A
:102B1000A1FF174D4FF4005421462846FDF7E4FF6E
:102B20009620FDF7D7FEF7E712A0F0E7000000209F
:102B30000D0A20BCECB2E2B2BBB5BD5344BFA82025
:102B40000D0A00005344BFA8B3F5CABCBBAFB3C95C
:102B5000B9A6200D0A000000B6C1D0B4CAA7B0DCE7
:102B6000A3ACC7EBB8FCBBBB5344BFA8200D0A0005
:102B7000000802405344BFA820426C6F636B20B62C
:102B8000C1D0B4B3C9B9A6200D0A000000061016C2
:102B900000061016000000000000000001020304FF
:102BA000060708090000000001020304CC2B0008FE
:102BB0000000002018000000842A0008E42B000810
:102BC0001800002088090000942A00080000000076
:102BD0000100000010000000000000000024F400CC
:042BE00000000000F1
:040000050800018965
:00000001FF
