:020000040800F2
:10000000180900209D010008110B0008970A00083C
:100010000D0B000885020008AD200008000000005C
:10002000000000000000000000000000CD1D0008DE
:10003000A907000800000000A10B0008BD1E000871
:10004000B7010008B7010008B7010008B7010008B0
:10005000B7010008B7010008B7010008B7010008A0
:10006000B7010008B7010008B7010008B701000890
:10007000B7010008B7010008B7010008B701000880
:10008000B7010008B7010008B7010008B701000870
:10009000B7010008B7010008B7010008B701000860
:1000A000B7010008B7010008B7010008B701000850
:1000B000B7010008B7010008B7010008B701000840
:1000C000B7010008B7010008B7010008B701000830
:1000D000B7010008B7010008B7010008B701000820
:1000E000B7010008B7010008B7010008B701000810
:1000F000B7010008B7010008B7010008B701000800
:10010000B7010008E90E0008B7010008B7010008B0
:10011000B7010008B7010008B7010008B7010008DF
:10012000B7010008B7010008B7010008550500082D
:10013000B7010008B7010008B7010008B7010008BF
:10014000B7010008B7010008B7010008B7010008AF
:10015000B7010008B7010008B7010008B70100089F
:10016000B7010008B7010008B7010008B70100088F
:10017000B7010008B7010008B7010008B70100087F
:10018000B7010008B7010008DFF80CD000F068F8EC
:1001900000480047692100081809002006488047E8
:1001A00006480047FEE7FEE7FEE7FEE7FEE7FEE75C
:1001B000FEE7FEE7FEE7FEE7C51E0008890100082E
:1001C0002DE9F05F0546002092469B46884606468C
:1001D000814640241BE0284641464746224600F01F
:1001E0002FF853465A46C01A914110D3114618466B
:1001F000224600F016F82D1A67EB01084F462246FA
:100200000120002100F00DF817EB00094E41201EDF
:10021000A4F10104DFDC484631462A464346BDE8E6
:10022000F09F202A04DB203A00FA02F100207047F8
:100230009140C2F1200320FA03F319439040704724
:10024000202A04DB203A21FA02F00021704721FA2B
:1002500002F3D040C2F12002914008431946704792
:10026000064C074D06E0E06840F0010394E8070003
:1002700098471034AC42F6D3FFF78AFF20220008DB
:100280004022000800BFFEE770B500254FF480341F
:1002900000E0641E24B1802000F0FAFD0028F8D0B0
:1002A00014B90325284670BD40F2FF5000F0ACFDA4
:1002B0002846F8E72DE9F04106460027484805683A
:1002C00001E04748056805F045000028F9D005F031
:1002D000040030B10327042000F096FD3846BDE845
:1002E000F08105F0010028B10127012000F08CFD0C
:1002F0003846F4E700F0C6FDB04202D01027384679
:10030000EDE740F2FF5000F07FFD002000F0E0FD3F
:1003100004463448204008B93846E0E704F000407D
:1003200008B11C20DBE704F0804008B10920D6E7C3
:1003300004F0005008B10A20D1E704F0805008B161
:100340000B20CCE704F0006008B10C20C7E704F0F4
:10035000806008B10D20C2E704F0807008B10E2063
:10036000BDE704F4000008B10F20B8E704F48000F2
:1003700008B11020B3E704F4001008B11120AEE773
:1003800004F4801008B11220A9E704F4002008B199
:100390001320A4E704F4802008B114209FE704F49C
:1003A000003008B115209AE704F4803008B1162017
:1003B00095E704F4004008B1172090E704F480406A
:1003C00008B118208BE704F4005008B1192086E723
:1003D00004F0080008B11A2081E738467FE70000E2
:1003E000342C014008E0FFFD70B50025104804687A
:1003F00001E00F48046804F045000028F9D004F03B
:10040000040028B10325042000F0FEFC284670BD3E
:1004100004F0010028B10125012000F0F5FC284678
:10042000F5E740F2FF5000F0EFFC2846EFE7000050
:10043000342C014070B500250B48046801E00A48DF
:10044000046804F045000028F9D004F0040028B145
:100450000325042000F0D8FC284670BD40F2FF5070
:1004600000F0D2FC2846F8E7342C01402DE9F04199
:1004700006460F464FF000082248056801E0214873
:10048000056805F045000028F9D005F0040038B1F2
:100490004FF00308042000F0B7FC4046BDE8F081AF
:1004A00005F0010030B14FF00108012000F0ACFC74
:1004B0004046F3E700F0E6FCB04203D04FF01008EE
:1004C0004046EBE740F2FF5000F09EFC002000F0B9
:1004D000FFFC044604F4604018B9200C3880404604
:1004E000DCE704F4005008B11320D7E704F480409F
:1004F00008B11020D2E704F4004008B10F20CDE786
:100500004046CBE7342C014070B500264FF48035CF
:100510000F48046802E06D1E0D48046804F04500B1
:1005200008B9002DF7D115B104F0040028B1032655
:10053000042000F069FC304670BD04F0400028B192
:100540000026402000F060FC3046F5E73046F3E737
:10055000342C014010B501F0C3F910BD0246094B1F
:100560009A4201D2084801E00648103801F00053D1
:100570001BB1064B0B40C36002E0044B0B40836091
:100580007047000010640240006002407D0F7D0F44
:1005900021B1026842F00102026003E0026822F029
:1005A0000102026070470000016821F00101016052
:1005B0000021016041608160C160016121214161D0
:1005C0004A49884204D13D21484A103A91608CE062
:1005D00046491831884205D14FF47461434A103AB4
:1005E000916082E041493031884205D14FF4741165
:1005F0003E4A103A916078E03C494831884205D142
:100600004FF07461394A103A91606EE037496031B9
:10061000884204D13649354A103AD16065E0334901
:100620007831884204D13349304A103AD1605CE0D5
:100630002E499031884204D12F492C4A103AD1607A
:1006400053E02A49A831884205D14FF03D51274A4D
:10065000103AD16049E02949884204D13D21274A16
:10066000083A116041E025491831884205D14FF41C
:100670007461224A083A116037E0204930318842DB
:1006800005D14FF474111D4A083A11602DE01B4941
:100690004831884205D14FF07461184A083A116018
:1006A00023E016496031884204D11149134A121FD0
:1006B00011601AE011497831884204D10D490F4A7E
:1006C000121F116011E00D499031884204D10A498E
:1006D0000A4A121F116008E00849A831884204D173
:1006E0004FF03D51054A121F1160704710600240E3
:1006F0003D000020400F002000003D20106402401B
:1007000021B1026842F02002026003E0026822F098
:1007100020020260704710B501F080034BB122B196
:10072000436943F08003436103E0436923F080039E
:10073000436180290BD02AB1036801F01E042343D2
:10074000036004E0036801F01E04A343036010BDCE
:1007500010B500220268134B1A40CC680B68234383
:100760004C6923438C692343CC6923430C6A23439C
:100770004C6A23438C6A23434C6B23438C6B234387
:100780001A430260426922F00702D1E90B34234385
:100790001A4342610B6943604B6883608B68C36096
:1007A00010BD00003F801CF07047000030B51448B9
:1007B00000684FF47A72B0FBF2F1481EB0F1807F0E
:1007C00000D31BE0481E4FF0E022506150170F226B
:1007D000002807DA13071D0E0A4B00F00F04241F30
:1007E0001D5503E013071C0E074B1C5400BF0020CF
:1007F0004FF0E02290610720106100BF30BD000083
:100800002000002018ED00E000E400E0034908604B
:1008100000BF024909680029FBD17047040000208D
:100820002DE9FC4107460D460026002400200090DB
:10083000019008205B4908601020486040208860D3
:100840000020C8604FF480600861084600F07EFB1D
:100850001020FFF72FFD044614B12046BDE8FC81AF
:100860005148008800044F49086037204860402004
:1008700088600020C8604FF480600861084600F07E
:1008800065FB3720FFF716FD04460CB12046E5E76F
:100890004FF0FF30454908600820486030208860EC
:1008A0000220C8600020086101204861084600F06D
:1008B000C3FA00203B49086033204860402088602C
:1008C0000020C8604FF480600861084600F03EFBDD
:1008D0003320FFF7EFFC04460CB12046BEE709E0E9
:1008E0004FF4001000F0D4FA20B100F029FB4DF8CD
:1008F0002600761C2E48006840F22A610840002835
:10090000EED0082000F0C4FA28B1082000F07CFAEC
:1009100004242046A2E7022000F0BAFA28B10220FF
:1009200000F072FA0224204698E7202000F0B0FA86
:1009300028B1202000F068FA062420468EE74FF404
:10094000007000F0A5FA30B14FF4007000F05CFACE
:100950000724204682E740F2FF5000F055FA009845
:100960000006009901F47F4140EA0120009901F45A
:100970007F0140EA1120009940EA11606860019807
:100980000006019901F47F4140EA0120019901F438
:100990007F0140EA1120019940EA11602860204659
:1009A0005CE70000E80400200C000020FC040020AC
:1009B000342C0140F0B50A4600210023002400BF7A
:1009C0003DE0012505FA01F3156805EA03049C42A0
:1009D00034D105684F000326BE40B5430560157944
:1009E0004E00B5400668354305601579012D02D0EB
:1009F0001579022D16D185684F000326BE40B543F8
:100A0000856055794E00B5408668354385604568F8
:100A100001268E40B5434560456896798E40B6B252
:100A200035434560C5684F000326BE40B543C560E9
:100A3000D5794E00B540C6683543C560491C1029BC
:100A4000BFD3F0BDF0B5002300244D07ED0E02FA30
:100A500005F3CE1000F1200555F826504E07F70E8D
:100A60000F26BE40B543CF1000F1200646F82750B0
:100A7000CE1000F1200555F8265045EA0304CE10AB
:100A800000F1200545F82640F0BD418370474269DA
:100A90004A404261704700BFFEE700001CB50121DB
:100AA000084600F07FF800208DF8040001208DF842
:100AB000070000208DF805004FF4004000906946C3
:100AC0000148FFF777FF1CBD000002401CB5012163
:100AD000042000F067F801208DF8040000208DF854
:100AE000060001208DF8070000208DF805004FF466
:100AF0000050009069460448FFF75CFF4FF4005136
:100B00000148FFF7C2FF1CBD0008024000BFFEE71E
:100B10007047000070B5002100230F22C4781CB379
:100B2000174C246804F4E064C4F5E064C4F30721BE
:100B3000C1F10404E3B20A4144789C40E1B28478F4
:100B4000144021430C07210E0E4C057861550478A2
:100B500004F01F050124AC4005786D11AD0005F1CE
:100B6000E025C5F8004109E0047804F01F050124E0
:100B7000AC40054D0678761145F8264070BD000062
:100B80000CED00E000E400E080E100E002490143F8
:100B9000024A1160704700000000FA050CED00E009
:100BA0007047000029B1064A12680243044B1A60DC
:100BB00004E0034A12688243014B1A607047000048
:100BC0003038024029B1064A12680243044B1A60C9
:100BD00004E0034A12688243014B1A607047000028
:100BE0004438024029B1064A12680243044B1A6095
:100BF00004E0034A12688243014B1A607047000008
:100C000024380240F0B500210022002402250026ED
:100C10000223324F3F6807F00C0121B1042905D0AF
:100C2000082937D105E02E4F076036E02D4F0760C9
:100C300033E02A4F3F1F3F68C7F38056274F3F1FBF
:100C40003F6807F03F036EB1264FB7FBF3F7DFF8BD
:100C50008CC0ACF1040CDCF800C0CCF3881C07FBA2
:100C60000CF40CE01E4FB7FBF3F7DFF870C0ACF1EB
:100C7000040CDCF800C0CCF3881C07FB0CF4174F05
:100C80003F1F3F68C7F301477F1C7D00B4FBF5F7AA
:100C9000076002E0124F076000BF00BF0F4F3F68C0
:100CA00007F0F0010909104F7A5C0768D7404760E8
:100CB0000A4F3F6807F4E051890A0B4F7A5C476896
:100CC000D7408760054F3F6807F46041490B064FE6
:100CD0007A5C4768D740C760F0BD00000838024022
:100CE0000024F40000127A00340000207CB5054690
:100CF000002400200090019000F0EAF800F000705D
:100D000010B10E2420467CBD3D49098888B2694651
:100D1000FFF786FD04460CB12046F4E7012D36D1DD
:100D2000019800F4802000282ED035480088000467
:100D30003449086037204860402088600020C8603F
:100D4000A8020861084600F001F93720FFF7B2FA5F
:100D500004460CB12046D6E702202A490860062046
:100D60004860402088600020C8604FF480600861BF
:100D7000084600F0EBF80620FFF79CFA04460CB199
:100D80002046C0E72046BEE725242046BBE7019861
:100D900000F4803078B31A480088000419490860CC
:100DA00037204860402088600020C8604FF4806091
:100DB0000861084600F0CAF83720FFF77BFA0446BE
:100DC0000CB120469FE700200E49086006204860CD
:100DD000402088600020C8604FF4806008610846A9
:100DE00000F0B4F80620FFF765FA04460CB120467F
:100DF00089E7204687E7FFE72524204683E70000B0
:100E00000C000020E8040020014908607047000041
:100E1000382C01400149086070470000382C01401F
:100E20000149086070470000A08025420149086020
:100E3000704700008C85254200210B4B02681A6028
:100E40001B1D42681A601A1D116821F0F701D0E9D4
:100E500002231A4303691A4343691A431143024A9E
:100E60000832116070470000242C014010B50121A8
:100E7000C802FFF7B7FE00214FF40060FFF7B2FE93
:100E800010BD000001480068C0B27047102C01403E
:100E900001460020034A12680A400AB1012000E01E
:100EA00000207047342C014001460020034A12689C
:100EB0000A400AB1012000E000207047342C0140B4
:100EC0000248006800F0030070470000002C014059
:100ED00008B50146002000900248084400900098A0
:100EE000006808BD142C014010B500F00DFD10BDC8
:100EF00029B1064A12680243044B1A6004E0034A0F
:100F000012688243014B1A60704700003C2C01407C
:100F100000210A4A116847F6FF629143027D836807
:100F20001A4343681A43C3681A4303681A430369A0
:100F30001A431143014A116070470000042C01401C
:100F40000148006870470000802C01400021094BD7
:100F500002681A601A1D11686FF30A01D0E90123B3
:100F60001A43C3681A4303691A431143014A121D05
:100F700011607047082C014001490860704700006B
:100F8000002C014008B5012000909DF8000008BD2C
:100F900070B50446002520480068032802D12725A3
:100FA000284670BD1C48006838B11B4800680128FD
:100FB00003D01948006802282CD1B4F5805F02D113
:100FC00027252846EDE7B4F5006F13D10120FFF780
:100FD0008DFE0546F5B90020104908750860486087
:100FE00088604FF40060C860002008610846FFF781
:100FF0008FFF0FE00020FFF779FE054655B900206E
:1010000006490875086048608860C860086108463D
:10101000FFF77EFF2846C4E708000020D004002028
:10102000F0B5014600200022C04B1B7881F85630F5
:10103000BF4B1B88A1F85430BE4B1B681A0E930996
:101040000B70C2F383034B7002F003038B70B94B38
:101050001B68C3F30742CA70B64B1B88C3F3072251
:101060000A71B44B1A784A715B681A0E1301CB806F
:10107000B04B5B68C3F30742CB8843EA1213CB80C3
:1010800002F00F030B72AB4B9B88C3F30722D3090B
:101090004B72C2F380138B72C2F34013CB72C2F354
:1010A00000130B7300234B73A04B1B681BB19F4BAA
:1010B0001B68012B4FD193071B0D0B619D4B1A79B8
:1010C0000B6943EA82030B619A4B9B681A0E0B690A
:1010D00043EA92130B61C2F3C2030B7502F00703DC
:1010E0004B75944B9B68C3F3074253098B75C2F34E
:1010F0008203CB7593075B0F0B768E4B1B89C3F373
:1011000007220B7E43EAD2130B760B695B1C00248B
:10111000C1E912340B7ED1E912469B1C012505FA68
:1011200003F3DF17A4FB035C06FB03C304FB0733D5
:10113000C1E912530C7A0123A3400B650027D1E9C2
:1011400012560B6DA5FB034C06FB03C305FB0733CF
:10115000C1E9124336E0754B1B68022B32D1754B47
:101160001A7993069B0A0B61724B9B681A0E0B69E6
:1011700043EA02230B616F4B9B68C3F307420B6981
:1011800013430B616B4B1B89C3F307220B690024CC
:101190005B1C44EB04074FF400760025A3FB064CD0
:1011A00007FB06C603FB05664FF480650027A4FB1A
:1011B000053C06FB05C504FB0754C1E912344FF496
:1011C00000730B65C2F3801301F8193F93065B0EA1
:1011D0004B70584B1A7A4B7843EAD2134B7002F09B
:1011E0007F038B70534BDB681A0ED309CB70C2F3AD
:1011F00041130B71C2F382034B7193071B0F8B7169
:101200004C4BDB68C3F307428B7943EA92138B7133
:10121000C2F34013CB7100230B7202F001034B7237
:10122000444B9B89C3F30722D3098B72C2F380130B
:10123000CB72C2F340130B73C2F300134B73C2F3B0
:1012400081038B7302F00303CB733A4B1A7B530871
:101250000B7401234B74384B1B681A0ECA7419396E
:10126000354B1B68C3F307421402CC85324B1B88F5
:10127000C3F30722CB8D1343CB852F4B1A7814066B
:101280000C635B681A0E0B6B43EA02440C632A4B37
:101290005B68C3F307420B6B43EA02240C63264BE3
:1012A0009B88C3F307220B6B13430B63224B1A7902
:1012B00034235A54204B9B681A0E35235A541E4B24
:1012C0009B68C3F3074214068C631B4B1B89C3F353
:1012D00007228B6B43EA02448C63174B1A7A8B6BA1
:1012E00043EA02248C63144BDB681A0E8B6B1343A6
:1012F0008B63114BDB68C3F307423C235B5C43EA1F
:1013000012143C235C5413071C0DCC870A4B9B8999
:10131000C3F30722CB8F1343CB87074B1A7B5408A9
:1013200040235C54012441235C54F0BD080000209C
:101330000C000020480400205804002008B50020BC
:101340000090FFF71FFE012809D1684600F0C6FB98
:1013500008B1FF2008BD0098C0F34320FAE7FF2042
:10136000F8E710B50424FFF7E9FF0446042C01D187
:10137000002010BDFF2C01D10220FAE70120F8E780
:101380001CB5002001904FF4A060FFF7FFFB312057
:101390008DF8000001208DF8010000208DF802007A
:1013A00001208DF803006846FFF7B4FB3B208DF861
:1013B000000001208DF801006846FFF7ABFB00F04C
:1013C0006DF9FFF753FD00F0BBF901909DF80400A3
:1013D00010B19DF804001CBD00F032F801909DF89A
:1013E000040010B19DF80400F5E7002012490875CB
:1013F000086048608860C86008610846FFF788FD9B
:101400000E48FFF70DFE01909DF8040040B90B480F
:10141000B0F8540002041046002100F043FB019094
:101420009DF8040020B94FF40060FFF7B1FD019072
:101430009DF80400CFE70000D004002078040020CD
:1014400038B5002401200090FFF73AFD10B925249B
:10145000204638BD44480068042828D0002043496D
:10146000086002204860C02088600020C8604FF4F7
:10147000806008610846FFF769FDFEF7B5FF044686
:101480000CB12046E5E70020FFF722FD384908604F
:101490000420FFF71DFD364948600820FFF718FDBE
:1014A000334988600C20FFF713FD3149C8602E488E
:1014B000006858B12C480068012807D02A48006805
:1014C000062803D028480068022816D100202749A2
:1014D000086003204860402088600020C8604FF406
:1014E000806008610846FFF731FD69460320FEF77A
:1014F000BDFF04460CB12046ABE71B48006804283A
:101500002ED0BDF800001B490860BDF800000004A3
:101510001649086009204860C02088600020C86023
:101520004FF4806008610846FFF710FDFEF75CFF8E
:1015300004460CB120468CE70020FFF7C9FC0E4999
:1015400008600420FFF7C4FC0B4948600820FFF73F
:10155000BFFC094988600C20FFF7BAFC0649C86047
:101560000024204675E7000008000020E804002061
:10157000580400200C0000204804002030B58FB033
:1015800004460D464FF0FA511E48FEF7E7FF0021D2
:101590001C48FEF7FDFF1B48FFF706F84FF0006000
:1015A00000901948019002940020039001200490BB
:1015B000002005904FF48060069080000790800026
:1015C0000890002009904FF440300A9004200B90BE
:1015D00003200C904FF400000D9080100E9069468F
:1015E0000848FFF7B5F8012210210648FFF793F8E5
:1015F00020210448FFF784F801210248FEF7C8FFC4
:101600000FB030BD58640240802C014030B58FB01F
:1016100004460D464FF0FA511E48FEF79FFF002189
:101620001C48FEF7B5FF1B48FEF7BEFF4FF00060F9
:1016300000901948019002944020039001200490EA
:10164000002005904FF48060069080000790800095
:101650000890002009904FF440300A9004200B902D
:1016600003200C904FF400000D9080100E906946FE
:101670000848FFF76DF8012210210648FFF74BF8E4
:1016800020210448FFF73CF801210248FEF780FFC3
:101690000FB030BD58640240802C01401CB50121C0
:1016A0000C20FFF77FFA0C2208212348FFF7CAF924
:1016B0000C2209212048FFF7C5F90C220A211E48F7
:1016C000FFF7C0F90C220B211B48FFF7BBF90C22D6
:1016D00011461948FFF7B6F90C2202211748FFF707
:1016E000B1F94FF47060009002208DF805008DF87C
:1016F000040000208DF8060001208DF807006946DF
:101700000D48FFF757F90420009069460B48FFF792
:1017100051F94FF48050009000208DF80700694681
:101720000548FFF747F90121C802FFF74BFA0121ED
:101730008805FFF737FA1CBD00080240000C024084
:10174000F8B5002000900025002400260027762010
:101750005F4908750020086048608860C8600861BB
:101760000846FFF7D5FB0320FFF706FC0120FFF733
:1017700057FB00205749086048608860C8604FF4F4
:10178000806008610846FFF7E1FBFEF77DFD0090F1
:101790009DF8000010B19DF80000F8BD4FF4D57021
:1017A0004C49086008204860402088600020C860DC
:1017B0004FF4806008610846FFF7C8FBFEF7A4FEFF
:1017C00000909DF8000020B9012043490860870778
:1017D00012E000203F4908603720486040208860C0
:1017E0000020C8604FF4806008610846FFF7AEFB38
:1017F0003720FEF75FFD0090002036490860372053
:101800004860402088600020C8604FF48060086114
:101810000846FFF79BFB3720FEF74CFD00909DF834
:101820000000002851D13BE000202A490860372001
:101830004860402088600020C8604FF480600861E4
:101840000846FFF783FB3720FEF734FD00909DF834
:10185000000010B19DF800009FE7204838431D4963
:10186000086029204860402088600020C8604FF44C
:10187000806008610846FFF769FBFEF7DBFD00901A
:101880009DF8000010B19DF8000086E70020FFF7EA
:101890001FFB0546012080EAD57080F00106641C1C
:1018A0001EB94FF6FF708442BED34FF6FF708442DC
:1018B00004D31B2000909DF800006EE705F08040E7
:1018C000051E02D00220044908609DF8000064E76C
:1018D000D0040020E8040020080000200000108050
:1018E00010B50748006800F0C05040B1012005491C
:1018F00008604FF0C25102485830FEF72FFE10BD6D
:10190000006402401C00002010B54FF48070FFF707
:10191000CBFA50B10020254908704FF48070FFF7D2
:1019200079FA01202249086037E00220FFF7BCFA6B
:1019300030B10220FFF76EFA02201C4908702CE03B
:101940000820FFF7B1FA30B10820FFF763FA04204E
:101950001649087021E02020FFF7A6FA30B12020B8
:10196000FFF758FA06201149087016E01020FFF71B
:101970009BFA30B11020FFF74DFA05200B49087093
:101980000BE04FF40070FFF78FFA30B14FF40070A6
:10199000FFF740FA07200549087000214CF23A3061
:1019A000FFF7A6FA0148007810BD000014000020DF
:1019B000180000202DE9F041804614461D46069E81
:1019C000002700203049087030490860304908601D
:1019D00030490860012140F22A30FFF789FA0120DE
:1019E000FFF724FA31464046FFF7C8FD2A48006851
:1019F000022808D106020202002320462946FEF7EB
:101A0000DFFB04460D462548066010202349486048
:101A1000402088600020C8604FF48060086108465C
:101A2000FFF794FA1020FEF745FC074617B1384639
:101A3000BDE8F0814FF0FF30194908600846466064
:101A4000902088600220C860002008610120486161
:101A50000846FFF7F1F91148046011200F4948606A
:101A6000402088600020C8604FF48060086108460C
:101A7000FFF76CFA1120FEF71DFC07460FB1384640
:101A8000D6E73846D4E700001400002018000020F4
:101A9000100000202C2C014008000020E804002049
:101AA000FC04002070B504460D4600260A48046078
:101AB000072009494860402088600020C8604FF432
:101AC000806008610846FFF741FA0720FEF7F2FB45
:101AD0000646304670BD0000E804002070B504469C
:101AE000002514B92625284670BD0F48008800043B
:101AF0000E4908600D204860402088600020C860C2
:101B00004FF4806008610846FFF720FA0D20FEF7C9
:101B1000D1FB05460DB12846E6E70020FFF7D8F9CE
:101B200020602846E0E700000C000020E8040020C8
:101B300010B5002400200A4908600C2048604020AD
:101B400088600020C8604FF4806008610846FFF795
:101B5000FDF90C20FEF7AEFB0446204610BD000048
:101B6000E804002038B5002400BF03E01A490C55F2
:101B7000601C84B2B4F5007FF8DB4FF400700022E3
:101B800013460090144800F0ABF800F069F800BF6D
:101B9000FFF7E7FB0028FBD14FF40070002213464B
:101BA00000900E48FFF706FF00F01AF800BFFFF79D
:101BB000D8FB0028FBD1002409E00748005D074955
:101BC000095D884201D0002038BD601C84B2B4F5A4
:101BD000007FF2DB0120F7E74800002048020020E8
:101BE00070B500256C1E00E0641E1848006838B906
:101BF0001748006820B91748007808B9002CF3D1BD
:101C0000002012490860441E00E0641E124800686B
:101C100000F4005008B1002CF7D1104800680128EA
:101C200005D1FFF785FF054600200C4908600CB977
:101C300005B9042540F2FF50FFF7E6F805480078A3
:101C400010B10448007870BD2846FCE71C00002055
:101C50001800002014000020342C01401000002047
:101C600070B500256C1E00E0641E1848006838B985
:101C70001748006820B91748007808B9002CF3D13C
:101C8000002012490860441E00E0641E12480068EB
:101C900000F4805008B1002CF7D1104800680128EA
:101CA00005D1FFF745FF054600200C4908600CB937
:101CB00005B9042540F2FF50FFF7A6F80548007863
:101CC00010B10448007870BD2846FCE71C000020D5
:101CD0001800002014000020342C014010000020C7
:101CE0002DE9F041804614461D46069E002700203F
:101CF0002F4908702F4908602F4908602F49086054
:101D0000012140F22A30FFF7F3F831464046FFF751
:101D10007DFC0120FFF78AF829480068022808D1D5
:101D200006020202002320462946FEF749FA04462D
:101D30000D462448066010202249486040208860F3
:101D40000020C8604FF4806008610846FFF7FEF885
:101D50001020FEF7AFFA074617B13846BDE8F0810C
:101D60001848046018201749486040208860002007
:101D7000C8604FF4806008610846FFF7E7F8182054
:101D8000FEF798FA07460FB13846E7E74FF0FF3005
:101D90000D49086008464660902088600020C860B1
:101DA0000861012048610846FFF746F83846D5E744
:101DB0001400002018000020100000202C2C0140EE
:101DC00008000020E8040020FC0400207047000008
:101DD0000CB50020019000903448006840F4803039
:101DE0003249086000BF3148006800F400300090BC
:101DF0000198401C0190009818B90198B0F5A04FC7
:101E0000F1D12A48006800F4003010B101200090A0
:101E100001E0002000900098012846D1234840307E
:101E2000006840F080502149403108602048006837
:101E300040F440401E4908601C48083000681B49B7
:101E4000083108600846006840F400400860084611
:101E5000006840F4A05008601648091F0860081F79
:101E6000006840F08070091F086000BF0F480068DC
:101E700000F000700028F9D040F205700E490860AB
:101E80000A480830006820F003000849083108605B
:101E90000846006840F00200086000BF03480830B0
:101EA000006800F00C000828F8D10CBD0038024092
:101EB0000070004008544007003C024010B500F09C
:101EC00035F810BD10B51548006840F4700013498E
:101ED00008601348006840F00100114908600020C4
:101EE0000F49083108600E4800680E4908400C4947
:101EF00008600D48091D0860081F006820F4802054
:101F0000091F0860002006490C310860FFF760FFD8
:101F10004FF0006001498039086010BD88ED00E095
:101F200000380240FFFFF6FE10300024044800682D
:101F300020B103480068401E014908607047000056
:101F40000400002021B1828942F40052828104E021
:101F500082894DF6FF731A40828170471CB50121BA
:101F60000846FEF71FFE02208DF8040000208DF8C1
:101F7000060001208DF8070000208DF805004FF4C1
:101F80000070009069460A48FEF714FD4FF4806027
:101F9000009069460648FEF70DFD07220921044816
:101FA000FEF750FD07220A210148FEF74BFD1CBD3C
:101FB0000000024002460020B1F5007F00D100BFC2
:101FC00013880B400BB1012000E000207047000097
:101FD0002DE9FF4705460E460024A14600BFA04656
:101FE000B08900B100BF2C8A24F44054F088044327
:101FF0002C82AC8941F20C608443B088318908435B
:10200000718908430443AC81AC8A24F44074B089DC
:102010000443AC826846FEF7F5FD2048854202D0B5
:102020001F48854202D1DDF80C9001E0DDF80890F0
:10203000A88900F4004040B109EBC90000EB091089
:1020400031684900B0FBF1F707E009EBC90000EB8C
:10205000091031688900B0FBF1F76420B7FBF0F09C
:1020600004012009642101FB1078A88900F40040D4
:1020700040B1322000EBC800B0FBF1F000F00700E7
:10208000044308E0322000EB08106421B0FBF1F0BB
:1020900000F00F0004432C81BDE8FF8700100140D1
:1020A00000140140C1F308028280704700BFFEE7C0
:1020B0001FB501211020FEF785FDFFF74FFF4FF4FC
:1020C000E13000900020ADF80400ADF80600ADF856
:1020D00008000C20ADF80A000020ADF80C0069469D
:1020E0000348FFF775FF01210148FFF72BFF1FBDD4
:1020F00000100140014A024900F013B845210008D0
:102100004400002002E008C8121F08C1002AFAD1CA
:1021100070477047002001E001C1121F002AFBD167
:1021200070472DE9F04116460F460446002503E0AE
:102130003946B047641C6D1C20780028F8D1284629
:10214000BDE8F08170B504460D46E1B20548FFF7E1
:10215000A9FF00BF80210348FFF72CFF0028F9D01A
:10216000204670BD00100140FEF720FBFEF7AEFCDC
:10217000FEF794FCFFF79CFFFFF702F91049087087
:102180000846007870B90FA0FFF7B4FFFFF7EAFC2C
:10219000012803D110A0FFF7ADFF06E014A0FFF760
:1021A000A9FF02E018A0FFF7A5FF07E04FF40051D8
:1021B0001A48FEF76CFC6420FEF728FBF6E70000E7
:1021C000000000205344BFA8B3F5CABCBBAFB3C9DD
:1021D000B9A6200D0A0000005344BFA820426C6F2E
:1021E000636B20B6C1D0B4B3C9B9A6200D0A0000F4
:1021F000B6C1D0B4CAA7B0DCA3ACC7EBB8FCBBBBBC
:102200005344BFA8200D0A000D0A20BCECB2E2B274
:10221000BBB5BD5344BFA8200D0A00000008024012
:1022200040220008000000204800000004210008AF
:102230008822000848000020D0080000142100086F
:10224000000000000000000000000000000000008E
:10225000000000000000000000000000000000007E
:10226000007A030A000000000000000001020304DD
:10227000060708090000000001020304010203042C
:08228000060708090000000038
:040000050800018965
:00000001FF
