:020000040800F2
:10000000080A00209D010008D70C0008910B000889
:10001000D50C0008FF020008FD10000800000000D9
:10002000000000000000000000000000691000084F
:100030000103000800000000671000086B100008B2
:10004000B7010008B7010008B7010008B7010008B0
:10005000B7010008B7010008B7010008B7010008A0
:10006000B7010008B7010008B7010008B701000890
:10007000B7010008B7010008B7010008B701000880
:10008000B7010008B7010008B7010008B701000870
:10009000B7010008B7010008B7010008B701000860
:1000A000B7010008B7010008B7010008B701000850
:1000B000B7010008B7010008B7010008B701000840
:1000C000B7010008B7010008B7010008B701000830
:1000D000B7010008B7010008B7010008B701000820
:1000E000B7010008B7010008B7010008B701000810
:1000F000B7010008B7010008B7010008B701000800
:10010000B7010008B7010008B7010008B7010008EF
:10011000B7010008B7010008B7010008B7010008DF
:10012000B7010008B7010008B7010008B7010008CF
:10013000B7010008B7010008B7010008B7010008BF
:10014000B7010008B7010008B7010008B7010008AF
:10015000B7010008B7010008B7010008B70100089F
:10016000B7010008B7010008B7010008B70100088F
:10017000B7010008B7010008B7010008000000003F
:10018000B7010008B7010008DFF80CD000F07AF8DA
:10019000004800473D110008080A00200648804733
:1001A00006480047FEE7FEE7FEE7FEE7FEE7FEE75C
:1001B000FEE7FEE7FEE7FEE7ED1000088901000814
:1001C0002DE9F05F0546002092469B46884606468C
:1001D000814640241BE0284641464746224600F01F
:1001E00041F853465A46C01A914110D31146184659
:1001F000224600F028F82D1A67EB01084F462246E8
:100200000120002100F01FF817EB00094E41201ECD
:10021000A4F10104DFDC484631462A464346BDE8E6
:10022000F09FD2B201E000F8012B491EFBD27047CB
:100230000022F6E710B513460A4604461946FFF7B2
:10024000F0FF204610BD202A04DB203A00FA02F11C
:10025000002070479140C2F1200320FA03F31943B4
:1002600090407047202A04DB203A21FA02F0002156
:10027000704721FA02F3D040C2F1200291400843B6
:1002800019467047064C074D06E0E06840F0010350
:1002900094E8070098471034AC42F6D3FFF778FF94
:1002A0002C2600084C26000870B58C1810F8015B4D
:1002B00015F0070301D110F8013B2A1106D110F8FF
:1002C000012B03E010F8016B01F8016B5B1EF9D103
:1002D0002B0705D40023521E0DD401F8013BFAE789
:1002E00010F8013BCB1A921C03E013F8015B01F8F4
:1002F000015B521EF9D5A142D8D3002070BDFEE7A4
:100300007047000070B5044600F010F90546601C07
:1003100002D004480078044400F008F9401BA042D1
:10032000FAD370BDF40500202DE9F84FDFF8BCA129
:100330000022012503264FF00F090AF1040BAAF150
:10034000040E00BF0B6805FA02F42340A34270D1EB
:100350000F7907F00307012F01D0022F16D187680C
:100360004FEA420806FA08FC27EA0C07D1F80CC04D
:100370000CFA08FC4CEA070CC0F808C04768A74311
:100380000C79C4F3001494403C4344600C79E4437A
:10039000A4070AD0C4684FEA420C06FA0CF7BC4323
:1003A0008F6807FA0CF72743C7600C7904F0030441
:1003B000022C12D1D40800EB840CDCF82040570743
:1003C000FF0E09FA07F824EA0804D1F8108008FAA9
:1003D00007F848EA0408CCF8208004684FEA420C89
:1003E00006FA0CF7BC430F7907F0030707FA0CF77E
:1003F000274307604C6814F4403F70D03C4C27689A
:1004000047F480472760246822F0030704F48044FF
:100410000094384C07EB040CDCF8084897074FEAC7
:10042000177809FA08F7BC43334FB84202D10027C6
:1004300024E054E0314FB84201D101271EE0304F93
:10044000B84201D1022719E02E4FB84201D103274B
:1004500014E02D4FB84201D104270FE02B4FB842D2
:1004600001D105270AE02A4FB84201D1062705E04D
:10047000284FB84201D1072700E0082707FA08F7FC
:100480002743CCF80878DAF800405746D1F804C082
:100490009C435FEACC2C00D51C433C60DBF8004059
:1004A0005F46D1F804C09C435FEA8C2C00D51C4306
:1004B0003C60DEF800407746D1F804C09C435FEA18
:1004C0008C3C00D51C433C60084F083F3C68D1F889
:1004D00004C09C435FEACC3C00D51C433C60521CEA
:1004E000102AFFF42FAFBDE8F88F0000083C014050
:1004F0004438024000300140000002400004024045
:1005000000080240000C02400010024000140240AB
:1005100000180240001C02400069084000D0012081
:1005200070470AB1816170470904FBE701488068A0
:1005300070470000F40500200248816802781144E9
:1005400081607047F40500200B4810B5016841F444
:1005500000710160016841F480610160016841F44B
:1005600080710160032000F06BF80F2000F006F8A6
:1005700000F024F8002010BD003C024070B50D4D85
:1005800004464FF47A712878B1FBF0F00A49096803
:10059000B1FBF0F000F0E8FA48B9102C07D20022C5
:1005A0002146501E00F02CF800206C6070BD012028
:1005B00070BD0000F4050020000600200F4808B5BB
:1005C000016841F001010160006800F00100009045
:1005D0000A481430016841F480410160006800F469
:1005E0008040009005481030016841F08051016062
:1005F000006800F08050009008BD000030380240D4
:10060000F0B40E4B1B680C46C3F30223C3F107057D
:10061000042D00D90425191D072901D2002300E06B
:10062000DB1E012606FA05F1491E214099409E4035
:10063000761E16403143F0BC00F061BD0CED00E0C9
:10064000064900F0070208684FF6FF03184040EA29
:100650000220034A10430860704700000CED00E0E0
:100660000000FA052DE9F0470E46050065D0DFF8D9
:100670001481D8F80000F7B200F00700B04207D2AA
:1006800088F80070D8F8000000F00700B04254D19C
:1006900028683D4C810712D5400703D5206840F4F7
:1006A000E05020602878000703D5206840F46040BF
:1006B00020602068A96820F0F000084320602878B6
:1006C000C0072DD0304968680839012812D00228A7
:1006D00013D0032811D00968890700292DDA216871
:1006E00021F0030101432160FFF720FF814641F221
:1006F000883A0EE009688903EFE709688901ECE7A9
:10070000FFF714FFA0EB0901514502D90320BDE812
:10071000F0872068696800F00C00B0EB810FEFD122
:10072000D8F80010404601F00701B14207D9077020
:10073000006800F00700B04201D00120E7E7287808
:10074000400705D52068E96820F4E05008432060A0
:100750002878000706D52068296920F4604040EA1F
:10076000C100206000F018F82168084AC1F30311A5
:10077000515CC8400649086006480068FFF7FEFE65
:100780000020C4E7003C0240083802401B26000855
:1007900000060020F8050020154810B5006810F08C
:1007A0000C02144813D01449042A0FD0082A0ED181
:1007B0000F4C241F2268236802F03F025B0207D51A
:1007C0002068C0F38810A0FB010106E0084610BDB8
:1007D0002168C1F38811A1FB00010023FFF7F0FCA1
:1007E0002168C1F30141491C4900B0FBF1F010BD83
:1007F000083802400024F40040787D012DE9F84FCC
:1008000004006ED02078DFF84C93C007A9F10405EE
:100810004AD009F104000168C1F38101012908D01F
:100820000068C0F3810002280AD1D9F80000400214
:1008300006D52868800337D560680028E1D033E00A
:100840006068B0F5803F10D0B0F5A02F286810D0B8
:1008500020F480302860286820F4802028606068B8
:10086000A8B1FFF763FE06460DE0286840F480302B
:10087000F4E740F480202860F7E700BFFFF756FE5A
:10088000801B642873D828688003F7D50CE0FFF735
:100890004DFE064605E000BFFFF748FE801B6428BA
:1008A000F0D828688003F7D42078DFF8AC8280077E
:1008B0004FF0000A3ED5A748001D016811F00C0F4B
:1008C00008D00068C0F3810002280BD1D9F80000DD
:1008D000400207D42868800716D5E068012800D1B7
:1008E00012E033E1E068B8B10120C8F80000FFF77A
:1008F0001DFE064605E000BFFFF718FE801B02281C
:10090000C0D828688007F7D52868216920F0F8004A
:1009100040EAC10028600DE0C8F800A0FFF706FE1D
:10092000064604E0FFF702FE801B02281FD8286855
:100930008007F7D42078000722D5864F8748616961
:10094000703771B101210160FFF7F0FD064604E048
:10095000FFF7ECFD801B022809D838688007F7D51F
:100960000EE0C0F800A0FFF7E1FD064605E082E0DA
:10097000FFF7DCFD801B02287DD838688007F7D49C
:100980002078400768D5DFF8CCB100270BF13C0B8D
:10099000DBF80000C0000BD4DBF8001041F0805100
:1009A000CBF80010DBF80000012700F08050009029
:1009B0006B4E3068C00510D4306840F480703060F1
:1009C000FFF7B4FD009005E0FFF7B0FD0099401A75
:1009D000022850D83068C005F6D55E4EA0686C3647
:1009E00001280FD00528306810D020F001003060B9
:1009F000306820F004003060A068B8B1FFF796FDC1
:100A000000900FE0306840F00100F4E740F004008F
:100A10003060F7E7FFF78AFD0099411A41F288300C
:100A2000814266D830688007F4D50EE0FFF77EFD7E
:100A3000009007E0FFF77AFD0099411A41F28830F3
:100A4000814256D830688007F4D42FB1DBF800100B
:100A500021F08051CBF80010A069C8B33D49091DB1
:100A60000968C1F3810102294AD00228504607D003
:100A7000C8F8600000E03CE0FFF758FD04463BE0AA
:100A80004746C8F86000FFF751FD064605E000BF85
:100A9000FFF74CFD801B02282BD828688001F7D473
:100AA000D4E907010843A16A2E4A490802EB014133
:100AB000626A41EA8211084394F82C1040EA01610D
:100AC000C9F8001001203866FFF730FD044606E043
:100AD0003EE000BFFFF72AFD001B022809D8286866
:100AE0008001F7D534E000BFFFF720FD001B02288E
:100AF00002D90320BDE8F88F28688001F4D427E0EC
:100B00000128F7D0D9F80000E26900F48001914291
:100B10001CD1226A00F03F01914217D147F6C07103
:100B2000626A0140B1EB821F10D1A26A4FF0FF331D
:100B300000F4403103EB5202B1EB024F06D194F8BE
:100B40002C1000F07060B0EB016F01D00120D1E7F4
:100B50000020CFE70438024000004742800E4742A1
:100B6000007000400000FFFF10B5401EB0F1807F14
:100B700001D3012010BD4FF0E02460610F21601708
:100B800000F0BDFA0020A06107202061002010BD08
:100B9000FEE7000070B50B4D002401212846FFF749
:100BA000BBFC01280CD11920FFF7ACFB0121284622
:100BB000FFF7B2FC0128F9D01920FFF7A3FB0124AD
:100BC000204670BD0000024070B50B4D002402218C
:100BD0002846FFF7A1FC60B91920FFF793FB02211B
:100BE0002846FFF799FC0028F9D01920FFF78AFB67
:100BF0000124204670BD00000000024070B50B4D7E
:100C0000002401212846FFF787FC60B91920FFF76F
:100C100079FB01212846FFF77FFC0028F9D0192035
:100C2000FFF770FB0124204670BD00000004024065
:100C300070B50B4D002402212846FFF76DFC60B90A
:100C40001920FFF75FFB02212846FFF765FC00280B
:100C5000F9D01920FFF756FB0124204670BD000093
:100C600000040240F0B587B014216846FFF7E0FAAF
:100C700015480024016841F001010160016801F09C
:100C800001010591016841F0020101600068012540
:100C900000F0020005900D4FCDE900540226694690
:100CA00002963846FFF740FB009669463846CDE984
:100CB0000145FFF739FB03208DE831006946044800
:100CC000FFF732FB07B0F0BD3038024000000240B1
:100CD00000040240FEE7FEE770B500240021204634
:100CE00000F0DDF80025002000F0ACF96D1CEDB23D
:100CF000802DF8D3641CE4B2082CEFD370BD000043
:100D0000104810B5016886B041F00201016000682A
:100D10000D4C00F00200059011200190022003907C
:100D2000C020009069462046FFF7FEFA01224021CC
:100D30002046FFF7F6FB012280212046FFF7F1FB5A
:100D400006B010BD30380240000402402DE9F041E9
:100D50000024124E0746802525FA04F23A408021ED
:100D60003046FFF7DEFB012240213046FFF7D9FB7A
:100D7000002240213046FFF7D4FB641CE4B2082C6B
:100D8000EAD3012240213046FFF7CBFB3046BDE8D5
:100D9000F04100224021FFF7C4BB000000040240E4
:100DA00010B50B4C012280212046FFF7BAFB01222F
:100DB00040212046FFF7B5FB002280212046FFF7A7
:100DC000B0FB20460022BDE810404021FFF7A9BB40
:100DD0000004024010B5094C002280212046FFF794
:100DE000A0FB012240212046FFF79BFB2046012269
:100DF000BDE810408021FFF794BB000000040240D2
:100E000010B5FA20FFF77EFAFFF77AFFAE2000F068
:100E100008F9D52000F005F9802000F002F9A8209B
:100E200000F0FFF83F2000F0FCF8D32000F0F9F8C4
:100E3000002000F0F6F8402000F0F3F8A12000F0C8
:100E4000F0F8C82000F0EDF8DA2000F0EAF81220FF
:100E500000F0E7F8812000F0E4F8CF2000F0E1F89E
:100E6000D92000F0DEF8F12000F0DBF8DB2000F004
:100E7000D8F8302000F0D5F8A42000F0D2F8A62051
:100E800000F0CFF88D2000F0CCF8142000F0C9F865
:100E9000AF2000F0C6F8BDE81040FFF71DBF10B549
:100EA0000C4640F0B00000F0BCF8102040EA1410EE
:100EB00000F0B7F804F00F00BDE8104000F0B1B842
:100EC0002DE9F0410746CE004000083E801E154641
:100ED0004FF0FF38F1B2C0B2FFF7E1FF1148002434
:100EE00000EB05152819A0F5805090F8000E00F0D1
:100EF000A9F8641CE4B2082CF4D308EB4700F1B263
:100F0000C0B2FFF7CCFF00242819A0F5805090F85C
:100F1000080E00F097F8641CE4B2082CF4D3BDE886
:100F2000F0810000030000202DE9F74F82B09046C9
:100F30004FF00009104603E009F1010202F0FF0939
:100F400010F8012B002AF7D10024C800A0F1080BEB
:100F5000DFF8A4A04AE00026C6EBC60000EB800143
:100F600018F804201AF80130934239D101EB0A072E
:100F700008EB040079784278914231D1B9788078D1
:100F800081422DD120010321B0FBF1F1009001EB52
:100F90000B00C1B202984000801EC0B2FFF77FFF75
:100FA00000257819C07800F04DF86D1CEDB2102DB9
:100FB000F7D300990320B1FBF0F202EB0B01029A88
:100FC000001F00EB4200C9B2C0B2FFF768FF002566
:100FD0007819C07C00F036F86D1CEDB2102DF7D3F7
:100FE000761CF6B27D2EB7D3E41CE4B24C45B2D3E6
:100FF00005B0BDE8F08F0000041500082DE9F041B0
:1010000015460E460746002406E03019C1B23846A0
:10101000FFF756FF641CE4B22A5D002AF5D1BDE853
:10102000F08110B50446FFF7BBFE7820FFF78EFE77
:101030000020FFF78BFE2046FFF788FEBDE810403A
:10104000FFF7C8BE10B50446FFF7AAFE7820FFF7E9
:101050007DFE4020FFF77AFE2046FFF777FEBDE8D1
:101060001040FFF7B7BE70477047FFF765BA000042
:1010700010B592B030216846FFF7DAF814210CA8B9
:10108000FFF7D6F817480024016841F0805101604D
:10109000006800F0805011901348016841F48041CD
:1010A00001600068069400F48040119002200090D6
:1010B00001200390102004906846FFF79FFB08B1C1
:1010C00072B6FEE70F20CDE90C040E940F940021B8
:1010D0000CA81094FFF7C6FA002801D072B6FEE7FC
:1010E00012B010BD40380240007000400248016854
:1010F00041F470010160704788ED00E0FEE70907E8
:10110000090E002804DB00F1E02080F8001470478D
:1011100000F00F0000F1E02080F8141D704702E09D
:1011200008C8121F08C1002AFAD170477047002072
:1011300001E001C1121F002AFBD17047FFF704FA3A
:10114000FFF796FFFFF75CFEFFF78CFD0025AC4C28
:10115000032600BFFFF71EFD18B1A5702078401CC4
:101160002070FFF731FD08B1A57002E0207801285A
:1011700000D92570FFF728FD00B12570207860B1F7
:101180000128E7D194F90100002863D0012875D027
:10119000022871D0032870D1A9E0FFF72FFD10B10C
:1011A0006078401C6070FFF743FD10B16078401E0E
:1011B000607094F90100032801DD657002E00028E9
:1011C00000DA66708FA208210120FFF7ADFE90A221
:1011D00008210220FFF7A8FE90A208210320FFF7B4
:1011E000A3FE91A208210420FFF79EFE94F90100BE
:1011F00093E0012879D0022878D00328AAD18DA2C3
:1012000005210120FFF790FE8AA205210220FFF7A9
:101210008BFE88A205210320FFF786FE86A205210A
:101220000420FFF781FE85A201210320FFF7E6FEDF
:1012300083A201210420FFF777FEFA20FFF762F86E
:101240007EA201215FF00400FFF7D8FEFA20FFF72D
:1012500059F87FE77BA208210120FFF765FE7CA2F9
:1012600008210220FFF760FE7CA208210320FFF77F
:101270005BFE7DA212E001E026E013E07DA20821E2
:101280000120FFF751FE7EA208210220FFF74CFE4D
:101290007EA208210320FFF747FE7FA20821042039
:1012A000FFF742FEFFF7AAFC10B1A078401CA07027
:1012B000FFF7BEFC10B1A078401EA07094F90200A8
:1012C000032825DDA57026E076A208210120FFF77E
:1012D0002BFE77A208210220FFF726FE77A2082125
:1012E0000320FFF721FE78A2D8E73EE062E079A272
:1012F00008210120FFF718FE79A208210220FFF73C
:1013000013FE7AA208210320FFF70EFE7AA2C5E79A
:10131000002800DAA67094F9020000287FF469AF73
:1013200045A205210120FFF7FFFD42A20521022071
:10133000FFF7FAFD3FA205210320FFF7F5FD3DA2CF
:1013400005210420FFF7F0FD3CA201210420FFF756
:1013500055FE01213AA20846FFF7E6FDFA20FEF706
:10136000D1FF012135A208466EE732A205210120F6
:10137000FFF7DAFD30A205210220FFF7D5FD2DA2EF
:1013800005210320FFF7D0FD2AA205210420FFF745
:10139000CBFD012129A20846FFF730FE28A201213A
:1013A0000220FFF7C1FDFA20FEF7ACFF012123A2C6
:1013B000022049E71FA205210120FFF7B5FD1DA26C
:1013C00005210220FFF7B0FD1BA205210320FFF736
:1013D000ABFD18A205210420FFF7A6FD17A20121ED
:1013E0000220FFF70BFE16A201210320FFF79CFD50
:1013F000FA20FEF787FF012110A2032024E7000056
:1014000000000020E5B1B1E4B89CE79C8100000039
:10141000E5B1B1E8A5BFE79C81000000E6B996E51B
:101420008C97E79C81000000E59B9BE5B79DE79CBE
:1014300081000000E2978B00E2978F0020202000BF
:10144000E2869200E6B58EE58D97E5B88200000051
:10145000E99D92E5B29BE5B882000000E7839FE535
:101460008FB0E5B882000000E6B784E58D9AE5B854
:1014700082000000E5A4AAE58E9FE5B88200000086
:10148000E59095E6A281E5B882000000E995BFE607
:10149000B2BBE5B882000000E6998BE4B8ADE5B8D0
:1014A00082000000E6ADA6E6B189E5B88200000042
:1014B000E5AE9CE6988CE5B882000000E8A584E9DA
:1014C00098B3E5B882000000E88D86E5B79EE5B8E0
:1014D00082000000E68890E983BDE5B88200000044
:1014E000E7BBB5E998B3E5B882000000E5AE9CE53E
:1014F000AEBEE5B882000000E5BEB7E998B3E5B836
:1015000082000000E4BD9980804020504844C344DC
:10151000485020408080000040221A0242827F0210
:1015200002020A12600000E4BC9F008060F8070815
:10153000484848FF484848480800010000FF0002AA
:10154000020202FF020212221E00E2978F00E0F860
:10155000FCFCFEFEFEFEFEFCFCF8E0000000030FBB
:101560001F1F3F3F3F3F3F1F1F0F030000E2978BAE
:1015700000E0F81C040602020206041CF8E0000069
:1015800000030F1C103020202030101C0F0300001F
:10159000C2B70000000000000000000000000000D2
:1015A0000000000000000000000003030000000035
:1015B000000000E28692808080808080808090A001
:1015C000E0C0C080800000000000000000000402B5
:1015D000030101000000E79C8100108886C0C0A0C4
:1015E000AF9090888284080000010100FF4A4A4AB7
:1015F0004A4A4A4A4AFF000000E5B8820008888843
:10160000888889FA888888888808000000003F0058
:10161000000000FF000010201F000000C2B7000003
:1016200000000000000000000000000000000000BA
:10163000000000000000030300000000000000C2E2
:10164000B00000000C12120C0000000000000000AE
:10165000000000000000000000000000000000008A
:101660000000E280A600C0C0000000C0C000000072
:10167000C0C00000000000000000000000000000EA
:101680000000000000EFBC9A000000000000000015
:1016900000000000000000000000363600000000DE
:1016A0000000000000000000E28483060909E6F85B
:1016B0000C040202020202041E0000000000071FC8
:1016C0003020404040404020100000EFBC8500002A
:1016D0007C82827C008040201008040200000020F0
:1016E0001008040201003E41413E00000000E38E6C
:1016F000A10010E01010E01010E0004462524C0015
:101700000000000F00000F00000F000000000000AC
:1017100000E28692808080808080808090A0E0C0FF
:10172000C0808000000000000000000004020301EF
:1017300001000000E6B2B31060028C0004E424242F
:10174000E40404FC04040004047E0100000F04040B
:101750000F40807F000000E58C970020202020FFB4
:10176000000000FF4020100800002060201010FF43
:101770000000003F404040407800E5B1B10000F07B
:1017800000000000FF00000000F000000000003F2B
:10179000202020203F202020207F000000E8A5BF3F
:1017A0000202E22222FE222222FE2222E202020083
:1017B0000000FF484443404040434444FF000000D1
:1017C000E9BB9100003E222A3222FE22322A223E2A
:1017D0000000008868090929C9090F29C9090929D0
:1017E000C80800E9BE991010101010FF1010F0107A
:1017F0001116D010100080402018064120103F44E0
:10180000424140407800E6B19F1060020CC00404E1
:101810000404FC04040404000004047C03202020CD
:1018200020203F202020202000E59089080888887B
:10183000888888FF8888888888080800000000FC5D
:1018400044444444444444FC00000000E69E971095
:1018500010D0FF9010001010D0FFD0101010000416
:101860000300FF001108040300FF0003040800E860
:10187000BEBD404042CC0000020202F20A06020055
:1018800000000040201F20404048504F4040404052
:101890004000E5AE81201888888888898E888888ED
:1018A0008888281800000000000040807F000000A9
:1018B0000000000000E6B19F1060020CC0040404A8
:1018C00004FC04040404000004047C032020202001
:1018D000203F202020202000E88B8F044444445FD8
:1018E00044F44444445FC40404040000108E4020C7
:1018F0001807004080403F00010E00E6B59920C265
:101900000C801010FF1090FC4442C34240000404BD
:101910007E0142827F81403F0000FF000000E5AE73
:101920008980908C848484F58684848484948C80DB
:10193000000080808446492810102C23408000003D
:1019400000E5BEBD1088C423AE682F28AE20D8178E
:1019500010F010000100FF48298DFB09AC48370842
:1019600036418000E7A68F0809CEB80800027A4AFF
:101970004A4A4A4A7A02000201FF000300FF49492D
:10198000497F494949FF00E5BBBA0484C4B48C10BF
:10199000545454FF54547C101000804428182728B5
:1019A0004949497F494949484000E6B996106002D3
:1019B0008C008888FF888800FE2222FE0004047EB6
:1019C00001001F0808089F601F42827F00E58D9775
:1019D00004E4242464A4243F24A4642424E4040010
:1019E00000FF00080909097F09090948807F0000F4
:1019F000E5B9BF0000F808080808090E080808083B
:101A000008000080601F00000000000000000000CF
:101A1000000000E4B89C0008884828180FE808086F
:101A2000080808080000002011090541817F010114
:101A3000050911200000E6B5B71060020CC01008BF
:101A4000F714549414F404000004047C0300011DF2
:101A500013115599513F110100E59B9B00FC0404B3
:101A600004FC040404FC040404FC0000007F28249B
:101A70002320202020212222227F0000E5B79D0084
:101A80000000FF00000000FE00000000FF000080DA
:101A900040300F000000003F00000000FF0000E8A1
:101AA000B4B54040405E5252527F5252525E404066
:101AB00040000080809F4141211D0121215F408025
:101AC0000000E5B79E00E000FF0020C000FE0020FF
:101AD000C000FF00008140300F000000003F000008
:101AE0000000FF0000E4BA91404042424242C2423C
:101AF00042424242424040000020702824232020DD
:101B000020242830E0000000E9999500FE225A8642
:101B100008284808FF08482808000000FF04088734
:101B20004121190701071921418100E7949800100C
:101B30001010FF101010101010FF101010000000F7
:101B40000000FF424242424242FF00000000E882A1
:101B50008310105454545454FF545454547C101053
:101B60000080601F00100E00FF00021C00FF00003C
:101B700000E99D92404454545454547F5454545456
:101B800054444000000000FF151515151555957FAC
:101B900000000000E58FB00040E050484443404062
:101BA00040485060C00000000000FE4242424242F5
:101BB0004242FE00000000E6B9BE1060028C249490
:101BC00084BD8684BC841424000004047E01000EBD
:101BD0000A0A0A4A8A4B38000000E8978F02E2821C
:101BE000F212D752D25217FA12169A1200128E62BD
:101BF0001F003F253DA74027182641F000E6B58E7F
:101C00001060028C00040C94A546A4940C040400FB
:101C100004047E010081611E000000FE010101003C
:101C2000E5B29B000000FC040416250424443C009B
:101C300000000000001C1111111F1111115D8141E4
:101C40003F0000E6B7841060028C0008146308149B
:101C500063081463000004047E0100FF4949497FC2
:101C6000494949FF0000E58D9A2020FF2024F454C3
:101C70005454FF545556F404000000FF00080B199B
:101C800069090B49897D0B0800E7839F807000FF7D
:101C90001008FE424242FA424242FE0080601807AB
:101CA0000810FF50484641424C40FF00E6ADA620D8
:101CB00020242424A4242420FF20222C202000409F
:101CC000C07E40403F222220030C102040F800E656
:101CD000B1891060020CC0021EE2020202E21E0084
:101CE000000004047C0380804020130C13204080FB
:101CF0008000E5AE9C100C04E42424252624242432
:101D0000E404140C004040407F494949494949498D
:101D10007F40404000E6988C0000007F49494949D7
:101D20004949497F000000000000FF4949494949ED
:101D300049494949FF000000E8A5840282BAAAAADD
:101D4000EABA83BAEAAAAABA82020048484A2A2A08
:101D5000FF8A4A0A1F2A4A6A988800E88D86042466
:101D600024EF2424EF242404F80000FF0000824222
:101D7000320F0202FF0202020F40807F0000E5B72F
:101D80009E00E000FF0020C000FE0020C000FF0019
:101D9000008140300F000000003F00000000FF0005
:101DA00000E688900000F8888888880808FF0809FD
:101DB0000AC8080080601F0010201F8040211618EC
:101DC0002641F800E983BD202424A47F243428265A
:101DD00020FE0222DA06000402FF49494949FF00B9
:101DE00000FF0810080700E7BBB52030AC63100007
:101DF000007C5456D554547C0000226722121200F5
:101E00003E020202FF0212221E00E998B300FE0207
:101E100022DA0600FC0404040404FC000000FF08AD
:101E200010080700FF4141414141FF0000E5AEBEFF
:101E3000100C04E4242425262414141404140C0087
:101E40000808884F290909090F2949890908080044
:101E5000E5BEB71088C43304F49494F49FF49494CA
:101E6000F404000100FF004232027282869A82E28C
:101E70000A3200E5A4AA20202020202020FF2020D4
:101E800020202020200080804020100C1360030CB4
:101E9000102040808000E58E9F0000FE0202F2923A
:101EA0009A969292F20202020080601F402017442C
:101EB000847C04041720400000E590950000007E1B
:101EC000424242424242427E000000000000FE4286
:101ED0004242424242424242FE000000E6A28148A3
:101EE00050E21400209A423E8202FE000830004474
:101EF000442524140D04FF040C152424444400E953
:101F000095BF80808080FF8080A0908884828080C0
:101F1000800000000000FF40211204081020204033
:101F20004000E6B2BB1060028C0020302824232041
:101F3000283060000004047E010000FF414141415F
:101F400041FF000000E6998B40424A52427E4242E5
:101F5000427E42524A424000000000FF494949493E
:101F6000494949FF00000000E4B8AD0000F010103E
:101F70001010FF10101010F000000000000F0404FB
:101F80000404FF040404040F000000E5A4A72020BB
:101F90002020202020FF20202020202020008080C2
:101FA0004020100C0300030C102040808000E6B09D
:101FB0009420104C4754545454545454D4040400A2
:101FC0000000000000000000000000000F3040F0A2
:101FD00000E6B8A91060028C0000FE9292929292E4
:101FE000FE00000004047E01407E42427E427E42AA
:101FF000427E4000E6B9BF1060028C00FE929292D1
:10200000929292FE00000004047E014448507F40FA
:10201000407F5048444000E585894040424458C0D4
:10202000407F40C050484640400080804020180714
:102030000000003F404040407800E785A700FE4296
:102040004242FE0042A29E82A2C2BE0000806F08F1
:102050000828CF00002FC8080828CF0000E5BCBA28
:1020600002E222223E00809E9292F292929E800094
:10207000004382423E40474444447F444454E70086
:10208000E7B4AB20203E201F9454001F24A4242238
:1020900038000000804829094D8D7B0B09284C9899
:1020A000000000E5A49600C0301F1010F00000FFF3
:1020B000204080000000814021120C03000000FF3E
:1020C000000000030000E7BABF2030AC6320188096
:1020D0009090FF90494A4840002267221212124015
:1020E0004020130C142241F800E58AA0101010FFC4
:1020F0001010F00000F8080808F800008040300FC9
:1021000040807F00007F2020207F0000E8BDB4C811
:10211000B88FE8888800F01010FF1010F000000859
:102120001808FF040400FF42427F4242FF0000E91A
:10213000809F404042CC0004F49494FF9494F404B3
:1021400000000040201F20484442415F4142444873
:102150004000E5BAA60000FC242424FC252624FC2B
:10216000242424040040308F80844C552525255597
:102170004C80808000E5A7BF2021F20804108884ED
:1021800047344484940C0000048485945D572424CF
:1021900024544C4484050500E68081000484844472
:1021A00024548F1424448484040000413900003CEA
:1021B0004040424C40407004093100E8A792201092
:1021C000E824272424E424342C20E000000080604C
:1021D0001F090909097F090949897F000000E6AC48
:1021E000A700FE1222C23A0240300FC80828180089
:1021F00000003F24232027A040300E010E304080F5
:1022000000E68B89101010FF9040109010111610EE
:1022100010D010000242817F004040415E4040707B
:102220004E414000E59B9B00FC040404FC040404B4
:10223000FC040404FC0000007F282423202020202C
:10224000212222227F0000E585832020222222E213
:10225000222222E2222222202000804020100C0391
:102260000000003F404040407800E695B090523476
:1022700010FF10345280708F0808F80800829A56B8
:102280006322528E008040330C33408000E4BFAFA5
:102290008060F80700FC04C434858684F4848400DC
:1022A0000000FF40300F01FF00024C807F00000063
:1022B000E4BBB0008060F80700FC040200FC0404EA
:1022C000FC0000010000FF00001F080400FF0408DC
:1022D000070000E7BFBB965A327E3159951222FEA5
:1022E000001222FE000000FF497F49FF0044827F68
:1022F0000442817F0000E6BB9A1060028C002494A7
:10230000CCA596C48C1424000004047E012010087F
:10231000FC4224081522404000E5818F8060F807C8
:1023200000FC242425262424243C00000000FF4037
:102330003C03FF097F097F0989FF0000E888AA8024
:10234000FC96E584FC0008C8494AC80808000080DB
:102350007F024C807F80601F00003F40407800E695
:10236000ADA3000202C2020202FE828282828202C7
:1023700000004040407F4040407F4040404040405F
:102380004000E59CA8080888C8380C0B0808E80835
:102390000808080800020100FF40414141417F4117
:1023A0004141414000E5889D080889EA18880004F9
:1023B00004FC040404FC0000020100FF018640202C
:1023C00018074080403F0000E5A78B1010F01F1059
:1023D000F00040E05847405060C000402215081609
:1023E000210000FE42424242FE0000E58C96008041
:1023F00060F807000000FF40201008040000010002
:1024000000FF000402013F40404040407800E4B833
:10241000AD0000F010101010FF10101010F00000B0
:102420000000000F04040404FF040404040F00006F
:1024300000E6AF950000FF88884848007F888484C4
:1024400082E0000004040504040404FF04040404FE
:1024500004040400E5909100F808080CCA494848B3
:10246000C8080808F8000000FF0000001F0808085E
:102470001F0040807F0000E4B88A000000000000D8
:10248000FF4040404040400000004040404040404D
:102490007F404040404040404000E4B88B02020290
:1024A000020202FE02024282020202020000000058
:1024B000000000FF000000000106000000E5B7A6D4
:1024C0000808080888780F0808080808080808009D
:1024D00020104846414141417F4141414140400037
:1024E000E58FB308080808C8380F08080808080866
:1024F00008080008040201FF41414141414141FFF8
:10250000000000E5898D0808E8292E28E80808C899
:102510000C0BE80808000000FF0949897F00000F44
:1025200040807F000000E5908E000000FC24242401
:102530002422222223222020004020180700FE42CD
:102540004242424242FE000000E68CA5101010FFFD
:1025500010982622E23AA222222A06000444827F10
:10256000011010131212FF1212121000E58AA84077
:1025700044C4444444401010FF101010F0000010F8
:102580003C131014B840300E014080403F0000E67C
:1025900097A00040424242C27E42C2424242404074
:1025A0000000804020100C0300003F40404040707D
:1025B0000000E69C8904040484E43C2724242424A9
:1025C000E40404040004020100FF0909090949891F
:1025D0007F00000000E6898B00002424242424FCD2
:1025E0002222222322000000020202020242827FF3
:1025F0000202020202020200E58ABF00444424FFF4
:10260000140024A47F8404FC00C0000088894A29A7
:10261000180E0A094888483801030000000000002D
:102620000000000102030406070809004C26000808
:102630000000002004060000A8020008C8290008C5
:1026400004060020040400002E110008011672F890
:102650004333301C100C0603912C40C07803112C1E
:10266000043F0403212D7088FC0829261820FF212F
:102670001E14F008F033E0184D211C031E1133889E
:1026800070000C101E2123241927211010160E454E
:10269000E018040225071820403D020418E0692CC8
:1026A00020180707174080F08040403F0202010FCA
:1026B00001022842F01D0101011F04912B80B06628
:1026C000B1191D2901913A30CE492C146018043CEF
:1026D0006018061D1EE010080810721F0F10202041
:1026E000100FF05310F83620203F20203C700808CF
:1026F000C21E3028242221441E3008888848082E13
:102700001820202011CC3BC0203227070424243F6E
:10271000241AF8202308084B19212036E010888855
:10272000184B0F11101E380808C8382021523F1AC4
:10273000702E29608F1C222121221C90111D312214
:102740002211901961CAC0C26A80C659081C402073
:102750001050170102040810204A4001114A0401D8
:102760002119152A403219251B0402F21B7048D189
:102770003AF0501A360F1EC030C828E870280807F3
:1027800018272423140B6F2A387E280D203C23029F
:102790000227382008F888889F4B203FF01BC03064
:1027A0003F1B083830191019781B08F80F194039E9
:1027B000201B100F103E8888E8081010AC2320184A
:1027C00010112A035E2940223829402C221E024083
:1027D00019A41809F808203F21010121252A0852CF
:1027E000298129424149112EC08080807F0E2FF817
:1027F00088C0281808501C0126382F2940292F2965
:10280000801B20301012F81AF81413203F190229E7
:10281000204B30C0601A2074123F4BE010B06B0F99
:1028200010B029D01AF0301980220179203F1824E5
:102830002438504FC04C888870C0140C30204B7026
:1028400088C11738202121221C3A189F4A18823942
:10285000A049D0112A1F90121F240878881BC8385D
:10286000151C07380E60191A1AF8201114033C07BA
:1028700014073C0348140818688080681808203042
:102880002C03032C30200838C82F5950298F2910C9
:102890002F203826212020681145FE020202257FC4
:1028A0004040401A0CE0611C0106380B191D42FE25
:1028B000191D527F1A04120211045A80011930D9CD
:1028C0001D391621180819242222223F20AB390F66
:1028D000115F3F112020110E21311A0E104B2011D3
:1028E000104B88F8102A10B359401A1F3F2B22139F
:1028F0000F16F0888888181A20D029D1497A211714
:102900006B94949493603960190F4C203F21F354D9
:10291000809898793059121AC02719D11930393155
:102920001F203F24022D30212A0812893069D7291F
:102930004B2903190BC96079A019BF2B201FDD3962
:102940000F9C80FFA1E0191229D03BA0FF0C395049
:10295000194112208A01C01B3324012A190F3AE0C1
:10296000413952290F392349603C103F202C290559
:102970003F010E3008060170291038080F300C0393
:102980000C300F2C49A14E312E0E31200C29621D26
:10299000818E70183059D1215721302C2221305589
:1029A000807C0202443F404072FF39083C02027CB6
:1029B0008F5440403F90080601010202040429C3DD
:0829C00082101324F400000052
:040000050800018965
:00000001FF
