:020000040800F2
:10000000000A00209D0100085D0900085909000848
:100010005B090008FF020008050C00080000000052
:100020000000000000000000000000005B0B000862
:100030000103000800000000590B00085D0B0008D8
:10004000B7010008B7010008B7010008B7010008B0
:10005000B7010008B7010008B7010008B7010008A0
:10006000B7010008B7010008B7010008B701000890
:10007000B7010008B7010008B7010008B701000880
:10008000B7010008B7010008B7010008B701000870
:10009000B7010008B7010008B7010008B701000860
:1000A000B7010008B7010008B7010008B701000850
:1000B000B7010008B7010008B7010008B701000840
:1000C000B7010008B7010008B7010008B701000830
:1000D000B7010008B7010008B7010008B701000820
:1000E000B7010008B7010008B7010008B701000810
:1000F000B7010008B7010008B7010008B701000800
:10010000B7010008B7010008B7010008B7010008EF
:10011000B7010008B7010008B7010008B7010008DF
:10012000B7010008B7010008B7010008B7010008CF
:10013000B7010008B7010008B7010008B7010008BF
:10014000B7010008B7010008B7010008B7010008AF
:10015000B7010008B7010008B7010008B70100089F
:10016000B7010008B7010008B7010008B70100088F
:10017000B7010008B7010008B7010008000000003F
:10018000B7010008B7010008DFF80CD000F07AF8DA
:1001900000480047450C0008000A00200648804738
:1001A00006480047FEE7FEE7FEE7FEE7FEE7FEE75C
:1001B000FEE7FEE7FEE7FEE7F50B00088901000811
:1001C0002DE9F05F0546002092469B46884606468C
:1001D000814640241BE0284641464746224600F01F
:1001E00041F853465A46C01A914110D31146184659
:1001F000224600F028F82D1A67EB01084F462246E8
:100200000120002100F01FF817EB00094E41201ECD
:10021000A4F10104DFDC484631462A464346BDE8E6
:10022000F09FD2B201E000F8012B491EFBD27047CB
:100230000022F6E710B513460A4604461946FFF7B2
:10024000F0FF204610BD202A04DB203A00FA02F11C
:10025000002070479140C2F1200320FA03F31943B4
:1002600090407047202A04DB203A21FA02F0002156
:10027000704721FA02F3D040C2F1200291400843B6
:1002800019467047064C074D06E0E06840F0010350
:1002900094E8070098471034AC42F6D3FFF778FF94
:1002A000900C0008B00C000870B58C1810F8015BB9
:1002B00015F0070301D110F8013B2A1106D110F8FF
:1002C000012B03E010F8016B01F8016B5B1EF9D103
:1002D0002B0705D40023521E0DD401F8013BFAE789
:1002E00010F8013BCB1A921C03E013F8015B01F8F4
:1002F000015B521EF9D5A142D8D3002070BDFEE7A4
:1003000070470AB1816170470904FBE701488068C2
:100310007047000000000020024881680278114404
:1003200081607047000000200B4810B5016841F45F
:1003300000710160016841F480610160016841F46D
:1003400080710160032000F061F80F2000F006F8D2
:1003500000F024F8002010BD003C024070B50D4DA7
:1003600004464FF47A712878B1FBF0F00A49096825
:10037000B1FBF0F000F0DCFA48B9102C07D20022F3
:100380002146501E00F022F800206C6070BD012054
:1003900070BD0000000000200C0000200A4808B5D5
:1003A000016841F480410160006800F480400090E1
:1003B0000548001F016841F080510160006800F0AD
:1003C0008050009008BD000044380240F0B40E4B4D
:1003D0001B680C46C3F30223C3F10705042D00D9A3
:1003E0000425191D072901D2002300E0DB1E012688
:1003F00006FA05F1491E214099409E40761E16409E
:100400003143F0BC00F0FFBB0CED00E0064900F00A
:10041000070208684FF6FF03184040EA0220034A2B
:1004200010430860704700000CED00E00000FA0582
:100430002DE9F0470E46050065D0DFF81481D8F8A5
:100440000000F7B200F00700B04207D288F8007051
:10045000D8F8000000F00700B04254D128683D4CA5
:10046000810712D5400703D5206840F4E050206092
:100470002878000703D5206840F460402060206899
:10048000A96820F0F000084320602878C0072DD02C
:10049000304968680839012812D0022813D003288F
:1004A00011D00968890700292DDA216821F003019C
:1004B00001432160FFF72AFF814641F2883A0EE0AE
:1004C00009688903EFE709688901ECE7FFF71EFF78
:1004D000A0EB0901514502D90320BDE8F08720684F
:1004E000696800F00C00B0EB810FEFD1D8F8001074
:1004F000404601F00701B14207D90770006800F0DB
:100500000700B04201D00120E7E72878400705D571
:100510002068E96820F4E05008432060287800074C
:1005200006D52068296920F4604040EAC1002060B7
:1005300000F018F82168084AC1F30311515CC84063
:100540000649086006480068FFF708FF0020C4E776
:10055000003C024008380240800C00080C000020DB
:1005600004000020154810B5006810F00C02144873
:1005700013D04110042A0FD0082A0ED10F4C241F8B
:100580002268236802F03F025B0207D52068C0F3AF
:100590008810A0FB010106E0084610BD2168C1F3E8
:1005A0008811A1FB00010023FFF70AFE2168C1F3B7
:1005B0000141491C4900B0FBF1F010BD0838024070
:1005C0000024F4002DE9F84F04006ED02078DFF805
:1005D0004C93C007A9F104054AD009F10400016851
:1005E000C1F38101012908D00068C0F3810002280D
:1005F0000AD1D9F80000400206D52868800337D513
:1006000060680028E1D033E06068B0F5803F10D02A
:10061000B0F5A02F286810D020F48030286028681A
:1006200020F4802028606068A8B1FFF76FFE0646BE
:100630000DE0286840F48030F4E740F48020286022
:10064000F7E700BFFFF762FE801B642873D82868B5
:100650008003F7D50CE0FFF759FE064605E000BF22
:10066000FFF754FE801B6428F0D828688003F7D475
:100670002078DFF8AC8280074FF0000A3ED5A7480B
:10068000001D016811F00C0F08D00068C0F3810054
:1006900002280BD1D9F80000400207D4286880074F
:1006A00016D5E068012800D112E033E1E068B8B166
:1006B0000120C8F80000FFF729FE064605E000BF4C
:1006C000FFF724FE801B0228C0D828688007F7D5D2
:1006D0002868216920F0F80040EAC10028600DE098
:1006E000C8F800A0FFF712FE064604E0FFF70EFE72
:1006F000801B02281FD828688007F7D420780007BD
:1007000022D5864F87486169703771B10121016038
:10071000FFF7FCFD064604E0FFF7F8FD801B02280A
:1007200009D838688007F7D50EE0C0F800A0FFF7B9
:10073000EDFD064605E082E0FFF7E8FD801B02289C
:100740007DD838688007F7D42078400768D5DFF86F
:10075000CCB100270BF13C0BDBF80000C0000BD440
:10076000DBF8001041F08051CBF80010DBF80000FE
:10077000012700F0805000906B4E3068C00510D407
:10078000306840F480703060FFF7C0FD009005E0F5
:10079000FFF7BCFD0099401A022850D83068C00508
:1007A000F6D55E4EA0686C3601280FD0052830685B
:1007B00010D020F001003060306820F0040030607C
:1007C000A068B8B1FFF7A2FD00900FE0306840F0DC
:1007D0000100F4E740F004003060F7E7FFF796FD12
:1007E0000099411A41F28830814266D8306880070A
:1007F000F4D50EE0FFF78AFD009007E0FFF786FDD5
:100800000099411A41F28830814256D830688007F9
:10081000F4D42FB1DBF8001021F08051CBF8001098
:10082000A069C8B33D49091D0968C1F381010229C6
:100830004AD00228504607D0C8F8600000E03CE0EB
:10084000FFF764FD04463BE04746C8F86000FFF749
:100850005DFD064605E000BFFFF758FD801B02283E
:100860002BD828688001F7D4D4E907010843A16A8E
:100870002E4A490802EB0141626A41EA82110843AB
:1008800094F82C1040EA0161C9F800100120386684
:10089000FFF73CFD044606E03EE000BFFFF736FDF3
:1008A000001B022809D828688001F7D534E000BF72
:1008B000FFF72CFD001B022802D90320BDE8F88FAA
:1008C00028688001F4D427E00128F7D0D9F8000087
:1008D000E26900F4800191421CD1226A00F03F01DC
:1008E000914217D147F6C071626A0140B1EB821F95
:1008F00010D1A26A4FF0FF3300F4403103EB5202F3
:10090000B1EB024F06D194F82C1000F07060B0EB00
:10091000016F01D00120D1E70020CFE70438024069
:1009200000004742800E4742007000400000FFFF79
:1009300010B5401EB0F1807F01D3012010BD4FF0F3
:10094000E02460610F21601700F05DF90020A061D4
:1009500007202061002010BDFEE7FEE7FEE7000053
:100960002DE9F0410024124E0746802525FA04F2B5
:100970003A4080213046FFF7C4FC01224021304636
:10098000FFF7BFFC002240213046FFF7BAFC641C91
:10099000E4B2082CEAD3012240213046FFF7B1FC33
:1009A0003046BDE8F04100224021FFF7AABC00001C
:1009B0000004024010B50B4C012280212046FFF7B5
:1009C000A0FC012240212046FFF79BFC0022802151
:1009D0002046FFF796FC20460022BDE8104040214B
:1009E000FFF78FBC0004024010B5094C00228021A3
:1009F0002046FFF786FC012240212046FFF781FCBC
:100A000020460122BDE810408021FFF77ABC00009B
:100A1000000402400246012000E05043491EFCD27F
:100A2000704710B50C4640F0B00000F073F810208D
:100A300040EA141000F06EF804F00F00BDE810401A
:100A400000F068B82DE9F0410746CE004000083EAE
:100A5000801E15464FF0FF38F1B2C0B2FFF7E1FF3C
:100A60001148002400EB05152819A0F5805090F8D6
:100A7000000E00F060F8641CE4B2082CF4D308EB1C
:100A80004700F1B2C0B2FFF7CCFF00242819A0F54F
:100A9000805090F8080E00F04EF8641CE4B2082C68
:100AA000F4D3BDE8F0810000100000202DE9F047EC
:100AB00000241D461646884681460A2713E0291B56
:100AC0000A20491EFFF7A6FFB6FBF0F0B0FBF7F1D6
:100AD00007FB110208EB0400C1B248463032FFF7B1
:100AE000B1FF641CE4B2AC42E9D3BDE8F0872DE964
:100AF000F04115460E460746002406E03019C1B203
:100B00003846FFF79FFF641CE4B22A5D002AF5D146
:100B1000BDE8F08110B50446FFF74CFF7820FFF7E1
:100B20001FFF0020FFF71CFF2046FFF719FFBDE85D
:100B30001040FFF759BF10B50446FFF73BFF782080
:100B4000FFF70EFF4020FFF70BFF2046FFF708FFDF
:100B5000BDE81040FFF748BF70477047FFF7DCBBA8
:100B600030B593B030216846FFF762FB14210CA822
:100B7000FFF75EFB1D480025016841F080510160D0
:100B8000006800F0805011901948016841F48041DC
:100B900001600068022400F4804011900120009060
:100BA000000401908001CDE9064008AA0420A82194
:100BB00082E813000B906846FFF704FD08B172B697
:100BC000FEE70CA90F2081E831004FF4A0500F90F0
:100BD0004FF48050109005210CA8FFF729FC002845
:100BE00001D072B6FEE713B030BD000040380240BD
:100BF000007000400248016841F4700101607047D4
:100C000088ED00E0FEE70907090E002804DB00F18B
:100C1000E02080F80014704700F00F0000F1E020A1
:100C200080F8141D704702E008C8121F08C1002A8E
:100C3000FAD170477047002001E001C1121F002A5D
:100C4000FBD17047FFF770FBFFF78AFF40F26D148E
:100C500008A203210120FFF74AFF41220B210120B6
:100C6000FFF7F0FE2246042301210220FFF71EFFBA
:100C7000EEE7000048656C6C6F576F726C64210082
:100C8000000000000000000001020304060708093C
:100C9000B00C00080000002000060000A8020008B8
:100CA000281000080006002000040000360C000890
:100CB00032018210031424F472F84333301C100CF8
:100CC0000603912C40C07803112C043F0403212D0E
:100CD0007088FC0829261820FF211E14F008F03324
:100CE000E0184D211C031E11338870000C101E21CA
:100CF00023241927211010160E45E0180402250799
:100D00001820403D020418E0692C201807071740FE
:100D100080F08040403F0202010F01022842F01D96
:100D20000101011F04912B80B066B1191D290191A9
:100D30003A30CE492C146018043C6018061D1EE0A1
:100D400010080810721F0F102020100FF05310F819
:100D50003620203F20203C700808C21E3028242264
:100D600021441E3008888848082E1820202011CCE5
:100D70003BC0203227070424243F241AF8202308EC
:100D8000084B19212036E0108888184B0F11101ECF
:100D9000380808C8382021523F1A702E29608F1C4D
:100DA000222121221C90111D31222211901961CA89
:100DB000C0C26A80C659081C4020105017010204A6
:100DC0000810204A4001114A04012119152A403215
:100DD00019251B0402F21B7048D13AF0501A360F45
:100DE0001EC030C828E87028080718272423140BD1
:100DF0006F2A387E280D203C23020227382008F86D
:100E000088889F4B203FF01BC0303F1B08383019AB
:100E10001019781B08F80F194039201B100F103ECD
:100E20008888E8081010AC23201810112A035E29C6
:100E300040223829402C221E024019A41809F80823
:100E4000203F21010121252A0852298129424149B7
:100E5000112EC08080807F0E2FF888C0281808507F
:100E60001C0126382F2940292F29801B20301012E1
:100E7000F81AF81413203F190229204B30C0601AC9
:100E80002074123F4BE010B06B0F10B029D01AF055
:100E9000301980220179203F18242438504FC04C4B
:100EA000888870C0140C30204B7088C117382021FE
:100EB00021221C3A189F4A188239A049D0112A1FB2
:100EC00090121F240878881BC838151C07380E603C
:100ED000191A1AF8201114033C0714073C0348148C
:100EE000081868808068180820302C03032C3020F4
:100EF0000838C82F5950298F29102F203826212033
:100F000020681145FE020202257F4040401A0CE095
:100F1000611C0106380B191D42FE191D527F1A046F
:100F2000120211045A80011930D91D3916211808EE
:100F300019242222223F20AB390F115F3F112020BC
:100F4000110E21311A0E104B2011104B88F8102A67
:100F500010B359401A1F3F2B22130F16F0888888B0
:100F6000181A20D029D1497A21176B949494936050
:100F70003960190F4C203F21F354809898793059EB
:100F8000121AC02719D1193039311F203F24022DE0
:100F900030212A0812893069D7294B2903190BC936
:100FA0006079A019BF2B201FDD390F9C80FFA1E0C5
:100FB000191229D03BA0FF0C3950194112208A0187
:100FC000C01B3324012A190F3AE0413952290F3945
:100FD0002349603C103F202C29053F010E300806B4
:100FE0000170291038080F300C030C300F2C49A168
:100FF0004E312E0E31200C29621D818E7018305911
:10100000D1215721302C22213055807C0202443FCF
:10101000404072FF39083C02027C8F5440403F80C0
:081020000806010102020404AC
:040000050800018965
:00000001FF
