:020000040800F2
:10000000680400209D01000897140008CD12000824
:1000100095140008F10600085118000800000000BF
:100020000000000000000000000000004D15000866
:10003000F306000800000000991400084F1500089E
:10004000B7010008B7010008B7010008B7010008B0
:10005000B7010008B7010008B7010008B7010008A0
:10006000B7010008B7010008B7010008B701000890
:10007000B7010008B7010008B7010008B701000880
:10008000B7010008B7010008B7010008B701000870
:10009000B7010008B7010008B7010008B701000860
:1000A000B7010008B7010008B7010008B701000850
:1000B000B7010008B7010008B7010008B701000840
:1000C000B7010008B7010008B7010008B701000830
:1000D000B7010008B7010008B7010008B701000820
:1000E000B7010008B7010008B7010008B701000810
:1000F000B7010008B7010008B7010008B701000800
:10010000B7010008B7010008B7010008B7010008EF
:10011000B7010008B7010008B7010008B7010008DF
:10012000B7010008B7010008B7010008B7010008CF
:10013000B7010008B7010008B7010008B7010008BF
:10014000B7010008B7010008B7010008B7010008AF
:10015000B7010008B7010008B7010008B70100089F
:10016000B7010008B7010008B7010008B70100088F
:10017000B7010008B7010008B7010008000000003F
:10018000B7010008B7010008DFF80CD000F09EFAB4
:10019000004800479118000868040020064880477E
:1001A00006480047FEE7FEE7FEE7FEE7FEE7FEE75C
:1001B000FEE7FEE7FEE7FEE7D1150008890100082B
:1001C0002DE9F05F0546002092469B46884606468C
:1001D000814640241BE0284641464746224600F01F
:1001E000F5F953465A46C01A914110D311461846A4
:1001F000224600F0DCF92D1A67EB01084F46224633
:100200000120002100F0D3F917EB00094E41201E18
:10021000A4F10104DFDC484631462A464346BDE8E6
:10022000F09FD2B201E000F8012B491EFBD27047CB
:100230000022F6E710B513460A4604461946FFF7B2
:10024000F0FF204610BD2DE9FE4F804681EA0300F5
:10025000C00F0C46009021F0004123F00045B8EBA0
:100260000200A94105D24046214690461C460B4655
:10027000024623F00040104347D0270DC7F30A0081
:10028000C3F30A510290401A019040286BDAC3F37D
:10029000130040F4801B0098924620B10023D2EB5B
:1002A000030A63EB0B0B01985946C0F1400250461C
:1002B00000F07DF906460D4650465946019A00F079
:1002C00095F910EB08006141002487EA115284EA95
:1002D000E7731A4340D0009A62B3019A012A4FEAA9
:1002E000075215DC001B61EB02014FF0004202EAED
:1002F0000752CDE90042001C41F5801132462B46E1
:1003000000F095F903B0BDE8F08F40462146F9E7CB
:10031000001B61EB0201001C41F5801300185B41DA
:100320002018A2F5001747EB030140EAD570B61973
:100330006D4111E06D084FEA360645EAC0754FEA97
:100340000752001B61EB0201001C41F580114908B6
:100350004FEA30000019514132462B4603B0BDE848
:10036000F04F00F055B90098012240000023D0EB77
:10037000020263EBE073009821464FEAE074B8EBA9
:10038000000061EB0401E9E783F000435BE781F0E3
:10039000004158E72DE9FE4F81EA030404F00044D0
:1003A00021F0004100944FF0000B23F0004350EA8D
:1003B00001045ED052EA03045BD0C3F30A54C1F3D4
:1003C0000A552C44A4F2F3340194A0FB0254C1F367
:1003D000130141F48011C3F3130343F4801301FBB1
:1003E000024400FB034E840A970A44EA815447EA18
:1003F0008357A4FB076802958D0A05FB07854FEA22
:10040000932C04FB0C542705029D4FEA065847EA3B
:100410001637B5EB08056EEB070C870E920E47EA10
:10042000811742EA8312A7FB0201B6EB0B0164EBD2
:1004300000042B0D43EA0C335E1844EB1C50DA46E3
:100440005146E7FB0201C5F313044FEA0B3343EABD
:1004500014534FEA0432019C43EA0603A4F10C044E
:100460000294009CCDE900B400F0E1F803B0BDE8CF
:10047000F08F00200146F9E72DE9F04D81EA0304F1
:1004800004F0004B21F0004514464FF0000A23F021
:10049000004150EA050220D054EA01021DD0C5F304
:1004A0000A570246C5F31303C1F31300C1F30A56FA
:1004B00040F4801543F48013A7EB0608101BD646C2
:1004C00008F2FD3873EB050002D308F1010801E0E2
:1004D00092185B41B8F1000F03DA00200146BDE835
:1004E000F08D00204FF48011064684460EE0171B65
:1004F00073EB050705D3121B63EB050306434CEAB8
:10050000010C49084FEA300092185B4150EA01079C
:10051000EDD152EA030012D082EA040083EA050119
:10052000084305D0101BAB4106D20122002306E090
:1005300000224FF0004302E06FF0010253101AEB6B
:1005400006004CEB085110EB0A0041EB0B01BDE833
:10055000F04D00F05DB8C1F30A5210B5C1F31301BC
:1005600040F2FF3341F480119A4201DA002010BDBD
:1005700040F233439A42A2F2334203DC524200F08B
:1005800025F810BD904010BD00F0004230F0004052
:100590000AD0C10D01F56071C0F3160042EA0151A5
:1005A000C208400711437047002001467047202AC7
:1005B00004DB203A00FA02F1002070479140C2F1BA
:1005C000200320FA03F3194390407047202A04DBEC
:1005D000203A21FA02F00021704721FA02F3D040BC
:1005E000C2F120029140084319467047202A06DBD9
:1005F000CB17203A41FA02F043EAE07306E041FAF1
:1006000002F3D040C2F120029140084319467047DE
:1006100010B5141E73F1000408DA401C41F100010A
:1006200092185B411A4301D120F0010010BD2DE961
:10063000F04D92469B4611B1B1FA81F202E0B0FA58
:1006400080F220329046FFF7B2FF04460F4640EAA0
:100650000A0041EA0B0153465A46084313D011469B
:1006600053EA010019D0C8F140025046FFF7AEFF2F
:1006700005460E46504659464246FFF798FF084346
:1006800005D0012004E020463946BDE8F08D002069
:10069000054346EAE0762C4337430A986305E40AAB
:1006A000A0EB08000022FD0A44EA47540A3002D5B4
:1006B00000200146E9E7010510196941DDE9084517
:1006C00000196941BDE8F04DA2E70000064C074D56
:1006D00006E0E06840F0010394E807009847103412
:1006E000AC42F6D3FFF754FD6019000880190008EA
:1006F000FEE7704710B500F059FA00EE100ADFED82
:10070000050A0548B8EE400A80EE801A80ED001A0E
:1007100010BD00000024F44A0800002072B6FEE775
:1007200070B5044600F00CF90546601C02D0044880
:100730000078044400F004F9401BA042FAD370BDD5
:100740000C0000202DE9F84FDFF8BCA100220125A4
:1007500003264FF00F090AF1040BAAF1040E00BFA3
:100760000B6805FA02F42340A34270D10F7907F019
:100770000307012F01D0022F16D187684FEA4208E4
:1007800006FA08FC27EA0C07D1F80CC00CFA08FCA2
:100790004CEA070CC0F808C04768A7430C79C4F3BB
:1007A000001494403C4344600C79E443A4070AD00D
:1007B000C4684FEA420C06FA0CF7BC438F6807FA8C
:1007C0000CF72743C7600C7904F00304022C12D104
:1007D000D40800EB840CDCF820405707FF0E09FA20
:1007E00007F824EA0804D1F8108008FA07F848EA64
:1007F0000408CCF8208004684FEA420C06FA0CF793
:10080000BC430F7907F0030707FA0CF7274307608B
:100810004C6814F4403F70D03C4C276847F4804744
:100820002760246822F0030704F480440094384CC5
:1008300007EB040CDCF8084897074FEA177809FA29
:1008400008F7BC43334FB84202D1002724E054E0FC
:10085000314FB84201D101271EE0304FB84201D1DB
:10086000022719E02E4FB84201D1032714E02D4F83
:10087000B84201D104270FE02B4FB84201D1052720
:100880000AE02A4FB84201D1062705E0284FB842B6
:1008900001D1072700E0082707FA08F72743CCF81B
:1008A0000878DAF800405746D1F804C09C435FEA64
:1008B000CC2C00D51C433C60DBF800405F46D1F8EF
:1008C00004C09C435FEA8C2C00D51C433C60DEF8DE
:1008D00000407746D1F804C09C435FEA8C3C00D5C9
:1008E0001C433C60084F083F3C68D1F804C09C435F
:1008F0005FEACC3C00D51C433C60521C102AFFF43C
:100900002FAFBDE8F88F0000083C0140443802409A
:100910000030014000000240000402400008024094
:10092000000C024000100240001402400018024077
:10093000001C02400069084000D001207047000000
:1009400001488068704700000C0000200248816860
:1009500002781144816070470C0000200B4810B5EC
:10096000016841F400710160016841F48061016037
:10097000016841F480710160032000F06BF80F20E2
:1009800000F006F800F024F8002010BD003C024002
:1009900070B50D4D04464FF47A712878B1FBF0F034
:1009A0000A490968B1FBF0F000F0EEFA48B9102CE2
:1009B00007D200222146501E00F02CF800206C6067
:1009C00070BD012070BD00000C0000201800002048
:1009D0000F4808B5016841F001010160006800F0AE
:1009E000010000900A481430016841F48041016020
:1009F000006800F48040009005481030016841F024
:100A000080510160006800F08050009008BD000037
:100A100030380240F0B40E4B1B680C46C3F302237F
:100A2000C3F10705042D00D90425191D072901D29A
:100A3000002300E0DB1E012606FA05F1491E2140D5
:100A400099409E40761E16403143F0BC00F001BF35
:100A50000CED00E0064900F0070208684FF6FF03BE
:100A6000184040EA0220034A104308607047000023
:100A70000CED00E00000FA052DE9F0470E460500F8
:100A800065D0DFF81481D8F80000F7B200F0070055
:100A9000B04207D288F80070D8F8000000F00700D4
:100AA000B04254D128683D4C810712D5400703D588
:100AB000206840F4E05020602878000703D52068C3
:100AC00040F4604020602068A96820F0F0000843EE
:100AD00020602878C0072DD030496868083901287F
:100AE00012D0022813D0032811D0096889070029E1
:100AF0002DDA216821F0030101432160FFF720FF77
:100B0000814641F2883A0EE009688903EFE70968F7
:100B10008901ECE7FFF714FFA0EB0901514502D969
:100B20000320BDE8F0872068696800F00C00B0EB96
:100B3000810FEFD1D8F80010404601F00701B14213
:100B400007D90770006800F00700B04201D001200B
:100B5000E7E72878400705D52068E96820F4E050E9
:100B6000084320602878000706D52068296920F40A
:100B7000604040EAC100206000F01EF82168084A89
:100B8000C1F30311515CC84006490860064800687B
:100B9000FFF7FEFE0020C4E7003C02400838024098
:100BA00050190008180000201000002001480068BB
:100BB0007047000018000020154810B5006810F0BC
:100BC0000C02144813D01449042A0FD0082A0ED15D
:100BD0000F4C241F2268236802F03F025B0207D5F6
:100BE0002068C0F38810A0FB010106E0084610BD94
:100BF0002168C1F38811A1FB00010023FFF7E0FA8F
:100C00002168C1F30141491C4900B0FBF1F010BD5E
:100C1000083802400024F40040787D012DE9F84FA7
:100C200004006ED02078DFF84C93C007A9F10405CA
:100C30004AD009F104000168C1F38101012908D0FB
:100C40000068C0F3810002280AD1D9F800004002F0
:100C500006D52868800337D560680028E1D033E0E6
:100C60006068B0F5803F10D0B0F5A02F286810D094
:100C700020F480302860286820F480202860606894
:100C8000A8B1FFF75DFE06460DE0286840F480300D
:100C9000F4E740F480202860F7E700BFFFF750FE3C
:100CA000801B642873D828688003F7D50CE0FFF711
:100CB00047FE064605E000BFFFF742FE801B6428A2
:100CC000F0D828688003F7D42078DFF8AC8280075A
:100CD0004FF0000A3ED5A748001D016811F00C0F27
:100CE00008D00068C0F3810002280BD1D9F80000B9
:100CF000400207D42868800716D5E068012800D193
:100D000012E033E1E068B8B10120C8F80000FFF755
:100D100017FE064605E000BFFFF712FE801B022803
:100D2000C0D828688007F7D52868216920F0F80026
:100D300040EAC10028600DE0C8F800A0FFF700FEFF
:100D4000064604E0FFF7FCFD801B02281FD8286838
:100D50008007F7D42078000722D5864F874861693D
:100D6000703771B101210160FFF7EAFD064604E02A
:100D7000FFF7E6FD801B022809D838688007F7D501
:100D80000EE0C0F800A0FFF7DBFD064605E082E0BC
:100D9000FFF7D6FD801B02287DD838688007F7D47E
:100DA0002078400768D5DFF8CCB100270BF13C0B69
:100DB000DBF80000C0000BD4DBF8001041F08051DC
:100DC000CBF80010DBF80000012700F08050009005
:100DD0006B4E3068C00510D4306840F480703060CD
:100DE000FFF7AEFD009005E0FFF7AAFD0099401A5D
:100DF000022850D83068C005F6D55E4EA0686C3623
:100E000001280FD00528306810D020F00100306094
:100E1000306820F004003060A068B8B1FFF790FDA2
:100E200000900FE0306840F00100F4E740F004006B
:100E30003060F7E7FFF784FD0099411A41F28830EE
:100E4000814266D830688007F4D50EE0FFF778FD60
:100E5000009007E0FFF774FD0099411A41F28830D5
:100E6000814256D830688007F4D42FB1DBF80010E7
:100E700021F08051CBF80010A069C8B33D49091D8D
:100E80000968C1F3810102294AD00228504607D0DF
:100E9000C8F8600000E03CE0FFF752FD04463BE08C
:100EA0004746C8F86000FFF74BFD064605E000BF67
:100EB000FFF746FD801B02282BD828688001F7D455
:100EC000D4E907010843A16A2E4A490802EB01410F
:100ED000626A41EA8211084394F82C1040EA0161E9
:100EE000C9F8001001203866FFF72AFD044606E025
:100EF0003EE000BFFFF724FD001B022809D8286848
:100F00008001F7D534E000BFFFF71AFD001B02286F
:100F100002D90320BDE8F88F28688001F4D427E0C7
:100F20000128F7D0D9F80000E26900F4800191426D
:100F30001CD1226A00F03F01914217D147F6C071DF
:100F4000626A0140B1EB821F10D1A26A4FF0FF33F9
:100F500000F4403103EB5202B1EB024F06D194F89A
:100F60002C1000F07060B0EB016F01D00120D1E7D0
:100F70000020CFE70438024000004742800E47427D
:100F8000007000400000FFFF10B5401EB0F1807FF0
:100F900001D3012010BD4FF0E02460610F216017E4
:100FA00000F057FC0020A06107202061002010BD48
:100FB00070B590F83C20012A32D0012480F83C40E2
:100FC000022280F83D2003685A689D6822F070066E
:100FD0000A6832435A60134B02689A4214D0B2F145
:100FE000804F11D0104B9A420ED0104B9A420BD02A
:100FF0000F4B9A4208D00F4B9A4205D00E4B9A42A3
:1010000002D00E4B9A4204D1496825F0800319435F
:10101000916080F83D40002180F83C10084670BD8A
:10102000022070BD000001400004004000080040A4
:10103000000C004000040140004001400018004046
:1010400070B586B0044614216846FFF7F1F82068B1
:10105000B0F1804F27D115480024016841F001010B
:101060000160016801F001010591016841F0020190
:1010700001600068022500F0020005900420009045
:10108000CDE901540126CDE9034669460848FFF73A
:1010900059FB08200090CDE90154CDE9034669468B
:1010A0000448FFF74FFB06B070BD00003038024027
:1010B000000002400004024070B5044690F83C0075
:1010C00000260D4601280FD0012084F83C006AB1AB
:1010D000042A1DD0082A2FD00C2A3FD00126002038
:1010E00084F83C00304670BD022070BD206800F0DE
:1010F000EDFA2068816941F0080181612068816909
:1011000021F004018161206881692A69114311E09D
:10111000206800F00BFB2068816941F40061816167
:101120002068816921F480618161206881692A6970
:1011300041EA02218161D2E7206800F02DFB20689E
:10114000C16941F00801C1612068C16921F0040151
:10115000C1612068C1692A69114311E0206800F06B
:101160004FFB2068C16941F40061C1612068C16919
:1011700021F48061C1612068C1692A6941EA0221C4
:10118000C161ACE710B5040003D094F83D0010B184
:1011900007E0012010BD002084F83C00204600F04C
:1011A0001FF8022084F83D00211D206800F018FA85
:1011B000012084F8460084F83E0084F83F0084F85B
:1011C000400084F8410084F8420084F8430084F829
:1011D000440084F8450084F83D00002010BD000064
:1011E00008B50068B0F1804F08D10548016841F0AA
:1011F00001010160006800F00100009008BD0000DE
:101200004038024010B50446022249B104290ED0EC
:10121000082913D094F84100012816D0012010BDF0
:1012200094F83E000128F9D184F83E200FE094F8AC
:101230003F000128F2D184F83F2008E094F84000F4
:101240000128EBD184F8402001E084F841200122FC
:10125000206800F02DFA16492068164A884201D00D
:10126000904203D1436C43F40043436420688842B6
:1012700013D0B0F1804F10D00F4988420DD00F49E4
:1012800088420AD00E49884207D0904205D00D49C5
:10129000884202D00C49884204D1816801F00701DC
:1012A000062903D0016841F001010160002010BD52
:1012B000000001400004014000040040000800401C
:1012C000000C00400040014000180040FEE7000014
:1012D00070B50B4D002401212846FFF72BFB60B9A8
:1012E0001920FFF71DFA01212846FFF723FB0028EC
:1012F000F9D01920FFF714FA0124204670BD000030
:101300000000024070B50B4D002402212846FFF773
:1013100011FB60B91920FFF703FA02212846FFF7F5
:1013200009FB0028F9D01920FFF7FAF9012420461B
:1013300070BD00000000024070B50B4D002401217B
:101340002846FFF7F7FA60B91920FFF7E9F90121FC
:101350002846FFF7EFFA0028F9D01920FFF7E0F947
:101360000124204670BD00000004024070B50B4D02
:10137000002402212846FFF7DDFA60B91920FFF7A3
:10138000CFF902212846FFF7D5FA0028F9D0192015
:10139000FFF7C6F90124204670BD0000000402409A
:1013A00000B587B014216846FEF742FF10480021BF
:1013B000026842F001020260026802F00102059236
:1013C000026842F002020260006800F0020005902C
:1013D0000320CDE900010120029069460548FFF78E
:1013E000B1F969460448FFF7ADF907B000BD000048
:1013F00030380240000002400004024010B58AB0BC
:10140000002407941C2168460894FEF711FF204829
:101410004FF08041016040F23F11C0E9011440F2F9
:10142000E731C0E903148461FFF7ACFE08B1FFF7B0
:1014300075F9079407A916480894FFF7B9FD08B194
:10144000FFF76CF9602000901920CDE90104042217
:1014500069460F480494FFF72FFE08B1FFF75EF9C5
:101460004B200190082269460948FFF725FE08B184
:10147000FFF754F904210648FFF7C4FE0821044889
:10148000FFF7C0FE0248FFF7DBFD0AB010BD000009
:101490001C000020FEE7FEE77047000010B510EECC
:1014A000100AFFF771F89FED0C1B53EC112BFEF7A0
:1014B000E3FF9FED0B1B53EC112BFEF76BFF9FED32
:1014C0000A1B53EC112BFEF7BEFEFFF744F8084948
:1014D0000968C86310BD000000000000008066407D
:1014E00000000000000059400000000000003940EA
:1014F0001C00002010B510EE100AFFF745F89FED14
:101500000C1B53EC112BFEF7B7FF9FED0B1B53EC9D
:10151000112BFEF73FFF9FED0A1B53EC112BFEF73B
:1015200092FEFFF718F808490968886310BD0000AB
:1015300000000000008066400000000000005940EC
:1015400000000000000039401C0000207047FFF739
:10155000FDB9000010B592B030216846FEF768FE74
:1015600014210CA8FEF764FE17480024016841F01E
:1015700080510160006800F08050119013480168AC
:1015800041F4804101600068069400F480401190AD
:101590000220009001200390102004906846FFF77D
:1015A0003DFB08B172B6FEE70F20CDE90C040E94A6
:1015B0000F9400210CA81094FFF75EFA002801D0C8
:1015C00072B6FEE712B010BD403802400070004015
:1015D0000248016841F470010160704788ED00E045
:1015E000F0B50268274B284D284E294F294C4FF063
:1015F000804C984209D0604507D0A84205D0B0423F
:1016000003D0B84201D0A04204D122F0700E4A6843
:1016100042EA0E0298421BD0604519D0A84217D06A
:10162000B04215D0B84213D0A04211D01A4DA842F2
:101630000ED01A4DA8420BD0194DA84208D0194D12
:10164000A84205D0184DA84202D0184DA84203D197
:1016500022F44075CA682A434D6922F080022A4369
:101660008D68C5620D688562984201D0A04201D1A3
:1016700009690163016841F00401016001214161D0
:101680000260F0BD0000014000040040000800407E
:10169000000C0040000401400040014000440140B3
:1016A0000048014000180040001C0040002000409D
:1016B00010B501F01F030121046A99408C430462B4
:1016C000016A9A401143016210BD0000F0B5036A3F
:1016D000026A22F00102026242688469124E24F01A
:1016E00073050C682C4323F002058B682B430D4DCA
:1016F000A84201D0B04205D123F00807CB683B4394
:1017000023F00403A84201D0B04205D14D6922F470
:10171000407215438A692A43426084614968416383
:101720000362F0BD0000014000040140F0B5026A10
:10173000036A23F010030362436884690D6824F48C
:10174000E64444EA05248D6822F0200242EA0512AC
:101750000F4D104EA84201D0B04206D1CF6822F002
:10176000800242EA071222F04002A84201D0B042B1
:1017700007D14D6923F4406343EA85038D6943EA49
:10178000850343608461496881630262F0BD0000A3
:101790000000014000040140F0B5026A036A23F42E
:1017A000807303624368C46922F4007224F07305F5
:1017B0000C68124E2C438D6842EA05220E4DA84259
:1017C00001D0B04206D1CF6822F4006242EA07227B
:1017D00022F48062A84201D0B04207D14D6923F4BF
:1017E000405343EA05138D6943EA05134360C4611E
:1017F0004968C1630262F0BD00000140000401407D
:1018000030B5046A026A22F4805202624268C369F7
:101810000D6823F4E64343EA05238D6824F400545D
:1018200044EA0534084DA84202D0084DA84204D12C
:101830004D6922F4804242EA85124260C3614968E0
:101840000164046230BD000000000140000401405A
:10185000FEE70907090E002804DB00F1E02080F80C
:101860000014704700F00F0000F1E02080F8141D14
:10187000704702E008C8121F08C1002AFAD1704759
:101880007047002001E001C1121F002AFBD1704700
:101890002DED028BFFF762F8FFF75CFEFEF72AFFE3
:1018A000FFF7ACFDFFF77CFDDFED248A244D254CCE
:1018B0009FED258A94ED000AFFF71CFE94ED010AC6
:1018C000FFF7ECFDFFF704FD18B1C4ED008A84EDCD
:1018D000018AFFF717FD58B194ED000AB5EEC00A72
:1018E000F1EE10FA02D184ED008A01E0C4ED008A25
:1018F000FFF722FD70B194ED010A144910EE100AB1
:10190000884203D010EE100AA84203D130EE480AF4
:1019100084ED010AFFF72AFD0028CBD094ED010ADF
:10192000B5EEC00AF1EE10FA03D010EE100AA8428C
:10193000C0D130EE080A84ED010ABBE700000000C8
:101940000000B442000000200000B4420000344314
:10195000000000000000000001020304060708095F
:1019600080190008000000201C0000007218000808
:101970009C1900081C0000204C040000821800087C
:10198000000000000000B442000000000100000060
:0C19900010000000000000000024F40023
:040000050800018965
:00000001FF
