:020000040800F2
:1000000070060020290200088F0D0008BD0C0008B2
:100010008D0D00081F040008590F000800000000A3
:10002000000000000000000000000000A90E000811
:100030002104000800000000910D0008AB0E00082C
:10004000430200084302000843020008430200087C
:10005000430200084302000843020008430200086C
:10006000430200084302000843020008430200085C
:10007000430200084302000843020008430200084C
:10008000430200084302000843020008430200083C
:10009000430200084302000843020008430200082C
:1000A000430200084302000843020008430200081C
:1000B000430200084302000843020008430200080C
:1000C00043020008430200084302000843020008FC
:1000D00043020008430200084302000843020008EC
:1000E00043020008430200084302000843020008DC
:1000F00043020008430200084302000843020008CC
:1001000043020008430200084302000843020008BB
:1001100043020008430200084302000843020008AB
:10012000430200084302000843020008430200089B
:10013000430200084302000843020008430200088B
:10014000430200084302000843020008430200087B
:10015000430200084302000843020008430200086B
:10016000430200084302000843020008430200085B
:100170004302000843020008430200080000000098
:10018000430200084302000800F002F800F03CF8C7
:100190000AA090E8000C82448344AAF10107DA45E2
:1001A00001D100F031F8AFF2090EBAE80F0013F0F8
:1001B000010F18BFFB1A43F001031847040E00009B
:1001C000240E0000103A24BF78C878C1FAD852072C
:1001D00024BF30C830C144BF04680C6070470000C1
:1001E0000023002400250026103A28BF78C1FBD840
:1001F000520728BF30C148BF0B6070471FB500F0E1
:10020000D1FE1FBD10B510BD00F0CFF81146FFF7AD
:10021000F5FF00F0B2FE00F0EDF803B4FFF7F2FFD7
:1002200003BC00F0F5F80000094880470948004782
:10023000FEE7FEE7FEE7FEE7FEE7FEE7FEE7FEE796
:10024000FEE7FEE704480549054A064B70470000F3
:10025000490F000889010008700000207006002086
:10026000700200207002002053EA020C00F0698046
:100270002DE9F04B4FF00006002B1FBFB3FA83F5BA
:1002800003FA05F424FA05F65E4012BF1643B2FAEB
:1002900082F502FA05F4C5F120051EBF22FA05FC1D
:1002A00044EA0C04203556EA044C4FEA144418BFC3
:1002B000641C4FF000084FF00009904271EB030CF2
:1002C00039D3002919BFB1FA81F701FA07F6B0FA5C
:1002D00080F700FA07F6C7F120071EBF20FA07FCD7
:1002E00046EA0C062037B6FBF4FCA7EB0507103FE7
:1002F00007F01F0BCBF120060CFA0BFB2CFA06F6CD
:1003000044BFB3460026202FA4BF5E464FF0000B2B
:100310005BEA060C08BF4FF0010B19EB0B09ABFBB6
:10032000027C48EB0608C01B06FB02CC0BFB03CC8F
:1003300071EB0C01C1E70B46024641464846BDE859
:10034000F08B13B54FF000004FF00001AFF30080C9
:10035000BDE81C4070474FF0000200B513469446BC
:100360009646203922BFA0E80C50A0E80C50B1F10D
:100370002001BFF4F7AF090728BFA0E80C5048BF21
:100380000CC05DF804EB890028BF40F8042B08BFBF
:10039000704748BF20F8022B11F0804F18BF00F8BB
:1003A000012B7047704770477047754600F02CF876
:1003B000AE4605006946534620F00700854618B052
:1003C00020B5FFF73FFFBDE820404FF000064FF09B
:1003D00000074FF000084FF0000B21F00701AC467A
:1003E000ACE8C009ACE8C009ACE8C009ACE8C00999
:1003F0008D46704710B50446AFF300802046BDE837
:100400001040FFF70ABF00000048704710000020AE
:1004100001491820ABBEFEE7260002007047FEE748
:100420007047000070B5044600F010F90546601CE6
:1004300002D004480078044400F008F9401BA042B0
:10044000FAD370BD000000202DE9F84FDFF8BCA101
:100450000022012503264FF00F090AF1040BAAF12F
:10046000040E00BF0B6805FA02F42340A34270D1CA
:100470000F7907F00307012F01D0022F16D18768EB
:100480004FEA420806FA08FC27EA0C07D1F80CC02C
:100490000CFA08FC4CEA070CC0F808C04768A743F0
:1004A0000C79C4F3001494403C4344600C79E44359
:1004B000A4070AD0C4684FEA420C06FA0CF7BC4302
:1004C0008F6807FA0CF72743C7600C7904F0030420
:1004D000022C12D1D40800EB840CDCF82040570722
:1004E000FF0E09FA07F824EA0804D1F8108008FA88
:1004F00007F848EA0408CCF8208004684FEA420C68
:1005000006FA0CF7BC430F7907F0030707FA0CF75C
:10051000274307604C6814F4403F70D03C4C276878
:1005200047F480472760246822F0030704F48044DE
:100530000094384C07EB040CDCF8084897074FEAA6
:10054000177809FA08F7BC43334FB84202D10027A5
:1005500024E054E0314FB84201D101271EE0304F72
:10056000B84201D1022719E02E4FB84201D103272A
:1005700014E02D4FB84201D104270FE02B4FB842B1
:1005800001D105270AE02A4FB84201D1062705E02C
:10059000284FB84201D1072700E0082707FA08F7DB
:1005A0002743CCF80878DAF800405746D1F804C061
:1005B0009C435FEACC2C00D51C433C60DBF8004038
:1005C0005F46D1F804C09C435FEA8C2C00D51C43E5
:1005D0003C60DEF800407746D1F804C09C435FEAF7
:1005E0008C3C00D51C433C60084F083F3C68D1F868
:1005F00004C09C435FEACC3C00D51C433C60521CC9
:10060000102AFFF42FAFBDE8F88F0000083C01402E
:100610004438024000300140000002400004024023
:1006200000080240000C024000100240001402408A
:1006300000180240001C02400069084000D0012060
:1006400070470AB1816170470904FBE7014880687F
:1006500070470000000000200248816802781144C1
:1006600081607047000000200B4810B5016841F41C
:1006700000710160016841F480610160016841F42A
:1006800080710160032000F073F80F2000F006F87D
:1006900000F024F8002010BD003C024070B50D4D64
:1006A00004464FF47A712878B1FBF0F00A490968E2
:1006B000B1FBF0F000F0EEFA48B9102C07D200229E
:1006C0002146501E00F034F800206C6070BD0120FF
:1006D00070BD0000000000200C000020134808B589
:1006E000016841F080010160016801F08001009122
:1006F000016841F001010160006800F00100009014
:100700000A481430016841F480410160006800F437
:100710008040009005481030016841F08051016030
:10072000006800F08050009008BD000030380240A2
:10073000F0B40E4B1B680C46C3F30223C3F107054C
:10074000042D00D90425191D072901D2002300E03A
:10075000DB1E012606FA05F1491E214099409E4004
:10076000761E16403143F0BC00F0F7BB0CED00E004
:10077000064900F0070208684FF6FF03184040EAF8
:100780000220034A10430860704700000CED00E0AF
:100790000000FA052DE9F0470E46050065D0DFF8A8
:1007A0001481D8F80000F7B200F00700B04207D279
:1007B00088F80070D8F8000000F00700B04254D16B
:1007C00028683D4C810712D5400703D5206840F4C6
:1007D000E05020602878000703D5206840F460408E
:1007E00020602068A96820F0F00008432060287885
:1007F000C0072DD0304968680839012812D0022876
:1008000013D0032811D00968890700292DDA21683F
:1008100021F0030101432160FFF718FF814641F2F7
:10082000883A0EE009688903EFE709688901ECE777
:10083000FFF70CFFA0EB0901514502D90320BDE8E9
:10084000F0872068696800F00C00B0EB810FEFD1F1
:10085000D8F80010404601F00701B14207D90770EF
:10086000006800F00700B04201D00120E7E72878D7
:10087000400705D52068E96820F4E050084320606F
:100880002878000706D52068296920F4604040EAEE
:10089000C100206000F018F82168084AC1F3031174
:1008A000515CC8400649086006480068FFF7F6FE3C
:1008B0000020C4E7003C024008380240AE0F0008A8
:1008C0000C00002004000020154810B5006810F04E
:1008D0000C02144813D04110042A0FD0082A0ED15C
:1008E0000F4C241F2268236802F03F025B0207D5E9
:1008F0002068C0F38810A0FB010106E0084610BD87
:100900002168C1F38811A1FB00010023FFF7ACFCB3
:100910002168C1F30141491C4900B0FBF1F010BD51
:10092000083802400024F4002DE9F84F04006ED08E
:100930002078DFF84C93C007A9F104054AD009F1EB
:1009400004000168C1F38101012908D00068C0F3E7
:10095000810002280AD1D9F80000400206D5286893
:10096000800337D560680028E1D033E06068B0F5D7
:10097000803F10D0B0F5A02F286810D020F4803030
:100980002860286820F4802028606068A8B1FFF7FC
:100990005DFE06460DE0286840F48030F4E740F440
:1009A00080202860F7E700BFFFF750FE801B642817
:1009B00073D828688003F7D50CE0FFF747FE06469A
:1009C00005E000BFFFF742FE801B6428F0D82868CE
:1009D0008003F7D42078DFF8AC8280074FF0000A5C
:1009E0003ED5A748001D016811F00C0F08D0006823
:1009F000C0F3810002280BD1D9F80000400207D4CF
:100A00002868800716D5E068012800D112E033E19C
:100A1000E068B8B10120C8F80000FFF717FE0646ED
:100A200005E000BFFFF712FE801B0228C0D828682F
:100A30008007F7D52868216920F0F80040EAC10056
:100A400028600DE0C8F800A0FFF700FE064604E0AD
:100A5000FFF7FCFD801B02281FD828688007F7D409
:100A60002078000722D5864F87486169703771B1B9
:100A700001210160FFF7EAFD064604E0FFF7E6FD0D
:100A8000801B022809D838688007F7D50EE0C0F827
:100A900000A0FFF7DBFD064605E082E0FFF7D6FD8C
:100AA000801B02287DD838688007F7D4207840075B
:100AB00068D5DFF8CCB100270BF13C0BDBF8000068
:100AC000C0000BD4DBF8001041F08051CBF80010CF
:100AD000DBF80000012700F0805000906B4E30687A
:100AE000C00510D4306840F480703060FFF7AEFD70
:100AF000009005E0FFF7AAFD0099401A022850D89F
:100B00003068C005F6D55E4EA0686C3601280FD05F
:100B10000528306810D020F001003060306820F0E7
:100B200004003060A068B8B1FFF790FD00900FE0BE
:100B3000306840F00100F4E740F004003060F7E76F
:100B4000FFF784FD0099411A41F28830814266D84E
:100B500030688007F4D50EE0FFF778FD009007E0DD
:100B6000FFF774FD0099411A41F28830814256D84E
:100B700030688007F4D42FB1DBF8001021F08051E9
:100B8000CBF80010A069C8B33D49091D0968C1F33D
:100B9000810102294AD00228504607D0C8F86000D7
:100BA00000E03CE0FFF752FD04463BE04746C8F852
:100BB0006000FFF74BFD064605E000BFFFF746FD6E
:100BC000801B02282BD828688001F7D4D4E90701BC
:100BD0000843A16A2E4A490802EB0141626A41EAD0
:100BE0008211084394F82C1040EA0161C9F8001002
:100BF00001203866FFF72AFD044606E03EE000BF0C
:100C0000FFF724FD001B022809D828688001F7D5CA
:100C100034E000BFFFF71AFD001B022802D90320B1
:100C2000BDE8F88F28688001F4D427E00128F7D0C8
:100C3000D9F80000E26900F4800191421CD1226AD7
:100C400000F03F01914217D147F6C071626A01403E
:100C5000B1EB821F10D1A26A4FF0FF3300F4403194
:100C600003EB5202B1EB024F06D194F82C1000F0C6
:100C70007060B0EB016F01D00120D1E70020CFE719
:100C80000438024000004742800E47420070004096
:100C90000000FFFF10B5401EB0F1807F01D301209E
:100CA00010BD4FF0E02460610F21601700F055F98E
:100CB0000020A06107202061002010BDFEE7000099
:100CC00070B50D4D002401212846FFF7B5FC88B909
:100CD0003220FFF7A7FB01212846FFF7ADFC0128D2
:100CE000F9D03220FFF79EFB01212846FFF7A4FC34
:100CF00000B90124204670BD0000024070B50E4DC1
:100D0000002402212846FFF797FC012812D1322047
:100D1000FFF788FB02212846FFF78EFC0028F9D058
:100D20003220FFF77FFB02212846FFF785FC0128D0
:100D300000D10124204670BD00000240F0B587B00C
:100D400014216846FFF707FB0E480024016841F0B4
:100D5000020101600068012500F0020005900A4FC1
:100D6000CDE900540226694602963846FFF76CFB2F
:100D7000009669463846CDE90145FFF765FB07B0A7
:100D8000F0BD00003038024000000240FEE7FEE700
:100D90007047000010B5094C012208212046FFF7DA
:100DA00050FC002221150648FFF74BFC204601228B
:100DB000BDE810401021FFF744BC000000100240C5
:100DC000001802402DE9F04186B014216846FFF773
:100DD000C2FA1A480024016841F01001016001685C
:100DE00001F010010591016841F0400101600068C7
:100DF000134F00F040000590012218213846FFF7FC
:100E000020FC0122DFF83C80960231464046FFF785
:100E100018FC182000900125CDE901546946384698
:100E20000394FFF711FB0096CDE901546946404653
:100E30000394FFF709FB06B0BDE8F08130380240AB
:100E4000001002400018024010B5094C0122082190
:100E50002046FFF7F6FB012291020648FFF7F1FB5F
:100E600020460122BDE810401021FFF7EABB000038
:100E7000001002400018024010B5094C0022082161
:100E80002046FFF7DEFB012291020648FFF7D9FB5F
:100E900020460122BDE810401021FFF7D2BB000020
:100EA00000100240001802407047FFF7D5BB000059
:100EB00030B593B030216846FFF74DFA14210CA8E5
:100EC000FFF749FA1E480025016841F08051016092
:100ED000006800F0805011901A48016841F4804188
:100EE00001600068022400F480401190012000900D
:100EF000000401908001CDE90640082008904FF4DD
:100F0000A870CDE9090404200B906846FFF70CFD9A
:100F100008B172B6FEE70CA90F2081E831004FF44A
:100F2000A0500F904FF48050109005210CA8FFF7AF
:100F300031FC002801D072B6FEE713B030BD0000CE
:100F400040380240007000400248016841F47001DE
:100F50000160704788ED00E0FEE70907090E0028F0
:100F600004DB00F1E02080F80014704700F00F006F
:100F700000F1E02080F8141D7047FFF775FBFFF7C4
:100F8000DDFEFFF71FFFFFF793FFFFF799FE08B1A4
:100F9000FFF75AFFFFF7B2FE08B1FFF76DFFFFF74B
:100FA000F9FEF2E74FF04070E1EE100A70470000E2
:100FB0000000000000000102030406070809000009
:100FC000E00F00080000002010000000C40100082D
:100FD000F00F00081000002060060000E00100088B
:100FE0000100000010000000000000000024F400D8
:040000050800018965
:00000001FF
